:020000040000FA
:10000000ADEF28F0D190000C056ED8CF06F0E0CF10
:1000100007F00001E9CF0DF0EACF08F0E1CF09F0D9
:10002000E2CF0AF0D9CF0BF0DACF0CF0F3CF14F017
:10003000F4CF15F0FACF16F0FBCF17F000C00FF099
:1000400001C010F002C011F003C012F004C013F0A0
:100050009DA02EEF00F09EB011EF1AF00FC000F03F
:1000600010C001F011C002F012C003F013C004F080
:100070000E8E0DC0E9FF08C0EAFF09C0E1FF0AC00B
:10008000E2FF0BC0D9FF0CC0DAFF14C0F3FF15C0AC
:10009000F4FF16C0FAFF17C0FBFF055007C0E0FFD2
:1000A00006C0D8FF1000F2CF0EF0F29EF76AC40F20
:1000B000F66E000EF722000EF86E0900F5500EBE27
:1000C000F28E1200005EBCE2613FDD83C29C7E20A6
:1000D000A3FD1F419DC3217FFCA2401E5F01E3BD24
:1000E0003E6082DC237D9FC1421CFEA0E1BF5D0318
:1000F00080DE3C62BEE0025CDF81633D7C22C09E0C
:100100001D43A1FF4618FAA427799BC584DA3866F7
:10011000E5BB5907DB856739BAE406581947A5FBE3
:100120007826C49A653BD987045AB8E6A7F91B45D7
:10013000C6987A24F8A6441A99C7257B3A6486D8CB
:100140005B05E7B98CD2306EEDB3510F4E10F2ACB7
:100150002F7193CD114FADF3702ECC92D38D6F31A3
:10016000B2EC0E50AFF1134DCE90722C6D33D18F97
:100170000C52B0EE326C8ED0530DEFB1F0AE4C128B
:1001800091CF2D73CA947628ABF517490856B4EA77
:100190006937D58B5709EBB536688AD495CB297763
:1001A000F4AA4816E9B7550B88D6346A2B7597C957
:1001B0004A14F6A8742AC896154BA9F7B6E80A544B
:1001C000D7896B35F76AD80FF66E010EF722000E4D
:1001D000F86E0900F5501200000180028080800353
:1001E000808080808080800480808080808080808B
:1001F000808080808080800580808080808080807A
:1002000080808080808080808080808080808080EE
:100210008080808080808006808080808080808058
:1002200080808080808080808080808080808080CE
:1002300080808080808080808080808080808080BE
:1002400080808080808080808080808080808080AE
:100250008080808080808007808080808080808017
:10026000808080808080808080808080808080808E
:10027000808080808080808080808080808080807E
:10028000808080808080808080808080808080806E
:10029000808080808080808080808080808080805E
:1002A000808080808080808080808080808080804E
:1002B000808080808080808080808080808080803E
:1002C000808080808080808080808080808080802E
:1002D0008080808080808008F76AEC0FF66E020EC6
:1002E000F722000EF86E0900F5501200000101021D
:1002F00001020203010202030203030401020203DA
:1003000002030304020303040304040501020203BD
:1003100002030304020303040304040502030304A9
:100320000304040503040405040505060102020391
:100330000203030402030304030404050203030489
:10034000030404050304040504050506020303046D
:100350000304040503040405040505060304040559
:100360000405050604050506050606070102020345
:100370000203030402030304030404050203030449
:10038000030404050304040504050506020303042D
:100390000304040503040405040505060304040519
:1003A0000405050604050506050606070203030401
:1003B00003040405030404050405050603040405F9
:1003C00004050506040505060506060703040405DD
:1003D00004050506040505060506060704050506C9
:1003E000050606070506060706070708F76A000F51
:1003F000F66E040EF722000EF86E0900F55012009A
:100400000002080A2022282A8082888AA0A2A8AA9C
:10041000F76A240FF66E040EF722000EF86E09003C
:10042000F55012000102050B162C58B1F76A400F67
:10043000F66E040EF722000EF86E0900F550120059
:10044000806440170B060202246A286A2EA62BEF4E
:1004500002F0010E246E2FA830EF02F0010E241AD4
:100460002FAC35EF02F0010E286E2FAE3AEF02F0FE
:10047000010E281A2850241A286A2EAE42EF02F0E4
:10048000010E286ED8902E36D8902F36282C4AEFA1
:1004900002F02F802452D8A42E80246A45AE53EF58
:1004A00002F0010E246E45AA58EF02F0010E241A44
:1004B00045A85DEF02F0010E241A45A462EF02F098
:1004C000010E241AD8904536245045121DEF1AF01B
:1004D00045B06FEF02F0800E016EA2EF02F045B260
:1004E00076EF02F0C00E016EA2EF02F045B47DEF90
:1004F00002F0E00E016EA2EF02F045B684EF02F0CA
:10050000F00E016EA2EF02F045B88BEF02F0F80E8C
:10051000016EA2EF02F045BA92EF02F0FC0E016EFE
:10052000A2EF02F045BC99EF02F0FE0E016EA2EFC1
:1005300002F045BEA0EF02F0FF0E016EA2EF02F046
:10054000FF0E016E1FEF1AF0BEC131F0246ABFC169
:1005500020F03152D8B4D2EF02F03150CF5CD8A0A5
:10056000B6EF02F0000E016E24EF05F09EA0BDEF85
:1005700002F0000E016E24EF05F0CF50315C2A0826
:10058000D8B0C7EF02F0FF0E2D6ED0EF02F0CF50C3
:10059000315C006ED89000342D6E2D502D242D2608
:1005A000DFEF02F09EA0DFEF02F09E9020062052C7
:1005B000D8A4DFEF02F0000E016E24EF05F09E924A
:1005C0009EA2E0EF02F0CCCF22F022A0EAEF02F0F0
:1005D000ECEF02F00000000022A2F1EF02F0F4EFD5
:1005E00002F000000000000022A4F9EF02F0FEEF8C
:1005F00002F00000000000000000000000006B9A04
:100600006B986B88A4BA6E50A4BA6E50A4AA06EF79
:1006100003F06E50016E01C023F02D2E12EF03F097
:10062000A9EF02F0233C17EF03F019EF03F006EFF8
:1006300003F0A4AA19EF03F06ECF23F02D2E23EFC1
:1006400003F0A9EF02F02350F2CFC0F1F29EE2ECEA
:1006500000F00101C0BFF28E016E01C022F02250F5
:100660000708D8B003D000013FEF03F0000122C01B
:1006700029F0080ED8802254246E46EF03F022AEF3
:1006800044EF03F0A9EF02F019EF03F0A4AA46EF3C
:1006900003F06ECF23F02D2E50EF03F0A9EF02F000
:1006A0002350FF0AF2CFC1F1F29EE2EC00F001010B
:1006B000C1BFF28E016E01C022F022500708D8B0EF
:1006C00003D0000174EF03F00001225024242A6EAD
:1006D000120E2A5C0C08D8B070EF03F0A9EF02F0FC
:1006E000080E24267DEF03F0080E242622AE7BEFB1
:1006F00003F0A9EF02F046EF03F0A4AA7DEF03F0A8
:100700006ECF23F02D2E87EF03F0A9EF02F02350D8
:10071000F2CFC0F1F29EE2EC00F00101C0BFF28E18
:10072000016E01C022F022500708D8B003D00001AA
:10073000AAEF03F00001225024242B6E2F0E2B5C15
:100740000208D8B0A6EF03F0A9EF02F0080E2426A5
:10075000B3EF03F0080E242622AEB1EF03F0A9EFA9
:1007600002F07DEF03F0A4AAB3EF03F06ECF23F005
:100770002D2EBDEF03F0A9EF02F02350FF0AF2CFB8
:10078000C1F1F29EE2EC00F00101C1BFF28E016EF8
:1007900001C022F022500708D8B003D00001E0EFDA
:1007A00003F00001225024242C6E2A502C5CD10F1F
:1007B0000208D8B0DEEF03F0A9EF02F0E9EF03F092
:1007C000080E242622AEE7EF03F0A9EF02F0B3EF04
:1007D00003F02A502A242B242B24A00F286E2C50FF
:1007E0002824D00F286E030E28262830226E2232AD
:1007F0003F0E22162838246E0F0E24162838206E3D
:1008000020322032030E20162D6A28BE2D8024505F
:10081000222420242D24006ED8900030286E0C0E47
:10082000285E29502826070E28162A502B5CD880CF
:100830002A54266E2852D8B44BEF04F09E929E9212
:100840009EA220EF04F0CCCF22F022A02AEF04F0E9
:100850002CEF04F00000000022A231EF04F034EF8E
:1008600004F000000000000022A439EF04F03EEF85
:1008700004F0000000000000000000000000050E71
:10088000006E002EFED700D000000000282E44EF9E
:1008900004F0CC6A9E929E929EA24CEF04F0CCCFC4
:1008A00022F022A056EF04F058EF04F00000000000
:1008B00022A25DEF04F060EF04F0000000000000F1
:1008C00022A465EF04F06AEF04F0000000000000CD
:1008D0000000000000006B9A6B986B88A4BA6E5001
:1008E000A4BA6E50280E2D6E010E226E2252D8B47C
:1008F00088EF04F0A4AA7AEF04F06E50016E01C0F4
:1009000022F02D2E86EF04F022EF05F076EF04F0B2
:100910002252D8A49AEF04F0A4AA8CEF04F06E50EF
:10092000016E01C022F02D2E98EF04F022EF05F0A9
:1009300088EF04F02250F008D8A4ADEF04F0265060
:100940000408D8B0ABEF04F0A4AAA4EF04F06E50F2
:10095000016E01C022F0B7EF04F022B8B7EF04F047
:10096000A4AAB0EF04F06E50016E01C022F0286A14
:10097000A4AAB8EF04F06E50016E01C022F02D2E33
:10098000C4EF04F022EF05F0223CCCEF04F0D89045
:1009900028362880D7EF04F02252D8A4D5EF04F0EF
:1009A000D89028362890D7EF04F0A9EF02F03F0E38
:1009B000281628503208D8A4E0EF04F0FAEF04F02B
:1009C000A4AAE0EF04F06E50016E01C022F02D2EBB
:1009D000ECEF04F022EF05F0A4AAECEF04F06E5067
:1009E000016E01C022F02D2EF8EF04F022EF05F089
:1009F000B8EF04F09E929EA2FBEF04F0CCCF22F061
:100A000022A005EF05F007EF05F00000000022A28C
:100A10000CEF05F00FEF05F000000000000022A42D
:100A200014EF05F019EF05F00000000000000000D1
:100A3000000000000A0ECF6E220ECE6E010E016E77
:100A400024EF05F0A9EF02F0000CCF500008D8B059
:100A50002EEF05F0000E016EC2EF05F0010E010150
:100A6000C06F0001C0C131F09E903150FD08D8B078
:100A70003CEF05F0FD0E316E3150CF5CD8A03CEF5D
:100A800005F0CEA641EF05F0CECF22F022A04BEF2D
:100A900005F04DEF05F00000000022A252EF05F036
:100AA00055EF05F000000000000022A45AEF05F009
:100AB0005FEF05F0000000000000000000000000F3
:100AC000CC6A9E929EA262EF05F0CCCF22F022A0CB
:100AD0006CEF05F06EEF05F00000000022A273EF4E
:100AE00005F076EF05F000000000000022A47BEF87
:100AF00005F080EF05F0000000000000000000009D
:100B00000000E30E326EC950206E3250C96EC7A08D
:100B100087EF05F08E0E326EC950206E3250C96ECE
:100B2000C7A090EF05F0380E326EC950206E3250DB
:100B3000C96EC7A099EF05F0E30E326EC950206E62
:100B40003250C96EC7A0A2EF05F08F0E326EC950A9
:100B5000206E3250C96EC7A0ABEF05F0C00E326EEA
:100B6000C950206E3250C96EC7A0B4EF05F0E00E38
:100B7000326EC950206E3250C96EC7A0BDEF05F06D
:100B8000010E016E000C392C0BEF06F043502E14B1
:100B900043240101BD6FBE6BBDC1BFF10001A4ECD8
:100BA00002F00152D8B4D9EF05F0010E016E22EF28
:100BB00006F0CF6ACE6A979A8E9A98988F8825EC1D
:100BC00005F0979A8E8A98988F888C820101BE6B67
:100BD000020EBF6F0001A4EC02F00152D8B4F5EF91
:100BE00005F0010E016E22EF06F02EC0BEF1010EDF
:100BF0000101BF6F0001A4EC02F00152D8B405EF6F
:100C000006F0010E016E22EF06F0000E016E22EFDB
:100C100006F022EF06F043502E1443240101BD6F6D
:100C2000BE6BBDC1BFF10001A4EC02F00152D8B40B
:100C30001EEF06F0010E016E22EF06F0000E016EAF
:100C400022EF06F07AEF1AF037A02BEF06F0010E34
:100C5000016E2DEF06F0000E016E000C24EC06F084
:100C60000152D8B442EF06F050065052D8A442EFD9
:100C700006F0379037AC40EF06F0379C41EF06F0B6
:100C80003792516A000C4050F00B006E003A0F0E84
:100C900000160050036AF2CFC0F1F29EF6EC01F0AC
:100CA0000101C0BFF28E016E01C02AF040500F0B4F
:100CB000036AF2CFBFF1F29E0001F6EC01F00101F0
:100CC000BFBFF28E016E01C029F0246ABD53D8B4B3
:100CD00003D00001EAEF06F00001979A8E9A9898E7
:100CE0008F88CF500A08D8B07AEF06F0000E016E58
:100CF00095EF07F00B0E0101C06F0001C0C131F08C
:100D00009E903150FD08D8B088EF06F0FD0E316E90
:100D10003150CF5CD8A088EF06F0CEA68DEF06F05C
:100D2000CECF22F022A097EF06F099EF06F0000058
:100D3000000022A29EEF06F0A1EF06F000000000E6
:100D4000000022A4A6EF06F0ABEF06F000000000C2
:100D50000000000000000000CC6A9E929EA2AEEF50
:100D600006F0CCCF22F022A0B8EF06F0BAEF06F0E2
:100D70000000000022A2BFEF06F0C2EF06F0000064
:100D80000000000022A4C7EF06F0CCEF06F0000040
:100D9000000000000000000000002AC032F0C9502E
:100DA000206E3250C96EC7A0D3EF06F029C032F0D2
:100DB000C950206E3250C96EC7A0DCEF06F0979A7A
:100DC0008E8A98988F888C82000E016E95EF07F0BE
:100DD00095EF07F0979A8E8A98988F888C92CF50CB
:100DE0000A08D8B0F8EF06F0000E016E95EF07F094
:100DF0000B0E0101C06F0001C0C131F09E90315057
:100E0000FD08D8B006EF07F0FD0E316E3150CF5C13
:100E1000D8A006EF07F0CEA60BEF07F0CECF22F05A
:100E200022A015EF07F017EF07F00000000022A244
:100E30001CEF07F01FEF07F000000000000022A4E5
:100E400024EF07F029EF07F0000000000000000089
:100E500000000000CC6A9E929EA22CEF07F0CCCF3F
:100E600022F022A036EF07F038EF07F00000000074
:100E700022A23DEF07F040EF07F000000000000065
:100E800022A445EF07F04AEF07F000000000000041
:100E90000000000000006B9A6B986B88A4BA6E503B
:100EA000A4BA6E50286A28500708D8A08CEF07F023
:100EB000A4AA58EF07F06E50016E01C022F0225034
:100EC000F2CFBEF1F29E6CEC01F00101BEBFF28EDA
:100ED000016E01C02BF00001A4AA6CEF07F06E5068
:100EE000016E01C022F02250F2CFBEF1F29E6CECF6
:100EF00001F00101BEBFF28E016E2B26D890243284
:100F00002B500108D8A003D0000189EF07F00001A1
:100F1000248E282A53EF07F0979A8E8A98988F8804
:100F20008C822450016E95EF07F0000C0101D55121
:100F3000D703F3CF01F0F4CF00F0D803F35000262D
:100F4000D651D703F3500020026E0001000C979A8F
:100F50008E8A98988F888C928B9AC69A8B9ACF504B
:100F60000E08D8B0B9EF07F0C68A000E016EA6EFE2
:100F700008F00F0E0101C06F0001C0C131F09E905A
:100F80003150FD08D8B0C7EF07F0FD0E316E31507B
:100F9000CF5CD8A0C7EF07F0CEA6CCEF07F0CECF3E
:100FA00022F022A0D6EF07F0D8EF07F000000000F3
:100FB00022A2DDEF07F0E0EF07F0000000000000E4
:100FC00022A4E5EF07F0EAEF07F0000000000000C0
:100FD000000000000000CC6A9E929EA2EDEF07F098
:100FE000CCCF22F022A0F7EF07F0F9EF07F00000D6
:100FF000000022A2FEEF07F001EF08F00000000061
:10100000000022A406EF08F00BEF08F0000000003B
:1010100000000000000000006B9A6B986B88A4BA77
:101020006E50A4BA6E50226A246A0101BD37BE37E1
:10103000BD37BE37BD37BE37BD37BE37BD37BE370C
:10104000BD37BE37C00EBD170001A4AA25EF08F0BA
:101050006E50016E286A28500A08D8A08BEF08F05D
:101060000101BEBF03D000013EEF08F00001979AD6
:101070008E9A98988F888B8A44EF08F0979A8E8A78
:1010800098988F888C928B9A2250F2CFBFF1F29E63
:101090006CEC01F00101BFBFF28E016E24262450DA
:1010A0000708D8A003D000015AEF08F00001280675
:1010B0008BEF08F0A4AA5AEF08F06E50016E01C041
:1010C00022F0A4AA61EF08F06E50016E01C022F078
:1010D000A4AA68EF08F06E50016E01C022F0225001
:1010E000F2CFBFF1F29E6CEC01F00101BFBFF28EB6
:1010F000016E01C024F00001A4AA7CEF08F06E503C
:10110000016E01C022F0D8900101BD37BE37000149
:10111000282A2BEF08F08B9AC68A979A8E8A98987D
:101120008F888C8228500B08D8A49BEF08F0010E02
:10113000016EA6EF08F028500908D8A0A4EF08F027
:10114000020E016EA6EF08F0000E016E000CC68ABA
:10115000979A8E9A98988F88180E0101C06F000197
:10116000C0C131F09E903150FD08D8B0BAEF08F000
:10117000FD0E316E3150CF5CD8A0BAEF08F0CEA68C
:10118000BFEF08F0CECF22F022A0C9EF08F0CBEFDE
:1011900008F00000000022A2D0EF08F0D3EF08F022
:1011A00000000000000022A4D8EF08F0DDEF08F0F6
:1011B000000000000000000000000000CC6A9E92C9
:1011C0009EA2E0EF08F0CCCF22F022A0EAEF08F0D8
:1011D000ECEF08F00000000022A2F1EF08F0F4EFBD
:1011E00008F000000000000022A4F9EF08F0FEEF74
:1011F00008F0000000000000000000000000AA0E3F
:10120000326EC950206E3250C96ECA0E326EC7A0FF
:1012100007EF09F0C950206E3250C96E2EA415EFA9
:1012200009F0170E326E17EF09F0740E326EC7A078
:1012300017EF09F0C950206E3250C96E32C029F044
:101240000C0E5124020F326EC7A024EF09F0C950D2
:10125000206E3250C96E246A24500708D8A03DEF92
:1012600009F02A6A29B62A2A29BC2A2AD8902936BE
:101270002AB02980242A2CEF09F029509519326EC2
:10128000C7A040EF09F0C950206E3250C96E246AE1
:1012900024500708D8A059EF09F02A6A29B62A2A4B
:1012A00029BC2A2AD89029362AB02980242A48EF36
:1012B00009F029509619326EC7A05CEF09F0C950A9
:1012C000206E3250C96E246A24500708D8A075EFEA
:1012D00009F02A6A29B62A2A29BC2A2AD89029364E
:1012E0002AB02980242A64EF09F02950AA0A326E14
:1012F000C7A078EF09F0C950206E3250C96E246A39
:1013000024500708D8A091EF09F02A6A29B62A2AA2
:1013100029BC2A2AD89029362AB02980242A80EF8D
:1013200009F02950AA0A326EC7A094EF09F0C950FB
:10133000206E3250C96E246A24500708D8A0ADEF41
:1013400009F02A6A29B62A2A29BC2A2AD8902936DD
:101350002AB02980242A9CEF09F02950AA0A326E6B
:10136000C7A0B0EF09F0C950206E3250C96E246A90
:1013700024500708D8A0C9EF09F02A6A29B62A2AFA
:1013800029BC2A2AD89029362AB02980242AB8EFE5
:1013900009F02950AA0A326EC7A0CCEF09F0C95053
:1013A000206E3250C96E286A28500B08D8A0FFEF73
:1013B00009F0246A24500708D8A0EBEF09F02A6A44
:1013C00029B62A2A29BC2A2AD89029362AB0298067
:1013D000242ADAEF09F0036A2850210FE96E010E82
:1013E0000320EA6EEF502918326EC7A0F5EF09F01E
:1013F000C950206E3250C96E282AD4EF09F051C06E
:101400002DF0286A2D50285CD8B02DEF0AF0246A00
:1014100024500708D8A019EF0AF02A6A29B62A2A08
:1014200029BC2A2AD89029362AB02980242A08EFF4
:101430000AF0036A2850950FE96E000E0320EA6E49
:10144000EF502918326EC7A023EF0AF0C950206E62
:101450003250C96E282A02EF0AF0246A2450070885
:10146000D8A03FEF0AF02A6A29B62A2A29BC2A2ADC
:10147000D89029362AB02980242A2EEF0AF0295044
:1014800001013B19326E0001C7A044EF0AF0C950B8
:10149000206E3250C96E246A24500708D8A05DEF30
:1014A0000AF02A6A29B62A2A29BC2A2AD89029367B
:1014B0002AB02980242A4CEF0AF0295001013C1956
:1014C000326E0001C7A062EF0AF0C950206E3250A0
:1014D000C96E01014053D8A403D000019DEF0AF06A
:1014E0000001C70E326EC7A073EF0AF0C950206E1C
:1014F0003250C96E246A24501F08D8A08BEF0AF01E
:10150000326AC7A081EF0AF0C950206E3250C96E0E
:10151000242A7BEF0AF0246A24501F08D8A09DEFEC
:101520000AF0FF0E326EC7A093EF0AF0C950206E8A
:101530003250C96E242A8CEF0AF0326AC7A09EEF9F
:101540000AF0C950206E3250C96EC7A0A5EF0AF04C
:10155000378A010E016EBDEF1BF037ACB5EF0AF014
:10156000379C3790516AB8EF0AF037823790516A4A
:10157000BFEF1BF0206AA4AABBEF0AF06E50016E09
:1015800001C022F02250E709FF08D8A4CCEF0AF0EE
:10159000010E226ECDEF0AF0226A22B0208EA4AA9C
:1015A000CFEF0AF06E50016E01C022F02250E70921
:1015B000FF08D8A4E0EF0AF0010E226EE1EF0AF076
:1015C000226A22B0208CA4AAE3EF0AF06E50016ECA
:1015D00001C022F02250E709FF08D8A4F4EF0AF076
:1015E000010E226EF5EF0AF0226A22B0208AA4AA28
:1015F000F7EF0AF06E50016E01C022F02250E709A9
:10160000FF08D8A408EF0BF0010E226E09EF0BF0D3
:10161000226A22B02088A4AA0BEF0BF06E50016E54
:1016200001C022F02250E709FF08D8A41CEF0BF0FC
:10163000010E226E1DEF0BF0226A22B02086A4AAB2
:101640001FEF0BF06E50016E01C022F02250E7092F
:10165000FF08D8A430EF0BF0010E226E31EF0BF033
:10166000226A22B02084A4AA33EF0BF06E50016EE0
:1016700001C022F02250E709FF08D8A444EF0BF084
:10168000010E226E45EF0BF0226A22B02082A4AA3E
:1016900047EF0BF06E50016E01C022F02250E709B7
:1016A000FF08D8A458EF0BF0010E226E59EF0BF093
:1016B000226A22B02080000C206AA4AA5DEF0BF001
:1016C0006E50016E01C022F02A6A29B62A2A29BC6E
:1016D0002A2AD89029362AB029802250E709FF0803
:1016E000D8A477EF0BF0010E226E78EF0BF0226A90
:1016F0002950221A22B0208EA4AA7CEF0BF06E5043
:10170000016E01C022F02A6A29B62A2A29BC2A2A97
:10171000D89029362AB029802250E709FF08D8A49A
:1017200096EF0BF0010E226E97EF0BF0226A295014
:10173000221A22B0208CA4AA9BEF0BF06E50016EEF
:1017400001C022F02A6A29B62A2A29BC2A2AD8905E
:1017500029362AB029802250E709FF08D8A4B5EF1E
:101760000BF0010E226EB6EF0BF0226A2950221AFE
:1017700022B0208AA4AABAEF0BF06E50016E01C00D
:1017800022F02A6A29B62A2A29BC2A2AD890293680
:101790002AB029802250E709FF08D8A4D4EF0BF023
:1017A000010E226ED5EF0BF0226A2950221A22B0C8
:1017B0002088A4AAD9EF0BF06E50016E01C022F070
:1017C0002A6A29B62A2A29BC2A2AD89029362AB078
:1017D00029802250E709FF08D8A4F3EF0BF0010E8F
:1017E000226EF4EF0BF0226A2950221A22B02086D2
:1017F000A4AAF8EF0BF06E50016E01C022F02A6A25
:1018000029B62A2A29BC2A2AD89029362AB0298022
:101810002250E709FF08D8A412EF0CF0010E226E47
:1018200013EF0CF0226A2950221A22B02084A4AAB5
:1018300017EF0CF06E50016E01C022F02A6A29B633
:101840002A2A29BC2A2AD89029362AB0298022504F
:10185000E709FF08D8A431EF0CF0010E226E32EF39
:101860000CF0226A2950221A22B02082A4AA36EF54
:101870000CF06E50016E01C022F02A6A29B62A2AA5
:1018800029BC2A2AD89029362AB029802250E70973
:10189000FF08D8A450EF0CF0010E226E51EF0CF0AF
:1018A000226A2950221A22B02080000C286A28506F
:1018B0000708D8A0B9EF0CF0A4AA5CEF0CF06E50AA
:1018C000016E2A6A29B62A2A29BC2A2AD8902936E2
:1018D0002AB02980D89028340101C16BC06F420E14
:1018E000C025E96E010EC121EA6EEF502B5CD8B421
:1018F00003D00001A8EF0CF00001A4AA7DEF0CF0CA
:101900006E50016E2A6A29B62A2A29BC2A2AD89042
:1019100029362AB02980D89028340101C16BC06FC4
:10192000010EC025016E000EC121036E0150420F51
:10193000E96E010E0320EA6EEF502C5CD8B403D0A0
:101940000001A6EF0CF00001010E246EB6EF0CF0C2
:10195000A4AAA8EF0CF06E50016E2A6A29B62A2AB2
:1019600029BC2A2AD89029362AB02980282A57EF5C
:101970000CF0286A28500F08D8A0D0EF0CF0A4AAC9
:10198000BFEF0CF06E50016E2A6A29B62A2A29BCD4
:101990002A2AD89029362AB02980282ABAEF0CF0B2
:1019A0002BEF16F00101D26BD16BD36B000101015B
:1019B000D3510B08D8B003D0000113EF0DF0000194
:1019C000D2C1D4F1D1C1D2F1D4C1D1F1036A0101A4
:1019D000D351CC25E96ECD510320EA6EEF50D21BD6
:1019E000D239006E0F0E00160050D21BD239006E95
:1019F000F00E00160050D11BD231006E00320032C2
:101A00001F0E00160050D11BD239006EF00E0016CA
:101A10000050D89000360050D21B00010101D32B9A
:101A20000001D7EF0CF00101D36B00010101D0518F
:101A3000D35DD8A003D0000152EF0DF00001D2C158
:101A4000D4F1D1C1D2F1D4C1D1F1036A0101D35192
:101A5000CE25E96ECF510320EA6EEF50D21BD2396A
:101A6000006E0F0E00160050D21BD239006EF00E21
:101A700000160050D11BD231006E003200321F0E12
:101A800000160050D11BD239006EF00E0016005027
:101A9000D89000360050D21B00010101D32B000169
:101AA00016EF0DF00101D66BD1C1D5F1010ED86F43
:101AB000D76B000196EC07F002C0D6F101C0D5F15A
:101AC0000101D251D525016E000ED621036E0350BF
:101AD000026E0001000C240E016E010E026EBDEFBD
:101AE0000DF0080E0101CD6F00010101CD53D8A406
:101AF00003D0000197EF0DF00001010E0101CD5D53
:101B0000036ACB25E96ECC510320EA6EEF3C02D08C
:101B100004D00001000190EF0DF0000192EF0DF0F4
:101B200097EF0DF00101CD07000175EF0DF00101F8
:101B3000CD53D8B403D00001A3EF0DF00001010E86
:101B4000016EEBEF0DF0080E0101CD6F00010101F8
:101B5000CD53D8A403D00001D9EF0DF00001010E40
:101B60000101CD5D036ACB25E96ECC510320EA6EFD
:101B7000EFCFCFF100016BEF0DF002C0D1F101C04A
:101B8000D0F1010E0101CD5D036AD025E96ED1517E
:101B90000320EA6EEF50CF5DD8A403D00001D4EF4C
:101BA0000DF00001D9EF0DF00101CD070001A7EF05
:101BB0000DF00101CD53D8B403D00001E7EF0DF0D3
:101BC0000001010E016EEBEF0DF0EBEF0DF0000EDA
:101BD000016EEBEF0DF0000C9D90379E37A0F4EFF7
:101BE0000DF037903792379C979A8E9A98988F98E5
:101BF000000CECEC0DF0000CF9EC0DF0000C010108
:101C0000CB6BD1B0CB2BCB51016E00015DEF13F04C
:101C1000030EF66EF76A300EF86E0800F5CFCBF1C2
:101C2000F86AD8900101CB33CB51016E000161EF0E
:101C300013F00101CB510708D8A003D0000125EF14
:101C40000EF000010101CB6B0001D8900101CB35F2
:101C5000FE0BCC6F000102EC00F00101CD6BF2BE77
:101C6000CD2BCD53D8A403D000013DEF0EF00001E1
:101C7000F29CF29EF2BE39EF0EF0030EF66EF76A9A
:101C8000300EF86ECCC1F5FF0C00A68EA68CA68493
:101C9000550EA76EAA0EA76EA682000000000000D7
:101CA000F86AA6940101CD53D8A403D000015CEFDB
:101CB0000EF00001C00EF212000CD180000CCDC15C
:101CC00042F08D80200E286E2852D8B46FEF0EF0AF
:101CD00098908F8098908F90280664EF0EF08D90EA
:101CE0000101CD53D8A403D0000181EF0EF0000113
:101CF00098908F8098908F900101CD07000170EF30
:101D00000EF0000CCCC1CDF15FEC0EF08CEF0EF0BC
:101D1000CBC1CCF182EF0EF0C5EF13F0CBC13AF09E
:101D2000000CCBC143F0E1EF13F08B94000C979CB7
:101D30008E9C000C979C8E8C000C8B84000C37A81A
:101D4000A6EF0EF0010E016EA8EF0EF0000E016E70
:101D5000000C37AAB0EF0EF0010E016EB2EF0EF0DC
:101D6000000E016E000CA9EC0EF00150000C445264
:101D7000D8A4BFEF0EF024EF0FF0C3EF0EF097ECF6
:101D80000EF095EC0EF044500608D8A4EDEF0EF0DE
:101D900001013F51020A0001D8B4D9EF0EF0030A45
:101DA000D8B4D9EF0EF0010AD8B4DFEF0EF0E5EFAA
:101DB0000EF09AEC0EF095EC0EF0EBEF0EF09AECC4
:101DC0000EF09DEC0EF0EBEF0EF097EC0EF095ECB4
:101DD0000EF0EBEF0EF0F6EF0EF03CA2F4EF0EF08B
:101DE0009DEC0EF0F6EF0EF095EC0EF0442C02EFA9
:101DF0000FF0382C00EF0FF09AEC0EF002EF0FF01E
:101E000097EC0EF044500308D8A413EF0FF09FECAA
:101E10000EF00152D8B411EF0FF09AEC0EF013EF60
:101E20000FF097EC0EF044500208D8A424EF0FF006
:101E3000B3EC0EF00152D8B422EF0FF09AEC0EF092
:101E400024EF0FF097EC0EF0000C95EC0EF097ECF1
:101E50000EF0CBC144F0B7EC0EF0000C969E8D9EB8
:101E6000FA0E0101E26F0001E2C134F0020E345EAD
:101E7000000000000000000000000000342E3CEFD5
:101E80000FF0FA0E0101E26F0001E2C134F0020E20
:101E9000345E000000000000000000000000342E4E
:101EA0004DEF0FF0968E460E0101E26F0001E2C188
:101EB00034F0020E345E000000000000000000005C
:101EC0000000342E5FEF0FF084AE6DEF0FF0010EC7
:101ED000016E71EF0FF071EF0FF0000E016E71EFF8
:101EE0000FF001C0DFF1FA0E0101E26F0001E2C163
:101EF00034F0020E345E000000000000000000001C
:101F00000000342E7FEF0FF0FA0E0101E26F0001A6
:101F1000E2C134F0020E345E000000000000000058
:101F200000000000342E90EF0FF00101DF2D02D0F1
:101F300004D000010001A4EF0FF00001000E016EBB
:101F4000A8EF0FF0A8EF0FF0010E016EA8EF0FF051
:101F5000000C0101E16B00010101E1510708D8B05B
:101F600003D0000117EF10F00001969E8D9EE0C196
:101F700000F00101E151016ED8A403D00001C7EFC8
:101F80000FF00001D8900032012EC2EF0FF000A038
:101F9000EFEF0FF00A0E0101E26F0001E2C134F031
:101FA000020E345E0000000000000000000000008F
:101FB000342ED6EF0FF0968E4B0E0101E26F00012A
:101FC000E2C134F0020E345E0000000000000000A8
:101FD00000000000342EE8EF0FF012EF10F0500E6A
:101FE0000101E26F0001E2C134F0020E345E000034
:101FF00000000000000000000000342EFBEF0FF096
:10200000968E050E0101E26F0001E2C134F0020E6E
:10201000345E000000000000000000000000342ECC
:102020000DEF10F00101E12B0001ACEF0FF0000CFF
:102030000101E06BDF6B00010101DF510708D8B03F
:1020400003D0000177EF10F00001969E8D9E080EE0
:102050000101E26F0001E2C134F0020E345E0000C3
:1020600000000000000000000000342E33EF10F0EC
:10207000968E040E0101E26F0001E2C134F0020EFF
:10208000345E000000000000000000000000342E5C
:1020900045EF10F084AE61EF10F0010E006E01010B
:1020A000DF51016ED8A403D000015DEF10F00001F4
:1020B000D8900036012E58EF10F000500101E013C7
:1020C0000001410E0101E26F0001E2C134F0020E95
:1020D000345E000000000000000000000000342E0C
:1020E0006DEF10F00101DF2B00011CEF10F001017A
:1020F000E051016E0001000C0101D8518F08D8A0F9
:1021000003D0000189EF10F00001020E016EE5EF2F
:1021100011F0070E0101D8258F08D8A003D00001C7
:1021200097EF10F00001030E016EE5EF11F02EECB9
:102130000FF001C0DBF1CC0E0101E06F0001A9EC52
:102140000FF00F0E0101E06F0001A9EC0FF0D8C1F4
:10215000E0F1A9EC0FF00101E06B0001A9EC0FF038
:10216000DAC103F00101D951E96E03C0EAFFEFCFF4
:10217000DFF1DFC1E0F10001A9EC0FF00101D92B83
:10218000D8B4DA2BDAC103F0D951E96E03C0EAFF03
:10219000EFCFDFF1DFC1E0F10001A9EC0FF00101A9
:1021A000D92BD8B4DA2BDAC103F0D951E96E03C0C8
:1021B000EAFFEFCFDFF1DFC1E0F10001A9EC0FF0A2
:1021C0000101D92BD8B4DA2BDAC103F0D951E96E69
:1021D00003C0EAFFEFCFDFF1DFC1E0F10001A9ECBE
:1021E0000FF00101D92BD8B4DA2BDAC103F0D951A1
:1021F000E96E03C0EAFFEFCFDFF1DFC1E0F10001DC
:10220000A9EC0FF00101D92BD8B4DA2BDAC103F015
:10221000D951E96E03C0EAFFEFCFDFF1DFC1E0F192
:102220000001A9EC0FF00101D92BD8B4DA2BDAC1E7
:1022300003F0D951E96E03C0EAFFEFCFDFF1DFC150
:10224000E0F10001A9EC0FF00101D92BD8B4DA2B91
:10225000DAC103F0D951E96E03C0EAFFEFCFDFF135
:10226000DFC1E0F10001A9EC0FF00101D92BD8B4D6
:10227000DA2B000118EC10F001C0DCF118EC10F0C2
:1022800001C0DDF12EEC0FF0080E0101D95F000E48
:10229000DA5B00012EEC0FF001C0DBF1CC0E010186
:1022A000E06F0001A9EC0FF0550E0101E06F000195
:1022B000A9EC0FF0D8C1E0F1A9EC0FF00101E06B3F
:1022C0000001A9EC0FF0070E0101E06F0001A9EC7D
:1022D0000FF00101E06B0D0EDF6F00010101DF5116
:1022E000E011D8A403D00001C3EF11F00001FA0EF1
:1022F0000101E26F0001E2C134F0020E345E000021
:1023000000000000000000000000342E83EF11F0F8
:10231000FA0E0101E26F0001E2C134F0020E345EF8
:10232000000000000000000000000000342E94EFC8
:1023300011F0FA0E0101E26F0001E2C134F0020E69
:10234000345E000000000000000000000000342E99
:10235000A5EF11F0FA0E0101E26F0001E2C134F0C5
:10236000020E345E000000000000000000000000CB
:10237000342EB6EF11F00101DF51D8B4E007DF07CA
:1023800000016EEF11F018EC10F001C0DEF1010158
:10239000DE51AA08D8A403D00001D9EF11F0000142
:1023A0000101DE515508D8B403D00001DFEF11F070
:1023B0000001010E0101DB6F0001E2EF11F00101EC
:1023C000DB6B00010101DB51016E000115EF12F022
:1023D000CBC1CDF1CCC1CEF1020E0101D76F00010E
:1023E0000101D7510708D8B003D0000108EF12F05F
:1023F0000001036A0101D751CD0FE96E010E0320E0
:10240000EA6EEF6A00010101D72B0001F0EF11F035
:10241000010E0101D66FCD0ED56FD86BD6C1DAF1A2
:10242000D5C1D9F100017CEF10F001508BEF14F011
:10243000020E386E979A8E9A98988F988C949896E8
:102440008F860101E06B5A0EDF6F00010101DF5141
:10245000E011D8A403D000017BEF12F00001FA0EC6
:102460000101E26F0001E2C134F0020E345E0000AF
:1024700000000000000000000000342E3BEF12F0CE
:10248000FA0E0101E26F0001E2C134F0020E345E87
:10249000000000000000000000000000342E4CEF9F
:1024A00012F0FA0E0101E26F0001E2C134F0020EF7
:1024B000345E000000000000000000000000342E28
:1024C0005DEF12F0FA0E0101E26F0001E2C134F09B
:1024D000020E345E0000000000000000000000005A
:1024E000342E6EEF12F00101DF51D8B4E007DF07A0
:1024F000000126EF12F042C0CDF15FEC0EF0378EF6
:102500009E90FD0ECF6EE80ECE6ECC6A9D80000CC4
:1025100018EC12F0000C24EC06F00152D8B49BEF3A
:1025200012F037AC98EF12F0379C37909AEF12F018
:1025300037923790516A000C01019391946B926B22
:1025400000018BEC12F00FEF15F00101CB53D8B462
:1025500003D00001B1EF12F00001010E0101CB6FB9
:10256000000137BEB8EF12F0000E016EE0EF12F07E
:1025700037A0BFEF12F0000E016EE0EF12F051C075
:1025800022F142C023F152C02CF1010E0101CD6FA6
:10259000210ECC6FCF6B950ECE6F51C0D0F10001E4
:1025A000D2EC0CF002C054F001C053F054C03BF127
:1025B00053C03CF1CBC150F0522A3780010E016E5E
:1025C00032EF15F0D551A508D8A43BEF15F0D65140
:1025D0000E08D8A43BEF15F0D851C608D8A4AAEF2E
:1025E00013F0D951A808D8A4AAEF13F00101C06BC9
:1025F000C16BC26BC36BC46BC56BC66BC76BC86B5F
:10260000C96B00010101CC6BDB0ECB6F000171ECDB
:102610000DF00152D8B4AAEF13F0E3C0C2F1E4C048
:10262000C3F10101C253D8B403D0000122EF13F06B
:1026300000010101C353D8B403D0000122EF13F00D
:102640000001FF000101C23D02D004D000010001E1
:1026500037EF13F000010101C33D02D004D00001A7
:10266000000137EF13F00001FCEC0DF00300010155
:10267000C253D8B403D0000147EF13F000010101A9
:10268000C353D8A403D00001AAEF13F00001010145
:10269000C23D02D004D0000100015BEF13F0000145
:1026A0000101C33D02D004D0000100015BEF13F033
:1026B0000001AAEF13F0FFEF0DF001C0C1F108EF28
:1026C0000EF001C0C0F10101C2513C0DF350C32511
:1026D000C46FC56BD890C531C96FC431C86F070EC0
:1026E000CB6F000119EC0EF05DEC0EF00101C76B31
:1026F000C66B00010101C751C95DD8B003D000010C
:102700009AEF13F00001D8A48FEF13F00101C85124
:10271000C65DD8A003D000019AEF13F000010300BA
:102720000000000000000101C62BD8B4C72B000137
:102730007AEF13F002EC00F0C0C1CBF119EC0EF00F
:102740000101C153D8A403D00001AAEF13F0000186
:102750005DEC0EF0D851CB08D8A4C5EF13F0D951D9
:102760000808D8A4C5EF13F00101CC6BDB0ECB6FCA
:10277000000171EC0DF00152D8B4C5EF13F0E3C0C5
:10278000CAF1CAC1CBF188EF0EF0D851C608D8A45F
:10279000D3EF13F0D951D008D8A4D3EF13F0DBC096
:1027A000CBF18EEC0EF0D8519F08D8A4E1EF13F0D6
:1027B000D951C008D8A4E1EF13F0DBC0CBF191EF01
:1027C0000EF0D82DE7EF13F0D92DE7EF13F0D85125
:1027D0007408D8A414EF14F0D9517808D8A414EFD1
:1027E00014F00101CC6BE10ECB6F000171EC0DF028
:1027F0000152D8B414EF14F0DBC0CBF125EC0FF08C
:10280000DC53D8B408EF14F09DEC0EF00AEF14F08E
:1028100095EC0EF0DD53D8B412EF14F09AEC0EF0F4
:1028200014EF14F097EC0EF0D8518E08D8A4E7EF0F
:1028300014F0D9511808D8A4E7EF14F00101CC6BBB
:10284000E00ECB6F000171EC0DF00152D8B4E7EF50
:1028500014F0FCEC0DF00101E06B140EDF6F0001D1
:102860000101DF51E011D8A403D0000185EF14F07D
:102870000001FA0E0101E26F0001E2C134F0020E24
:10288000345E000000000000000000000000342E54
:1028900045EF14F0FA0E0101E26F0001E2C134F0DD
:1028A000020E345E00000000000000000000000086
:1028B000342E56EF14F0FA0E0101E26F0001E2C16E
:1028C00034F0020E345E0000000000000000000042
:1028D0000000342E67EF14F0FA0E0101E26F0001E0
:1028E000E2C134F0020E345E00000000000000007F
:1028F00000000000342E78EF14F00101DF51D8B44D
:10290000E007DF07000130EF14F0DBC0CBF1DCC0E3
:10291000CCF1E8EF11F088EC12F00101E06B140E3D
:10292000DF6F00010101DF51E011D8A403D00001E5
:10293000E7EF14F00001FA0E0101E26F0001E2C1BD
:1029400034F0020E345E00000000000000000000C1
:102950000000342EA7EF14F0FA0E0101E26F00011F
:10296000E2C134F0020E345E0000000000000000FE
:1029700000000000342EB8EF14F0FA0E0101E26FEF
:102980000001E2C134F0020E345E000000000000DD
:10299000000000000000342EC9EF14F0FA0E01010F
:1029A000E26F0001E2C134F0020E345E000000006C
:1029B0000000000000000000342EDAEF14F00101E6
:1029C000DF51D8B4E007DF07000192EF14F00101F6
:1029D00093A303D00001F2EF14F00001000E016E8A
:1029E0003DEF15F0D8517308D8A437EF15F0D95141
:1029F000D808D8A437EF15F00101CC6BDB0ECB6FF4
:102A0000000171EC0DF00152D8B437EF15F024EC51
:102A100006F00152D8B40FEF15F09CEF12F0A50E9E
:102A2000956F0E0E966F976B860E986F200E996FAE
:102A3000080E9A6F30C19BF031C19CF032C19DF0FD
:102A400033C19EF034C19FF035C1A0F036C1A1F072
:102A500037C1A2F00E0E516E1E0E0101CB6F0001A8
:102A6000A5EF12F00152D8B437EF15F0378C010EF4
:102A7000016E3DEF15F0000E016ECDEF16F01EA6B3
:102A800046EF15F0010E016E48EF15F0000E016ED5
:102A9000E0EF16F0378852EF17F0C68A979A8E8AC1
:102AA00098988F888C82180E0101C06F0001C0C1F8
:102AB00031F09E903150FD08D8B061EF15F0FD0E59
:102AC000316E3150CF5CD8A061EF15F0CEA666EF25
:102AD00015F0CECF22F022A070EF15F072EF15F0B6
:102AE0000000000022A277EF15F07AEF15F0000049
:102AF0000000000022A47FEF15F084EF15F0000025
:102B000000000000000000000000CC6A9E929EA21F
:102B100087EF15F0CCCF22F022A091EF15F093EFC4
:102B200015F00000000022A298EF15F09BEF15F0C1
:102B300000000000000022A4A0EF15F0A5EF15F0A2
:102B40000000000000000000000000006B9A6B987D
:102B50006B88A4BA6E50A4BA6E50640E286E988426
:102B600086A4BAEF15F02852D8B4BAEF15F02806AB
:102B7000AFEF15F0988486B4C5EF15F02852D8B49D
:102B8000C5EF15F02806BAEF15F0988486A4D0EFAB
:102B900015F02852D8B4D0EF15F02806C5EF15F07F
:102BA000988486B4DBEF15F02852D8B4DBEF15F02B
:102BB0002806D0EF15F0080E006E002EFED76B9A97
:102BC0006B986B88A4BA6E50A4BA6E50A4AAE6EFB4
:102BD00015F06E50016E01C022F0206A1E0E286EA4
:102BE0002852D8B40FEF16F02050CA08D8B40FEF0F
:102BF00016F0D8902036A4AAFBEF15F06E50016EA7
:102C000001C022F02250E709FF08D8A40BEF16F00C
:102C100020800CEF16F020902806F0EF15F02050E1
:102C2000CA08D8B418EF16F0000E016E55EF17F071
:102C3000BAEC0AF020C029F0BAEC0AF020C0BDF1CD
:102C40005CEC0BF020C02BF05CEC0BF020C02CF007
:102C5000246A56EF0CF01EAA30EF16F0010E246E17
:102C60002452D8A438EF16F0000E016E55EF17F07D
:102C7000286A28500B08D8A04CEF16F05CEC0BF03B
:102C8000036A28502D0FE96E010E0320EA6E20C062
:102C9000EFFF282A39EF16F00C0E0101BD5DFE0F83
:102CA0002D6E2D504008D8A003D000015DEF16F026
:102CB0000001000E016E55EF17F0286A2D50285CB8
:102CC000D8B071EF16F05CEC0BF0036A2850D50F0A
:102CD000E96E000E0320EA6E20C0EFFF282A5EEFA7
:102CE00016F0286A28500108D8A085EF16F05CEC91
:102CF0000BF0036A28503D0FE96E010E0320EA6EC7
:102D000020C0EFFF282A72EF16F001014153D8A42A
:102D100003D000018FEF16F00001BAEC0AF0010EAB
:102D20000101CD6F2D0ECC6FCF6BD50ECE6F2DC0A8
:102D3000D0F10001D2EC0CF002C0BFF101C0BEF135
:102D40000101BF51036A3D19286E3E51BE19006E44
:102D5000BF51036E005028122852D8A403D000019E
:102D6000BAEF16F0000101013F6B000E016E000189
:102D700055EF17F0D551A508D8A4CDEF16F0D651D0
:102D80000E08D8A4CDEF16F01EBCCDEF16F0010E44
:102D900001013F6F0001E2EF12F0D551A508D8A460
:102DA000DAEF16F0D6510E08D8A4DAEF16F01EAE00
:102DB00053EF17F0020E01013F6F00013FEF15F0D6
:102DC0000152D8A453EF17F0286A28500B08D8A056
:102DD00008EF17F0036A2850150F016E010E032249
:102DE00001500101C06F03C0C1F1036A28502D0FCB
:102DF000E96E010E0320EA6EEF50C26FC1C1EAFF17
:102E0000C0C1E9FFC2C1EFFF0001282AE5EF16F0BB
:102E1000286A2D50285CD8B02CEF17F0036A285090
:102E2000550F016E000E032201500101C06F03C057
:102E3000C1F1036A2850D50FE96E000E0320EA6E37
:102E4000EF50C26FC1C1EAFFC0C1E9FFC2C1EFFFCD
:102E50000001282A09EF17F0286A28500108D8A095
:102E600050EF17F0036A2850390F016E010E03224C
:102E700001500101C06F03C0C1F1036A28503D0F2A
:102E8000E96E010E0320EA6EEF50C26FC1C1EAFF86
:102E9000C0C1E9FFC2C1EFFF0001282A2DEF17F0E2
:102EA0004AEF15F01E88010E016ECCEF1BF040BEFC
:102EB0004E2A40BC4D2A40BA4C2A40B84B2A40B654
:102EC0004A2A40B4492A40B2482A40B0472A4F2AE9
:102ED0004F3CC4EF17F0246AFF0E286E296A295070
:102EE0000708D8A095EF17F0036A2950470FE96E3D
:102EF000000E0320EA6EEF50226E22507F08D8B0F9
:102F000086EF17F0800E225E89EF17F0800ED880D2
:102F100022562850225CD8B092EF17F029C024F036
:102F200022C028F0292A6FEF17F0036A2450F2CF4D
:102F3000BDF1F29E08EC02F00101BDBFF28E016E00
:102F400001C046F0036A2450F2CFBDF1F29E0001A9
:102F500016EC02F00101BDBFF28EBE6FBEC1CBF117
:102F600000018EEC0EF0246A24500808D8A0C4EFAB
:102F700017F0036A2450470FE96E000E0320EA6E33
:102F8000EF6A242AB4EF17F0F9EF1BF09FEC0EF074
:102F90000150000C3798CFEF17F0CAEF17F0000C74
:102FA0000101BD6BABB403D00001DDEF17F00001F0
:102FB000AECFBEF10101BD810001ABA2E5EF17F07C
:102FC000AB98AB880101BD8300010101BD51016EC9
:102FD0000001000C9EAAF3EF17F0010E016EF7EF4F
:102FE00017F0F7EF17F0000E016EF7EF17F0000C77
:102FF000EAEC17F00152D8B400EF18F0AECFBDF1F3
:10300000EAEC17F00152D8B408EF18F0AECFBDF1DA
:10301000F1EF19F00101C153D8B403D0000116EF4C
:1030200018F00001010E0101C16F000137BE1DEF54
:1030300018F0000E016E2BEF18F037A024EF18F0F7
:10304000000E016E2BEF18F022C151F0C1C150F0FB
:103050003780010E016ED6EF18F08A9C050E010133
:10306000BE6F140EBD6F00010101BD51D8B4BE0783
:10307000BD07BD51BE11D8A403D00001DAEF18F08E
:1030800000019EAAD8EF18F0AECFC0F10101C053E5
:10309000D8B403D0000152EF18F0000134EF18F05B
:1030A000D8EF18F0C0C121F1010E0101BF6F00017E
:1030B0000101BF510B08D8B003D0000176EF18F022
:1030C00000019EBA66EF18F061EF18F0036A010183
:1030D000BF51210FE96E010E0320EA6EAECFEFFF64
:1030E00000010101BF2B000158EF18F00101BF6B77
:1030F00000010101BF513F08D8B003D0000197EF94
:1031000018F000019EBA87EF18F082EF18F0036AFA
:103110000101BF51950FE96E000E0320EA6EAECF9C
:10312000EFFF00010101BF2B000179EF18F0010151
:10313000BF6B00010101BF510108D8B003D00001ED
:10314000B8EF18F000019EBAA8EF18F0A3EF18F03E
:10315000036A0101BF513B0FE96E010E0320EA6EC5
:10316000AECFEFFF00010101BF2B00019AEF18F075
:10317000C6EC17F00152D8B4D0EF18F001013B5162
:10318000395DD8B403D00001D0EF18F0000101017F
:103190003C513A5DD8A403D00001D6EF18F00001ED
:1031A0000A0E0101C16F00010AEF18F0DAEF18F002
:1031B00034EF18F08A8CFFEF19F09EA8DDEF18F0BD
:1031C000C0C1ADFF000C01011651016E000132EFCC
:1031D00019F00101C06B0001DDEC18F00101BD6BBD
:1031E00000010101BD510B08D8B003D0000130EF40
:1031F00019F00001036A0101BD51150FE96E010EBE
:103200000320EA6EEF50BF6FBF53D8A403D0000174
:103210001DEF19F000010101BF51C008D8A403D06F
:1032200000011DEF19F000010101BF51DB08D8B406
:1032300003D0000127EF19F00001DB0E0101C06F80
:103240000001DDEC18F0010E0101BF270001BFC134
:10325000C0F1DDEC18F00101BD2B0001F1EF18F019
:10326000E3EF18F001C0BEF10101BE514008D8A043
:1032700003D000013FEF19F00001C9EF19F001017F
:10328000BD6B00010101BE51BD5DD8A003D000019E
:1032900081EF19F00001036A0101BD51550FE96E7C
:1032A000000E0320EA6EEF50BF6FBF53D8A403D0C7
:1032B00000016EEF19F000010101BF51C008D8A450
:1032C00003D000016EEF19F000010101BF51DB08CE
:1032D000D8B403D0000178EF19F00001DB0E010132
:1032E000C06F0001DDEC18F0010E0101BF270001E5
:1032F000BFC1C0F1DDEC18F00101BD2B000142EFB0
:1033000019F00101BD6B00010101BD510108D8B0E8
:1033100003D00001C3EF19F00001036A0101BD51A0
:10332000390FE96E010E0320EA6EEF50BF6FBF53F5
:10333000D8A403D00001B0EF19F000010101BF5182
:10334000C008D8A403D00001B0EF19F000010101BA
:10335000BF51DB08D8B403D00001BAEF19F0000167
:10336000DB0E0101C06F0001DDEC18F0010E010160
:10337000BF270001BFC1C0F1DDEC18F00101BD2B7A
:10338000000184EF19F0C00E0101C06F0001DDECF7
:1033900018F009EF1AF024EC06F00152D8B4EDEF62
:1033A00019F0C6EC17F00152D8B4EDEF19F0010195
:1033B0003B51395DD8B403D00001EDEF19F00001A5
:1033C00001013C513A5DD8B403D00001EDEF19F092
:1033D00000018BEC12F0CDEC17F0D0EC17F0F8EF09
:1033E00017F0D0EC17F081BE01EF1AF024EC06F0D4
:1033F00001500152D8A401EF1AF02DEF18F00BEF95
:103400001AF0C6EC17F00152D8B40BEF1AF0E9EF3E
:1034100018F0CDEC17F00FEF1AF0CBEF19F009EF21
:103420001CF013EF1AF0010E366E379A1E98030E39
:1034300001013F6F000124EF02F068EF02F001C0CC
:1034400040F09E900101BD6B0001949A948894967F
:10345000BDC1BEF10101BE53D8B403D0000135EFA8
:103460001AF00001C76A230EC66E0101BE2D02D0FC
:1034700004D00001000142EF1AF00001300EC66EC8
:10348000800EC76EC68A040E6F6E6C946C886C8E4C
:103490006C9C6B8E6B9A6B9C6B986C9A6B8E979AEC
:1034A0008E8A98988F888C8239500A08D8A45BEF4E
:1034B0001AF020EF1BF038506308D8A462EF1AF01E
:1034C00091EF1AF038500208D8A469EF1AF070EFA3
:1034D0001AF0382C6EEF1AF020EF1BF00DEF1CF0F5
:1034E000060E366E9D90979A8E8A98988F888C8259
:1034F000C3EF05F00152D8B48AEF1AF0010E386E0E
:10350000502C85EF1AF02EEC06F03B6A70EF1BF0A2
:103510008FEF1AF0CF6A960ECE6ED2EF1BF0D2EF7D
:103520001BF0630E366E9D90979A8E8A98988F88BE
:103530008C820101BE6B010EBF6F0001A4EC02F092
:1035400001C022F02252D8B41EEF1BF0979A8E9A37
:1035500098988F88CF500E08D8B0B1EF1AF0D2EFFC
:103560001BF00F0E0101C06F0001C0C131F09E9031
:103570003150FD08D8B0BFEF1AF0FD0E316E31505A
:10358000CF5CD8A0BFEF1AF0CEA6C4EF1AF0CECF12
:1035900022F022A0CEEF1AF0D0EF1AF000000000C7
:1035A00022A2D5EF1AF0D8EF1AF0000000000000B8
:1035B00022A4DDEF1AF0E2EF1AF000000000000094
:1035C000000000000000CC6A9E929EA2E5EF1AF077
:1035D000CCCF22F022A0EFEF1AF0F1EF1AF00000AA
:1035E000000022A2F6EF1AF0F9EF1AF00000000036
:1035F000000022A4FEEF1AF003EF1BF00000000011
:103600000000000000000000AA0E326EC950206EBB
:103610003250C96EC7A00AEF1BF026C032F0C95065
:10362000206E3250C96EC7A013EF1BF0326AC9502A
:10363000206E3250C96EC7A01BEF1BF0D2EF1BF0FB
:10364000020E366E3A502E5CD8B034EF1BF03B5071
:103650000408D8A034EF1BF0979A8E9A98988F8818
:1036600025EC05F04BEF1BF0979A8E8A98988F887F
:103670008C820A0E0101BE6F010EBF6F0001A4EC27
:1036800002F001C022F02252D8B44AEF1BF03B6A8C
:103690004BEF1BF03B2A39500A08D8A452EF1BF01D
:1036A000D2EF1BF054EF1BF0030E366E1E942EAAC1
:1036B00069EF1BF0010E0101BD6F000143EC06F044
:1036C00001C040F03B52D8A467EF1BF01E846EEFA0
:1036D0001BF00101BD6B000143EC06F070EF1BF025
:1036E000040E366E0101D66B2FC0D5F1010ED86FD6
:1036F000D76B000196EC07F002C03FF001C03EF02E
:103700002E503E26000E3F22CF500E08D8B08BEF31
:103710001BF0D2EF1BF037A0A4EF1BF03FC0BEF1AF
:103720003EC0BDF1A7EC07F001C020F0202C9BEFBC
:103730001BF0B2EF1BF020500208D8A4A2EF1BF040
:10374000C1EF1BF0B0EF1BF00101BE6BBD6B0001C0
:10375000A7EC07F00152D8B4B0EF1BF0C1EF1BF09B
:10376000D2EF1BF0050E366ECF501708D8B0BBEF66
:103770001BF0D2EF1BF0A7EF08F0ADEF0AF0D2EF8D
:103780001BF0080E366ECF501708D8B0CAEF1BF0EA
:10379000D2EF1BF04DEF15F00152D8A4D0EF1BF083
:1037A000D2EF1BF0140E366E979A8E8A98988F88F7
:1037B0008C82326AC950206E3250C96E6B9E8B9AD1
:1037C000C69A979A8E9A98988F983C2AD8B43D2A90
:1037D000B7EC0EF0382CF4EF1BF03B500708D8B0D4
:1037E000F4EF1BF0020E386E1EA4F9EF1BF057EF3A
:1037F00017F09E9037AE00EF1CF09D8002EF1CF09A
:10380000ECEC0DF02EEC06F01EB209EF1CF00DEF03
:103810001AF0000E016E11EF1CF00A0E366ED2EF98
:103820001BF09E902EEF00F095CFA0F193CFA1F169
:1038300083CFA3F181CFA2F1938E959A0101A48148
:103840008C8A0A0EE26F0001E2C134F0020E345E8F
:10385000000000000000000000000000342E2CEFEB
:103860001CF081BE37EF1CF00101A49100018C9A7D
:103870000A0E0101E26F0001E2C134F0020E345E73
:10388000000000000000000000000000342E44EFA3
:103890001CF081AE4FEF1CF00101A4910001A0C10A
:1038A00095FFA1C193FFA3C183FFA2C181FF0101C5
:1038B000A4B103D0000165EF1CF000011E82010ECF
:1038C000016E6AEF1CF06AEF1CF01E92000E016E92
:1038D0006AEF1CF0BFEF28F00101A4510001D8B439
:1038E0007CEF1CF0010AD8B494EF1CF0030AD8B4A2
:1038F000ACEF1CF0CAEF1CF0EF0E926E806AFF0E68
:10390000936E816AD30E946E826A730E956E0C0E5E
:10391000836ECC0E966E846A0B0E976E856AE40EEB
:10392000986E866ACAEF1CF0D30E926E806AFF0E04
:10393000936E816AC30E946E826A020E956E840E37
:10394000836E0C0E966E846A1A0E976E856AE40E6C
:10395000986E866ACAEF1CF0FF0E926EFF0E806EA4
:10396000FF0E936EFF0E816EFF0E946EFF0E826E41
:10397000FF0E956EFF0E836EFF0E966EFF0E846E29
:10398000FF0E976EFF0E856EFF0E986EFF0E866E11
:10399000CAEF1CF0010E016E000C0101A651F90FD7
:1039A000D8A003D00001F5EF1CF0070F0001F6EFDF
:1039B0001CF00F0EC16EF5EF1CF00E0EC16EF5EF90
:1039C0001CF00D0EC16EF5EF1CF00C0EC16EF5EF84
:1039D0001CF00B0EC16EF5EF1CF00A0EC16EF5EF78
:1039E0001CF0090EC16EF5EF1CF0000CF2CF0EF0CA
:1039F000F29EE824170FF66E3A0EF76ED8B0F72A4B
:103A0000000EF86EFB6E0A00F550FA6E0800F550D5
:103A10000EBEF28EF96EB239BA39C239CA39D2390C
:103A2000DA39E239C150F00B0101A56FA451FB0F47
:103A3000D8A003D0000149EF1DF0050F00014AEFA7
:103A40001DF0020E0101A66F0001CDEC1CF049EF44
:103A50001DF0030E0101A66F0001CDEC1CF049EF33
:103A60001DF0040E0101A66F0001CDEC1CF049EF22
:103A70001DF0050E0101A66F0001CDEC1CF049EF11
:103A80001DF0060E0101A66F0001CDEC1CF049EF00
:103A90001DF0000CF2CF0EF0F29EE824BF0FF66E80
:103AA0003A0EF76ED8B0F72A000EF86EFB6E0A00D9
:103AB000F550FA6E0800F5500EBEF28EF96E423ADD
:103AC000523A623A723A823A81B464EF1DF0080EBB
:103AD000006E0101A46B008E000185EF1DF0009EB9
:103AE00085EF1DF0D89081B4D8800101A433000186
:103AF000008C85EF1DF0009C002E72EF1DF001017F
:103B0000A451016E000195EF1DF0500E00BE150E80
:103B1000016E012E89EF1DF0000000BE6FEF1DF059
:103B200000BC7BEF1DF072EF1DF0DAEF20F08A92FF
:103B3000080E016E00D00000018EB1EF1DF0019E55
:103B40000101A4330001D8B08A82D8A08A92018CE6
:103B5000B1EF1DF0019C012EA0EF1DF000D0000080
:103B60008A82500EE96EE92EB3EF1DF000D001BE3F
:103B70009FEF1DF001BCAAEF1DF0F8EF20F08C8E36
:103B8000C9EF1DF08C86C00EF212000C959EBFEF9F
:103B90001DF09596C2EC1DF00101E06B640EDF6F25
:103BA00000010101DF51E011D8A403D0000126EF8C
:103BB0001EF00001FA0E0101E26F0001E2C134F0D3
:103BC000020E345E00000000000000000000000053
:103BD000342EE6EF1DF0FA0E0101E26F0001E2C1A2
:103BE00034F0020E345E000000000000000000000F
:103BF0000000342EF7EF1DF0FA0E0101E26F000114
:103C0000E2C134F0020E345E00000000000000004B
:103C100000000000342E08EF1EF0FA0E0101E26FE2
:103C20000001E2C134F0020E345E0000000000002A
:103C3000000000000000342E19EF1EF00101DF51DA
:103C4000D8B4E007DF070001D1EF1DF0FF0E1D6EB5
:103C5000FF0E1C6EFF0E1B6EFF0E1A6E010E1F6E06
:103C60001E80000CF29CF29EF2BE33EF1EF0010E9D
:103C70000101BD6F0001949A94889496BDC1BEF174
:103C80000101BE53D8B403D000014BEF1EF0000178
:103C9000C76A230EC66E0101BE2D02D004D00001FA
:103CA000000158EF1EF00001300EC66E800EC76E88
:103CB0008C96000CC9CFACF1AAC1C9FFC7A05EEFBA
:103CC0001EF0C9CFABF10101AB51016E0001000C38
:103CD00032EC1EF0840E0101AA6F00015AEC1EF0B6
:103CE0000101AA6B00015AEC1EF0010E036EA50E35
:103CF000E96E03C0EAFFEFCFA8F1A8C1AAF15AEC20
:103D00001EF0010E036EA40EE96E03C0EAFFEFCFB2
:103D1000A8F1A8C1AAF15AEC1EF0A6C1AAF15AEC6A
:103D20001EF001C0A7F1C2EC1DF00101A751016E08
:103D3000000169EF21F032EC1EF0540E0101AA6F70
:103D400000015AEC1EF00101AA6B00015AEC1EF0B2
:103D5000010E036EA70EE96E03C0EAFFEFCFA9F1D3
:103D6000A9C1AAF15AEC1EF0010E036EA60EE96E6F
:103D700003C0EAFFEFCFA9F1A9C1AAF15AEC1EF0E6
:103D80000101AA6B00015AEC1EF00101AA6B0001AF
:103D90005AEC1EF001C0A8F1C2EC1DF00101A851BF
:103DA000016E000181EF21F0010E0101A46F0001FD
:103DB0006CEC1CF00101A46B000112EC1DF095EC01
:103DC0000EF09AEC0EF00101E06B640EDF6F000163
:103DD0000101DF51E011D8A403D000013DEF1FF035
:103DE0000001FA0E0101E26F0001E2C134F0020E9F
:103DF000345E000000000000000000000000342ECF
:103E0000FDEF1EF0FA0E0101E26F0001E2C134F095
:103E1000020E345E00000000000000000000000000
:103E2000342E0EEF1FF0FA0E0101E26F0001E2C125
:103E300034F0020E345E00000000000000000000BC
:103E40000000342E1FEF1FF0FA0E0101E26F000197
:103E5000E2C134F0020E345E0000000000000000F9
:103E600000000000342E30EF1FF00101DF51D8B404
:103E7000E007DF070001E8EF1EF097EC0EF001010C
:103E8000E06B640EDF6F00010101DF51E011D8A487
:103E900003D0000199EF1FF00001FA0E0101E26F5B
:103EA0000001E2C134F0020E345E000000000000A8
:103EB000000000000000342E59EF1FF0FA0E01013F
:103EC000E26F0001E2C134F0020E345E0000000037
:103ED0000000000000000000342E6AEF1FF0FA0E10
:103EE0000101E26F0001E2C134F0020E345E000015
:103EF00000000000000000000000342E7BEF1FF0E7
:103F0000FA0E0101E26F0001E2C134F0020E345EEC
:103F1000000000000000000000000000342E8CEFC4
:103F20001FF00101DF51D8B4E007DF07000144EFC3
:103F30001FF09AEC0EF00101E06B640EDF6F0001E0
:103F40000101DF51E011D8A403D00001F5EF1FF00B
:103F50000001FA0E0101E26F0001E2C134F0020E2D
:103F6000345E000000000000000000000000342E5D
:103F7000B5EF1FF0FA0E0101E26F0001E2C134F06B
:103F8000020E345E0000000000000000000000008F
:103F9000342EC6EF1FF0FA0E0101E26F0001E2C1FC
:103FA00034F0020E345E000000000000000000004B
:103FB0000000342ED7EF1FF0FA0E0101E26F00016E
:103FC000E2C134F0020E345E000000000000000088
:103FD00000000000342EE8EF1FF00101DF51D8B4DB
:103FE000E007DF070001A0EF1FF097EC0EF00101E2
:103FF000E06B640EDF6F00010101DF51E011D8A416
:1040000003D0000151EF20F00001FA0E0101E26F30
:104010000001E2C134F0020E345E00000000000036
:10402000000000000000342E11EF20F0FA0E010114
:10403000E26F0001E2C134F0020E345E00000000C5
:104040000000000000000000342E22EF20F0FA0EE5
:104050000101E26F0001E2C134F0020E345E0000A3
:1040600000000000000000000000342E33EF20F0BC
:10407000FA0E0101E26F0001E2C134F0020E345E7B
:10408000000000000000000000000000342E44EF9B
:1040900020F00101DF51D8B4E007DF070001FCEF99
:1040A0001FF09AEC0EF08C8A8C988D8A8D989790E0
:1040B0008E8089968984899A0101A051E96EA15167
:1040C000EA6E81CFEFFF8C9A8C888D9A8D889790BD
:1040D0008E9089868994898A010EA025E96E000E4A
:1040E000A121EA6E81CFEFFFFF0E926EFD0E936E5F
:1040F0008A82400EAF6EAC9CAC84AC98AC8AAB8E1E
:10410000AB9CAB88949C948EABB403D000018CEF35
:1041100020F00001AECFA2F1ABA290EF20F0AB985F
:10412000AB88FF0EAD6E9EAA98EF20F0AECFA3F144
:104130009EAA9DEF20F0AECFA3F1ACA29DEF20F0A0
:10414000FA0E0101E26F0001E2C134F0020E345EAA
:10415000000000000000000000000000342EACEF62
:1041600020F0FA0E0101E26F0001E2C134F0020E0C
:10417000345E000000000000000000000000342E4B
:10418000BDEF20F0FF0E0101A26F8B0EAD6E00019E
:104190000101A251A207000AD8A403D00001D5EF63
:1041A00020F0000181B4C8EF20F081B4E8EF20F0E6
:1041B00064EF1DF001C0A2F1020E0101A025E96E1D
:1041C000000EA121EA6EA2C1EFFF0001F2EF20F084
:1041D000020E0101A025E96E000EA121EA6EFF0E7C
:1041E000EF6E0001750E0101A46F000197EF1DF045
:1041F000640E0101E26F0001E2C134F0020E345E90
:10420000000000000000000000000000342E04EF59
:1042100021F09EAA18EF21F0030E0101A025E96EFE
:10422000000EA121EA6EAECFEFFF000122EF21F0D8
:10423000030E0101A025E96E000EA121EA6EFF0E1A
:10424000EF6E0001040E0101A025E96E000EA12110
:10425000EA6EEF6A050EA025E96E000EA121EA6E56
:10426000EF6A070E956EFF0E936E00018C94989680
:104270008F86979A8E9A98988F98010E0101BD6F3C
:104280000001949A94889496BDC1BEF10101BE5379
:10429000D8B403D0000151EF21F00001C76A230E0A
:1042A000C66E0101BE2D02D004D0000100015EEFF8
:1042B00021F00001300EC66E800EC76EC6EC1DF0F8
:1042C0000101A56B370EA46F1C0EA66F000168EFED
:1042D0001EF0050E0101A025E96E000EA121EA6E77
:1042E000EF6A050EA025016E000EA121036E01509C
:1042F000A46F03C0A5F1A76B370EA66F00019BEF5B
:104300001EF0A5C1EAFFA4C1E9FF01C0EFFFBF0E87
:10431000936E0101A26BA051E96EA151EA6EEF50BC
:10432000AA08D8B403D000019AEF21F000010101DE
:10433000A22B0001010E0101A025E96E000EA121B2
:10434000EA6EEF505508D8B403D00001ACEF21F06D
:1043500000010101A22B0001020E0101A025E96E5E
:10436000000EA121EA6EEF508B08D8B403D00001F3
:10437000BEEF21F000010101A22B0001030E01019B
:10438000A025E96E000EA121EA6EEF507508D8B4A1
:1043900003D00001D0EF21F000010101A22B0001A8
:1043A000050E0101A025E96E000EA121EA6EEF5075
:1043B0001C08D8B403D00001E2EF21F00001010194
:1043C000A22B00010101A2510508D8B403D00001BD
:1043D000F6EF21F00001090E0101A025E96E000EA3
:1043E000A121EA6EEF6A000100EF22F0090E01013F
:1043F000A025E96E000EA121EA6EFF0EEF6E00010E
:10440000030E0101E06F200EDF6F00010101DF519B
:10441000E011D8A403D000015BEF22F00001FA0EF6
:104420000101E26F0001E2C134F0020E345E0000CF
:1044300000000000000000000000342E1BEF22F0FE
:10444000FA0E0101E26F0001E2C134F0020E345EA7
:10445000000000000000000000000000342E2CEFDF
:1044600022F0FA0E0101E26F0001E2C134F0020E07
:10447000345E000000000000000000000000342E48
:104480003DEF22F0FA0E0101E26F0001E2C134F0CB
:10449000020E345E0000000000000000000000007A
:1044A000342E4EEF22F00101DF51D8B4E007DF07D0
:1044B000000106EF22F097EC0EF0030E0101E06F11
:1044C000200EDF6F00010101DF51E011D8A403D0FD
:1044D0000001B8EF22F00001FA0E0101E26F0001C5
:1044E000E2C134F0020E345E000000000000000063
:1044F00000000000342E78EF22F0FA0E0101E26F86
:104500000001E2C134F0020E345E00000000000041
:10451000000000000000342E89EF22F0FA0E0101A5
:10452000E26F0001E2C134F0020E345E00000000D0
:104530000000000000000000342E9AEF22F0FA0E76
:104540000101E26F0001E2C134F0020E345E0000AE
:1045500000000000000000000000342EABEF22F04D
:104560000101DF51D8B4E007DF07000163EF22F05B
:10457000090E0101A025E96E000EA121EA6EEF529D
:10458000D8B403D00001CAEF22F000019AEC0EF07B
:10459000CCEF22F09DEC0EF0030E0101E06F200E37
:1045A000DF6F00010101DF51E011D8A403D0000149
:1045B00027EF23F00001FA0E0101E26F0001E2C1D2
:1045C00034F0020E345E0000000000000000000025
:1045D0000000342EE7EF22F0FA0E0101E26F000135
:1045E000E2C134F0020E345E000000000000000062
:1045F00000000000342EF8EF22F0FA0E0101E26F05
:104600000001E2C134F0020E345E00000000000040
:10461000000000000000342E09EF23F0FA0E010123
:10462000E26F0001E2C134F0020E345E00000000CF
:104630000000000000000000342E1AEF23F00101FA
:10464000DF51D8B4E007DF070001D2EF22F097EC8A
:104650000EF095EC0EF0010E016ECBEF28F0C26A61
:104660000D0EC16E060EC06E55EF23F08D963CEF19
:1046700023F0969636EF23F0140E356E000E016E81
:1046800063EF23F08D8C000C968E969C42EC23F009
:1046900065EF23F0938095908C8067EF23F09380F3
:1046A000958069EF23F02FEF23F00101A46B000147
:1046B0006CEC1CF00101A46B000112EC1DF0C6ECC7
:1046C0001DF039EF23F044EF23F04AEF23F04FEFD2
:1046D00023F01E9297869692978E8D92CDEF28F0BA
:1046E0000101A46B00010101A4510708D8B003D057
:1046F0000001B1EF23F00001D8900101A435A66BB1
:10470000A56F420EA525E96E010EA621EA6EA25103
:10471000EF5CD8B403D00001ACEF23F00001D890D7
:104720000101A435A96BA86F010EA825016E000E2A
:10473000A921036E0150420FE96E010E0320EA6EBB
:10474000A351EF5CD8B403D00001ACEF23F000011B
:10475000010E016E12EF24F00101A42B000173EF92
:1047600023F00101A46B00010101A4510708D8B096
:1047700003D0000110EF24F00001D8900101A4350E
:10478000A66BA56F420EA525E96E010EA621EA6E65
:10479000EF52D8B403D000010BEF24F00001D89001
:1047A0000101A435A96BA86F010EA825016E000EAA
:1047B000A921036E0150420FE96E010E0320EA6E3B
:1047C000EF52D8B403D000010BEF24F00001D890D1
:1047D0000101A435A66BA56F420EA525E96E010E59
:1047E000A621EA6EA2C1EFFFD890A435A66BA56FF3
:1047F000010EA525016E000EA621036E0150420F89
:10480000E96E010E0320EA6EA3C1EFFF010E016EF7
:10481000000112EF24F00101A42B0001B4EF23F0FA
:10482000000E016E1CEF24F0A50E0101A26F0E0E0A
:10483000A36F000170EF23F001C0A1F10101A151AC
:10484000016E000156EF24F00101A06B000101018F
:10485000A0510708D8B003D0000153EF24F00001A5
:10486000D8900101A035A26BA16F420EA125E96E7F
:10487000010EA221EA6EEF6AD890A035A26BA16F5B
:10488000010EA125016E000EA221036E0150420F00
:10489000E96E010E0320EA6EEF6A00010101A02B10
:1048A000000127EF24F01E9A14EF24F095EF27F073
:1048B000A69CA1C1A9FFA69EA680A850016E72EF7A
:1048C00024F02F6A0101A06B00010101A05107082B
:1048D000D8B003D0000179EF24F00001A0C1A1F10C
:1048E00058EF24F001502F1A0101A02B000165EFB1
:1048F00024F02F52D8A47FEF24F08D0E2F6E2FC0FE
:1049000045F0D7EF24F0979A9898949A98849594C4
:104910009592979A8E9A98988F988C9498968F865D
:10492000850ECD6ECD9E080E016E0409CA6E130E63
:10493000CB6ECD96040E6F6E6C946C886C8E6C9CF6
:104940006B8E6B9A6B9C6B986C9A6B9E0101BD6B26
:104950000001949A94889496BDC1BEF10101BE53A2
:10496000D8B403D00001B9EF24F00001C76A230EC8
:10497000C66E0101BE2D02D004D000010001C6EFB9
:1049800024F00001300EC66E800EC76E326AC95028
:10499000206E3250C96EC7A0CBEF24F0326AC950E6
:1049A000206E3250C96E8B9AC69A61EF24F0800E49
:1049B000376E010E396E500E3A6E020E436E200EA7
:1049C000426E3D6A3C6A416A246A24500808D8A0B5
:1049D000F5EF24F0036A2450470FE96E000E032020
:1049E000EA6EEF6A242AE5EF24F00101406B416B87
:1049F000000187EF27F00101B46BB56B00010101E5
:104A0000B5510608D8B003D0000126EF25F000010B
:104A1000B3C103F00101B251E96E03C0EAFFEF50E8
:104A2000B419F2CFB7F1F29E000153EC00F001018E
:104A3000B7BFF28E016E01C0B4F1B22BD8B4B32B64
:104A400000010101B52B0001FFEF24F0B3C103F019
:104A50000101B251E96E03C0EAFFB451EF5CD8B472
:104A600003D000013BEF25F00001010E016E3FEF86
:104A700025F03FEF25F0000E016E3FEF25F0CDEF62
:104A800026F00101B2518F08D8A003D000014EEFEB
:104A900025F00001000E016ECAEF25F00101B351AF
:104AA000B2258F08D8A003D000015CEF25F00001EB
:104AB000000E016ECAEF25F0196AF2BE198EF29E41
:104AC0002EEC0FF019BEF28E01C0B6F1196AF2BEDB
:104AD000198EF29ECC0E0101E06F0001A9EC0FF0DF
:104AE00019BEF28E196AF2BE198EF29EF00E010105
:104AF000E06F0001A9EC0FF019BEF28E196AF2BE48
:104B0000198EF29EB2C1E0F1A9EC0FF019BEF28E3F
:104B1000196AF2BE198EF29E0101E06B0001A9EC48
:104B20000FF019BEF28E0101B76B00010101B35104
:104B3000B75DD8A003D00001BFEF25F00001B5C1DB
:104B400003F00101B451B86F03C0B9F1196AF2BEA4
:104B5000198EF29E000118EC10F019BEF28EB9C148
:104B6000EAFFB8C1E9FF01C0EFFF0101B42BD8B4DF
:104B7000B52B00010101B72B000196EF25F0196A52
:104B8000F2BE198EF29E2EEC0FF019BEF28E0101CC
:104B9000B651016E0001DAEF26F0010E0101B16F8E
:104BA000A80EB06F196AF2BE198EF29E00012EECAB
:104BB0000FF019BEF28E01C0A6F1196AF2BE198E6D
:104BC000F29E330E0101E06F0001A9EC0FF019BE57
:104BD000F28EB1C103F00101B051B26F03C0B3F165
:104BE000196AF2BE198EF29E000118EC10F019BE7F
:104BF000F28EB3C1EAFFB2C1E9FF01C0EFFF0101CC
:104C0000B02BD8B4B12BB1C103F0B051B26F03C017
:104C1000B3F1196AF2BE198EF29E000118EC10F081
:104C200019BEF28EB3C1EAFFB2C1E9FF01C0EFFFC6
:104C30000101B02BD8B4B12BB1C103F0B051B26FA8
:104C400003C0B3F1196AF2BE198EF29E000118EC8E
:104C500010F019BEF28EB3C1EAFFB2C1E9FF01C084
:104C6000EFFF0101B02BD8B4B12BB1C103F0B051AB
:104C7000B26F03C0B3F1196AF2BE198EF29E000141
:104C800018EC10F019BEF28EB3C1EAFFB2C1E9FF11
:104C900001C0EFFF0101B02BD8B4B12BB1C103F0BB
:104CA000B051B26F03C0B3F1196AF2BE198EF29E11
:104CB000000118EC10F019BEF28EB3C1EAFFB2C1C8
:104CC000E9FF01C0EFFF0101B02BD8B4B12BB1C196
:104CD00003F0B051B26F03C0B3F1196AF2BE198E7E
:104CE000F29E000118EC10F019BEF28EB3C1EAFF7B
:104CF000B2C1E9FF01C0EFFF0101B02BD8B4B12B65
:104D0000B1C103F0B051B26F03C0B3F1196AF2BE82
:104D1000198EF29E000118EC10F019BEF28EB3C18C
:104D2000EAFFB2C1E9FF01C0EFFF0101B02BD8B427
:104D3000B12BB1C103F0B051B26F03C0B3F1196A26
:104D4000F2BE198EF29E000118EC10F019BEF28E20
:104D5000B3C1EAFFB2C1E9FF01C0EFFF0101B02B0F
:104D6000D8B4B12B196AF2BE198EF29E00012EEC56
:104D70000FF019BEF28E080E0101B05F000EB15B9C
:104D8000A653D8A403D00001CFEF26F00001B1C193
:104D9000B3F1B0C1B2F1FBEF24F001C0A6F1010103
:104DA000B26B020EB36FA5C1B5F1A4C1B4F100019D
:104DB00041EF25F0060E0101B027000EB123020ECF
:104DC000A427000EA523A653D8A403D000011AEFF0
:104DD00027F000010101A76B00010101A75105089F
:104DE000D8B003D0000118EF27F00001A5C103F0EF
:104DF0000101A451B26F03C0B3F1B1C103F0B051CE
:104E0000E96E03C0EAFFEF50B46FB3C1EAFFB2C16D
:104E1000E9FFB4C1EFFFA42BD8B4A52BB051D8B48F
:104E2000B107B00700010101A72B0001EDEF26F04B
:104E300038EF27F0020E0101A76F00010101A75111
:104E40000708D8B003D0000138EF27F00001A5C152
:104E500003F00101A451E96E03C0EAFFEF6AA42B3D
:104E6000D8B4A52B00010101A72B00011EEF27F0EC
:104E7000080E0101A45D006E000EA559036E0050DE
:104E8000E96E03C0EAFF020EEF6E070EA45D006E2E
:104E9000000EA559036E0050E96E03C0EAFFE80E4C
:104EA000EF6EA651016E000161EF27F08D9C65EF5A
:104EB00027F042EC23F0A2C1A5F1A1C1A4F1CDEFEE
:104EC00025F001C0A3F156EF27F00101A351016EB7
:104ED000000173EF27F0010E0101A26F240EA16FF4
:104EE000000159EF27F001C0A0F10101A051016EAE
:104EF000000189EF27F0526A050E0101216F516A06
:104F00001E961E98030E3F6F000183EF24F06BEF97
:104F100027F05FEF28F0196AF2BE198EF29EFCECC2
:104F20000DF019BEF28E24EF24F001019391946BE1
:104F30001E9A93831E9C1E9E926B946B4452D8A41F
:104F400003D000015DEF28F000019DEC0EF001019F
:104F5000E06BC80EDF6F00010101DF51E011D8A442
:104F600003D0000101EF28F00001FA0E0101E26F09
:104F70000001E2C134F0020E345E000000000000C7
:104F8000000000000000342EC1EF27F0FA0E0101EE
:104F9000E26F0001E2C134F0020E345E0000000056
:104FA0000000000000000000342ED2EF27F0FA0EBF
:104FB0000101E26F0001E2C134F0020E345E000034
:104FC00000000000000000000000342EE3EF27F096
:104FD000FA0E0101E26F0001E2C134F0020E345E0C
:104FE000000000000000000000000000342EF4EF7C
:104FF00027F00101DF51D8B4E007DF070001ACEF73
:1050000027F095EC0EF00101E06BC80EDF6F000198
:105010000101DF51E011D8A403D000015DEF28F0B9
:105020000001FA0E0101E26F0001E2C134F0020E4C
:10503000345E000000000000000000000000342E7C
:105040001DEF28F0FA0E0101E26F0001E2C134F019
:10505000020E345E000000000000000000000000AE
:10506000342E2EEF28F0FA0E0101E26F0001E2C1AA
:1050700034F0020E345E000000000000000000006A
:105080000000342E3FEF28F0FA0E0101E26F00011C
:10509000E2C134F0020E345E0000000000000000A7
:1050A00000000000342E50EF28F00101DF51D8B489
:1050B000E007DF07000108EF28F07BEF27F0196A0F
:1050C000F2BE198EF29E88EC12F019BEF28ECFEF6E
:1050D00028F0948C948E0101A251090A0001D8B4E1
:1050E00074EF28F078EF28F0AC8CAB8C7AEF28F0D6
:1050F000AC9CAB9CAC84AC8AAB88AB8E0101A15359
:10510000D8B403D0000189EF28F00001AC988AEFF1
:1051100028F0AC880101A0510001D8B496EF28F026
:10512000010AD8B49AEF28F09EEF28F0010EAF6E76
:105130009EEF28F0070EAF6E9EEF28F0D9EF28F013
:105140001E8AE7EF28F01E9C0101A0B11E8C1E9E56
:10515000A1B11E8E0001EEEF28F0F86AD09E0D8EF0
:10516000EA6AE96A8A82C150C00B0F09C16E070E54
:10517000B46E050E0101956F000114EF1CF0015291
:10518000D8B4CBEF28F0010E0101A16F960EA06FED
:105190000001D4EF1EF053EF23F08BEF27F0939C28
:1051A000938E0101A06BA16B080EA26F000169EF45
:1051B00028F0196AF2BE198EF29E010E0101CB6F22
:1051C000000125EC0FF019BEF28EA0EF28F00101CE
:1051D000A06B010EA16F0001A3EF28F0C00EF21228
:1051E000196AF2BE198EF29E88EC12F019BEF28E88
:0651F000F8EF28F00300B7
:020000040030CA
:0E00000000220C0E83018100FFC0FFE0FF40D4
:00000001FF
;PIC18F6720
