:020000040000FA
:1000000070EF4EF0D190000C056ED8CF06F0E0CF27
:1000100007F00001E9CF0DF0EACF08F0E1CF09F0D9
:10002000E2CF0AF0D9CF0BF0DACF0CF0F3CF14F017
:10003000F4CF15F0FACF16F0FBCF17F000C00FF099
:1000400001C010F002C011F003C012F004C013F0A0
:100050009DA02EEF00F09EB0BFEF18F00FC000F093
:1000600010C001F011C002F012C003F013C004F080
:100070000E8E0DC0E9FF08C0EAFF09C0E1FF0AC00B
:10008000E2FF0BC0D9FF0CC0DAFF14C0F3FF15C0AC
:10009000F4FF16C0FAFF17C0FBFF055007C0E0FFD2
:1000A00006C0D8FF1000F2CF0EF0F29EF76AC40F20
:1000B000F66E000EF722000EF86E0900F5500EBE27
:1000C000F28E1200005EBCE2613FDD83C29C7E20A6
:1000D000A3FD1F419DC3217FFCA2401E5F01E3BD24
:1000E0003E6082DC237D9FC1421CFEA0E1BF5D0318
:1000F00080DE3C62BEE0025CDF81633D7C22C09E0C
:100100001D43A1FF4618FAA427799BC584DA3866F7
:10011000E5BB5907DB856739BAE406581947A5FBE3
:100120007826C49A653BD987045AB8E6A7F91B45D7
:10013000C6987A24F8A6441A99C7257B3A6486D8CB
:100140005B05E7B98CD2306EEDB3510F4E10F2ACB7
:100150002F7193CD114FADF3702ECC92D38D6F31A3
:10016000B2EC0E50AFF1134DCE90722C6D33D18F97
:100170000C52B0EE326C8ED0530DEFB1F0AE4C128B
:1001800091CF2D73CA947628ABF517490856B4EA77
:100190006937D58B5709EBB536688AD495CB297763
:1001A000F4AA4816E9B7550B88D6346A2B7597C957
:1001B0004A14F6A8742AC896154BA9F7B6E80A544B
:1001C000D7896B35F76AD80FF66E010EF722000E4D
:1001D000F86E0900F5501200000180028080800353
:1001E000808080808080800480808080808080808B
:1001F000808080808080800580808080808080807A
:1002000080808080808080808080808080808080EE
:100210008080808080808006808080808080808058
:1002200080808080808080808080808080808080CE
:1002300080808080808080808080808080808080BE
:1002400080808080808080808080808080808080AE
:100250008080808080808007808080808080808017
:10026000808080808080808080808080808080808E
:10027000808080808080808080808080808080807E
:10028000808080808080808080808080808080806E
:10029000808080808080808080808080808080805E
:1002A000808080808080808080808080808080804E
:1002B000808080808080808080808080808080803E
:1002C000808080808080808080808080808080802E
:1002D0008080808080808008F76AEC0FF66E020EC6
:1002E000F722000EF86E0900F5501200000101021D
:1002F00001020203010202030203030401020203DA
:1003000002030304020303040304040501020203BD
:1003100002030304020303040304040502030304A9
:100320000304040503040405040505060102020391
:100330000203030402030304030404050203030489
:10034000030404050304040504050506020303046D
:100350000304040503040405040505060304040559
:100360000405050604050506050606070102020345
:100370000203030402030304030404050203030449
:10038000030404050304040504050506020303042D
:100390000304040503040405040505060304040519
:1003A0000405050604050506050606070203030401
:1003B00003040405030404050405050603040405F9
:1003C00004050506040505060506060703040405DD
:1003D00004050506040505060506060704050506C9
:1003E000050606070506060706070708F76A000F51
:1003F000F66E040EF722000EF86E0900F55012009A
:100400000002080A2022282A8082888AA0A2A8AA9C
:10041000F76A240FF66E040EF722000EF86E09003C
:10042000F55012000102050B162C58B1F76A400F67
:10043000F66E040EF722000EF86E0900F550120059
:10044000806440170B060202246A286A2EA62BEF4E
:1004500002F0010E246E2FA830EF02F0010E241AD4
:100460002FAC35EF02F0010E286E2FAE3AEF02F0FE
:10047000010E281A2850241A286A2EAE42EF02F0E4
:10048000010E286ED8902E36D8902F36282C4AEFA1
:1004900002F02F802452D8A42E80246A010135BF97
:1004A00003D0000157EF02F00001010E246E01019C
:1004B00035BB03D0000160EF02F00001010E241AE9
:1004C000010135B903D0000169EF02F00001010E0E
:1004D000241A010135B503D0000172EF02F00001CA
:1004E000010E241AD890010135372450351300012C
:1004F000CBEF18F0010135A103D0000185EF02F028
:100500000001800E016ED4EF02F0010135A303D08B
:10051000000190EF02F00001C00E016ED4EF02F076
:10052000010135A503D000019BEF02F00001E00EB0
:10053000016ED4EF02F0010135A703D00001A6EF50
:1005400002F00001F00E016ED4EF02F0010135A9B6
:1005500003D00001B1EF02F00001F80E016ED4EFFC
:1005600002F0010135AB03D00001BCEF02F0000145
:10057000FC0E016ED4EF02F0010135AD03D0000195
:10058000C7EF02F00001FE0E016ED4EF02F0010190
:1005900035AF03D00001D2EF02F00001FF0E016E73
:1005A000D4EF02F0FF0E016ECDEF18F070C231F003
:1005B000246A71C220F03152D8B404EF03F03150F4
:1005C000CF5CD8A0E8EF02F0000E016E56EF05F008
:1005D0009EA0EFEF02F0000E016E56EF05F0CF5037
:1005E000315C2A08D8B0F9EF02F0FF0E2D6E02EF51
:1005F00003F0CF50315C006ED89000342D6E2D503A
:100600002D242D2611EF03F09EA011EF03F09E90F4
:1006100020062052D8A411EF03F0000E016E56EF11
:1006200005F09E929EA212EF03F0CCCF22F022A002
:100630001CEF03F01EEF03F00000000022A223EFE6
:1006400003F026EF03F000000000000022A42BEFCF
:1006500003F030EF03F00000000000000000000095
:1006600000006B9A6B986B88A4BA6E50A4BA6E5057
:10067000A4AA38EF03F06E50016E01C023F02D2EB6
:1006800044EF03F0DBEF02F0233C49EF03F04BEFC4
:1006900003F038EF03F0A4AA4BEF03F06ECF23F082
:1006A0002D2E55EF03F0DBEF02F02350F2CF72F264
:1006B000F29EE2EC00F0020172BFF28E016E01C008
:1006C00022F022500708D8B003D0000171EF03F0E8
:1006D000000122C029F0080ED8802254246E78EF41
:1006E00003F022AE76EF03F0DBEF02F04BEF03F006
:1006F000A4AA78EF03F06ECF23F02D2E82EF03F043
:10070000DBEF02F02350FF0AF2CF73F2F29EE2EC2D
:1007100000F0020173BFF28E016E01C022F0225080
:100720000708D8B003D00001A6EF03F00001225063
:1007300024242A6E120E2A5C0C08D8B0A2EF03F013
:10074000DBEF02F0080E2426AFEF03F0080E24269C
:1007500022AEADEF03F0DBEF02F078EF03F0A4AAD6
:10076000AFEF03F06ECF23F02D2EB9EF03F0DBEFE8
:1007700002F02350F2CF72F2F29EE2EC00F002019E
:1007800072BFF28E016E01C022F022500708D8B06D
:1007900003D00001DCEF03F00001225024242B6E73
:1007A0002F0E2B5C0208D8B0D8EF03F0DBEF02F07D
:1007B000080E2426E5EF03F0080E242622AEE3EF10
:1007C00003F0DBEF02F0AFEF03F0A4AAE5EF03F0D4
:1007D0006ECF23F02D2EEFEF03F0DBEF02F023506E
:1007E000FF0AF2CF73F2F29EE2EC00F0020173BF57
:1007F000F28E016E01C022F022500708D8B003D05B
:10080000000112EF04F00001225024242C6E2A5023
:100810002C5CD10F0208D8B010EF04F0DBEF02F02F
:100820001BEF04F0080E242622AE19EF04F0DBEFD4
:1008300002F0E5EF03F02A502A242B242B24A00FEA
:10084000286E2C502824D00F286E030E282628301E
:10085000226E22323F0E22162838246E0F0E2416E6
:100860002838206E20322032030E20162D6A28BE32
:100870002D802450222420242D24006ED890003076
:10088000286E0C0E285E29502826070E28162A509E
:100890002B5CD8802A54266E2852D8B47DEF04F001
:1008A0009E929E929EA252EF04F0CCCF22F022A004
:1008B0005CEF04F05EEF04F00000000022A263EFA2
:1008C00004F066EF04F000000000000022A46BEFCB
:1008D00004F070EF04F000000000000000000000D1
:1008E0000000050E006E002EFED700D000000000B4
:1008F000282E76EF04F0CC6A9E929E929EA27EEF06
:1009000004F0CCCF22F022A088EF04F08AEF04F0AC
:100910000000000022A28FEF04F092EF04F000002C
:100920000000000022A497EF04F09CEF04F0000008
:10093000000000000000000000006B9A6B986B88BC
:10094000A4BA6E50A4BA6E50280E2D6E010E226EFF
:100950002252D8B4BAEF04F0A4AAACEF04F06E505F
:10096000016E01C022F02D2EB8EF04F054EF05F017
:10097000A8EF04F02252D8A4CCEF04F0A4AABEEF52
:1009800004F06E50016E01C022F02D2ECAEF04F06B
:1009900054EF05F0BAEF04F02250F008D8A4DFEFCE
:1009A00004F026500408D8B0DDEF04F0A4AAD6EF76
:1009B00004F06E50016E01C022F0E9EF04F022B89D
:1009C000E9EF04F0A4AAE2EF04F06E50016E01C05A
:1009D00022F0286AA4AAEAEF04F06E50016E01C06A
:1009E00022F02D2EF6EF04F054EF05F0223CFEEF3E
:1009F00004F0D8902836288009EF05F02252D8A4B8
:100A000007EF05F0D8902836289009EF05F0DBEFC6
:100A100002F03F0E281628503208D8A412EF05F035
:100A20002CEF05F0A4AA12EF05F06E50016E01C084
:100A300022F02D2E1EEF05F054EF05F0A4AA1EEFB4
:100A400005F06E50016E01C022F02D2E2AEF05F048
:100A500054EF05F0EAEF04F09E929EA22DEF05F010
:100A6000CCCF22F022A037EF05F039EF05F00000DF
:100A7000000022A23EEF05F041EF05F0000000006B
:100A8000000022A446EF05F04BEF05F00000000047
:100A900000000000000000000A0ECF6E220ECE6E95
:100AA000010E016E56EF05F0DBEF02F0000CCF50A7
:100AB0000008D8B060EF05F0000E016EF4EF05F00D
:100AC000010E0201726F000172C231F09E9031502E
:100AD000FD08D8B06EEF05F0FD0E316E3150CF5CE1
:100AE000D8A06EEF05F0CEA673EF05F0CECF22F0C2
:100AF00022A07DEF05F07FEF05F00000000022A2AC
:100B000084EF05F087EF05F000000000000022A44C
:100B10008CEF05F091EF05F00000000000000000F0
:100B200000000000CC6A9E929EA294EF05F0CCCF0C
:100B300022F022A09EEF05F0A0EF05F000000000DB
:100B400022A2A5EF05F0A8EF05F0000000000000CC
:100B500022A4ADEF05F0B2EF05F0000000000000A8
:100B6000000000000000E30E326EC950206E3250CB
:100B7000C96EC7A0B9EF05F08E0E326EC950206E57
:100B80003250C96EC7A0C2EF05F0380E326EC950A0
:100B9000206E3250C96EC7A0CBEF05F0E30E326E67
:100BA000C950206E3250C96EC7A0D4EF05F08F0E29
:100BB000326EC950206E3250C96EC7A0DDEF05F00D
:100BC000C00E326EC950206E3250C96EC7A0E6EF1B
:100BD00005F0E00E326EC950206E3250C96EC7A0CB
:100BE000EFEF05F0010E016E000C0101292D02D07E
:100BF00004D00001000144EF06F00001010133516F
:100C00002E14332502016F6F706B6FC271F20001F9
:100C1000D6EC02F00152D8B412EF06F0010E016ECC
:100C20005CEF06F0CF6ACE6A979A8E9A98988F8872
:100C300057EC05F0979A8E8A98988F888C820201DB
:100C4000706B020E716F0001D6EC02F00152D8B445
:100C50002EEF06F0010E016E5CEF06F02EC070F272
:100C6000010E0201716F0001D6EC02F00152D8B4FE
:100C70003EEF06F0010E016E5CEF06F0000E016E15
:100C80005CEF06F05CEF06F0010133512E143325C2
:100C900002016F6F706B6FC271F20001D6EC02F04F
:100CA0000152D8B458EF06F0010E016E5CEF06F069
:100CB000000E016E5CEF06F03CEF19F0010127B168
:100CC00003D0000169EF06F00001010E016E6BEF29
:100CD00006F0000E016E000C5EEC06F00152D8B476
:100CE00088EF06F036063652D8A488EF06F00101E8
:100CF000279127BD03D0000184EF06F00001010118
:100D0000279D000187EF06F0010127930001376A54
:100D1000000C01013051F00B006E003A0F0E00166E
:100D20000050036AF2CF72F2F29E0001F6EC01F07D
:100D3000020172BFF28E016E01C02AF00101305132
:100D40000F0B036AF2CF71F2F29E0001F6EC01F094
:100D5000020171BFF28E016E01C029F0246A6F5347
:100D6000D8B403D0000133EF07F00001979A8E9AB0
:100D700098988F88CF500A08D8B0C3EF06F0000EBD
:100D8000016EDEEF07F00B0E0201726F000172C2FE
:100D900031F09E903150FD08D8B0D1EF06F0FD0E35
:100DA000316E3150CF5CD8A0D1EF06F0CEA6D6EF91
:100DB00006F0CECF22F022A0E0EF06F0E2EF06F040
:100DC0000000000022A2E7EF06F0EAEF06F00000C4
:100DD0000000000022A4EFEF06F0F4EF06F00000A0
:100DE00000000000000000000000CC6A9E929EA25D
:100DF000F7EF06F0CCCF22F022A001EF07F003EFCF
:100E000007F00000000022A208EF07F00BEF07F048
:100E100000000000000022A410EF07F015EF07F01B
:100E20000000000000000000000000002AC032F0B6
:100E3000C950206E3250C96EC7A01CEF07F029C000
:100E400032F0C950206E3250C96EC7A025EF07F0AE
:100E5000979A8E8A98988F888C82000E016EDEEFAA
:100E600007F0DEEF07F0979A8E8A98988F888C9219
:100E7000CF500A08D8B041EF07F0000E016EDEEF48
:100E800007F00B0E0201726F000172C231F09E90EA
:100E90003150FD08D8B04FEF07F0FD0E316E3150E4
:100EA000CF5CD8A04FEF07F0CEA654EF07F0CECF1F
:100EB00022F022A05EEF07F060EF07F000000000D4
:100EC00022A265EF07F068EF07F0000000000000C5
:100ED00022A46DEF07F072EF07F0000000000000A1
:100EE000000000000000CC6A9E929EA275EF07F001
:100EF000CCCF22F022A07FEF07F081EF07F00000B7
:100F0000000022A286EF07F089EF07F00000000042
:100F1000000022A48EEF07F093EF07F0000000001E
:100F200000000000000000006B9A6B986B88A4BA68
:100F30006E50A4BA6E50286A28500708D8A0D5EF82
:100F400007F0A4AAA1EF07F06E50016E01C022F0D5
:100F50002250F2CF70F2F29E6CEC01F0020170BFF1
:100F6000F28E016E01C02BF00001A4AAB5EF07F0CC
:100F70006E50016E01C022F02250F2CF70F2F29E4C
:100F80006CEC01F0020170BFF28E016E2B26D8903E
:100F900024322B500108D8A003D00001D2EF07F073
:100FA0000001248E282A9CEF07F0979A8E8A989841
:100FB0008F888C822450016EDEEF07F0000C020156
:100FC00087518903F3CF01F0F4CF00F08A03F35087
:100FD000002688518903F3500020026E0001000CA6
:100FE000979A8E8A98988F888C928B9AC69A8B9AA9
:100FF000CF500E08D8B002EF08F0C68A000E016E7E
:10100000EFEF08F00F0E0201726F000172C231F0B3
:101010009E903150FD08D8B010EF08F0FD0E316EF3
:101020003150CF5CD8A010EF08F0CEA615EF08F035
:10103000CECF22F022A01FEF08F021EF08F0000031
:10104000000022A226EF08F029EF08F000000000BF
:10105000000022A42EEF08F033EF08F0000000009B
:101060000000000000000000CC6A9E929EA236EFB5
:1010700008F0CCCF22F022A040EF08F042EF08F0B9
:101080000000000022A247EF08F04AEF08F000003D
:101090000000000022A44FEF08F054EF08F0000019
:1010A000000000000000000000006B9A6B986B8845
:1010B000A4BA6E50A4BA6E50226A246A02016F3735
:1010C00070376F3770376F3770376F3770376F37EC
:1010D00070376F377037C00E6F170001A4AA6EEF1C
:1010E00008F06E50016E286A28500A08D8A0D4EF84
:1010F00008F0020170BF03D0000187EF08F0000183
:10110000979A8E9A98988F888B8A8DEF08F0979A85
:101110008E8A98988F888C928B9A2250F2CF71F297
:10112000F29E6CEC01F0020171BFF28E016E24267A
:1011300024500708D8A003D00001A3EF08F0000155
:101140002806D4EF08F0A4AAA3EF08F06E50016EB1
:1011500001C022F0A4AAAAEF08F06E50016E01C0EF
:1011600022F0A4AAB1EF08F06E50016E01C022F087
:101170002250F2CF71F2F29E6CEC01F0020171BFCD
:10118000F28E016E01C024F00001A4AAC5EF08F0A0
:101190006E50016E01C022F0D89002016F37703797
:1011A0000001282A74EF08F08B9AC68A979A8E8AD3
:1011B00098988F888C8228500B08D8A4E4EF08F008
:1011C000010E016EEFEF08F028500908D8A0EDEFEE
:1011D00008F0020E016EEFEF08F0000E016E000C39
:1011E000C68A979A8E9A98988F88180E0201726F05
:1011F000000172C231F09E903150FD08D8B003EF6B
:1012000009F0FD0E316E3150CF5CD8A003EF09F02C
:10121000CEA608EF09F0CECF22F022A012EF09F0FF
:1012200014EF09F00000000022A219EF09F01CEFF2
:1012300009F000000000000022A421EF09F026EFD1
:1012400009F0000000000000000000000000CC6A6F
:101250009E929EA229EF09F0CCCF22F022A033EF7C
:1012600009F035EF09F00000000022A23AEF09F082
:101270003DEF09F000000000000022A442EF09F059
:1012800047EF09F00000000000000000000000002F
:10129000AA0E326EC950206E3250C96ECA0E326E1E
:1012A000C7A050EF09F0C950206E3250C96E2EA46D
:1012B0005EEF09F0170E326E60EF09F0740E326EB9
:1012C000C7A060EF09F0C950206E3250C96E32C01D
:1012D00029F00C0E3724020F326EC7A06DEF09F013
:1012E000C950206E3250C96E246A24500708D8A015
:1012F00086EF09F02A6A29B62A2A29BC2A2AD89018
:1013000029362AB02980242A75EF09F029507B1943
:10131000326EC7A089EF09F0C950206E3250C96EF5
:10132000246A24500708D8A0A2EF09F02A6A29B637
:101330002A2A29BC2A2AD89029362AB02980242A88
:1013400091EF09F029507C19326EC7A0A5EF09F082
:10135000C950206E3250C96E246A24500708D8A0A4
:10136000BEEF09F02A6A29B62A2A29BC2A2AD8906F
:1013700029362AB02980242AADEF09F02950AA0A7B
:10138000326EC7A0C1EF09F0C950206E3250C96E4D
:10139000246A24500708D8A0DAEF09F02A6A29B68F
:1013A0002A2A29BC2A2AD89029362AB02980242A18
:1013B000C9EF09F02950AA0A326EC7A0DDEF09F083
:1013C000C950206E3250C96E246A24500708D8A034
:1013D000F6EF09F02A6A29B62A2A29BC2A2AD890C7
:1013E00029362AB02980242AE5EF09F02950AA0AD3
:1013F000326EC7A0F9EF09F0C950206E3250C96EA5
:10140000246A24500708D8A012EF0AF02A6A29B6E5
:101410002A2A29BC2A2AD89029362AB02980242AA7
:1014200001EF0AF02950AA0A326EC7A015EF0AF0A0
:10143000C950206E3250C96E286A28500B08D8A0B7
:1014400048EF0AF0246A24500708D8A034EF0AF0C5
:101450002A6A29B62A2A29BC2A2AD89029362AB0EB
:101460002980242A23EF0AF0036A2850070FE96E27
:10147000010E0320EA6EEF502918326EC7A03EEF2E
:101480000AF0C950206E3250C96E282A1DEF0AF0AA
:1014900037C02DF0286A2D50285CD8B076EF0AF0BE
:1014A000246A24500708D8A062EF0AF02A6A29B6F5
:1014B0002A2A29BC2A2AD89029362AB02980242A07
:1014C00051EF0AF0036A28507B0FE96E000E0320EB
:1014D000EA6EEF502918326EC7A06CEF0AF0C950BF
:1014E000206E3250C96E282A4BEF0AF0246A24502D
:1014F0000708D8A088EF0AF02A6A29B62A2A29BC48
:101500002A2AD89029362AB02980242A77EF0AF08F
:10151000295001012119326E0001C7A08DEF0AF098
:10152000C950206E3250C96E246A24500708D8A0D2
:10153000A6EF0AF02A6A29B62A2A29BC2A2AD890B4
:1015400029362AB02980242A95EF0AF02950010172
:101550002219326E0001C7A0ABEF0AF0C950206E0D
:101560003250C96E01014053D8A403D00001E6EF08
:101570000AF00001C70E326EC7A0BCEF0AF0C950D6
:10158000206E3250C96E246A24501F08D8A0D4EFB0
:101590000AF0326AC7A0CAEF0AF0C950206E325072
:1015A000C96E242AC4EF0AF0246A24501F08D8A068
:1015B000E6EF0AF0FF0E326EC7A0DCEF0AF0C9506A
:1015C000206E3250C96E242AD5EF0AF0326AC7A0C5
:1015D000E7EF0AF0C950206E3250C96EC7A0EEEF97
:1015E0000AF00101278B010E016E0001AEEF1AF027
:1015F000010127BD03D0000106EF0BF0000101013E
:10160000279D2791376A00010AEF0BF0010127831C
:101610002791376A0001B0EF1AF0206AA4AA0EEFF2
:101620000BF06E50016E01C022F02250E709FF0856
:10163000D8A41FEF0BF0010E226E20EF0BF0226AF0
:1016400022B0208EA4AA22EF0BF06E50016E01C0D2
:1016500022F02250E709FF08D8A433EF0BF0010E67
:10166000226E34EF0BF0226A22B0208CA4AA36EF4F
:101670000BF06E50016E01C022F02250E709FF0806
:10168000D8A447EF0BF0010E226E48EF0BF0226A50
:1016900022B0208AA4AA4AEF0BF06E50016E01C05E
:1016A00022F02250E709FF08D8A45BEF0BF0010EEF
:1016B000226E5CEF0BF0226A22B02088A4AA5EEFB3
:1016C0000BF06E50016E01C022F02250E709FF08B6
:1016D000D8A46FEF0BF0010E226E70EF0BF0226AB0
:1016E00022B02086A4AA72EF0BF06E50016E01C0EA
:1016F00022F02250E709FF08D8A483EF0BF0010E77
:10170000226E84EF0BF0226A22B02084A4AA86EF16
:101710000BF06E50016E01C022F02250E709FF0865
:10172000D8A497EF0BF0010E226E98EF0BF0226A0F
:1017300022B02082A4AA9AEF0BF06E50016E01C075
:1017400022F02250E709FF08D8A4ABEF0BF0010EFE
:10175000226EACEF0BF0226A22B02080000C206ACF
:10176000A4AAB0EF0BF06E50016E01C022F02A6AFD
:1017700029B62A2A29BC2A2AD89029362AB02980B3
:101780002250E709FF08D8A4CAEF0BF0010E226E21
:10179000CBEF0BF0226A2950221A22B0208EA4AA85
:1017A000CFEF0BF06E50016E01C022F02A6A29B60D
:1017B0002A2A29BC2A2AD89029362AB029802250E0
:1017C000E709FF08D8A4E9EF0BF0010E226EEAEF5B
:1017D0000BF0226A2950221A22B0208CA4AAEEEF24
:1017E0000BF06E50016E01C022F02A6A29B62A2A37
:1017F00029BC2A2AD89029362AB029802250E70904
:10180000FF08D8A408EF0CF0010E226E09EF0CF0CF
:10181000226A2950221A22B0208AA4AA0DEF0CF0C5
:101820006E50016E01C022F02A6A29B62A2A29BC0C
:101830002A2AD89029362AB029802250E709FF08A1
:10184000D8A427EF0CF0010E226E28EF0CF0226ACC
:101850002950221A22B02088A4AA2CEF0CF06E5036
:10186000016E01C022F02A6A29B62A2A29BC2A2A36
:10187000D89029362AB029802250E709FF08D8A439
:1018800046EF0CF0010E226E47EF0CF0226A295051
:10189000221A22B02086A4AA4BEF0CF06E50016EE3
:1018A00001C022F02A6A29B62A2A29BC2A2AD890FD
:1018B00029362AB029802250E709FF08D8A465EF0D
:1018C0000CF0010E226E66EF0CF0226A2950221AEB
:1018D00022B02084A4AA6AEF0CF06E50016E01C001
:1018E00022F02A6A29B62A2A29BC2A2AD89029361F
:1018F0002AB029802250E709FF08D8A484EF0CF011
:10190000010E226E85EF0CF0226A2950221A22B0B5
:101910002082A4AA89EF0CF06E50016E01C022F063
:101920002A6A29B62A2A29BC2A2AD89029362AB016
:1019300029802250E709FF08D8A4A3EF0CF0010E7C
:10194000226EA4EF0CF0226A2950221A22B02080C5
:10195000000C286A28500708D8A00CEF0DF0A4AAA4
:10196000AFEF0CF06E50016E2A6A29B62A2A29BC04
:101970002A2AD89029362AB02980D8902834020102
:10198000736B726F420E7225E96E010E7321EA6E5F
:10199000EF502B5CD8B403D00001FBEF0CF000013A
:1019A000A4AAD0EF0CF06E50016E2A6A29B62A2A3A
:1019B00029BC2A2AD89029362AB02980D8902834E0
:1019C0000201736B726F010E7225016E000E73219E
:1019D000036E0150420FE96E010E0320EA6EEF50D4
:1019E0002C5CD8B403D00001F9EF0CF00001010E1B
:1019F000246E09EF0DF0A4AAFBEF0CF06E50016EFF
:101A00002A6A29B62A2A29BC2A2AD89029362AB035
:101A10002980282AAAEF0CF0286A28500F08D8A09D
:101A200023EF0DF0A4AA12EF0DF06E50016E2A6A9A
:101A300029B62A2A29BC2A2AD89029362AB02980F0
:101A4000282A0DEF0DF0C6EF16F00201846B836BB0
:101A5000856B0001020185510B08D8B003D000014D
:101A600066EF0DF0000184C286F283C284F286C262
:101A700083F2036A020185517E25E96E7F510320BE
:101A8000EA6EEF50841B8439006E0F0E0016005072
:101A9000841B8439006EF00E00160050831B8431C5
:101AA000006E003200321F0E00160050831B843976
:101AB000006EF00E00160050D89000360050841BC7
:101AC00000010201852B00012AEF0DF00201856B58
:101AD000000102018251855DD8A003D00001A5EF6D
:101AE0000DF0000184C286F283C284F286C283F2C2
:101AF000036A020185518025E96E81510320EA6E57
:101B0000EF50841B8439006E0F0E00160050841BAA
:101B10008439006EF00E00160050831B8431006E75
:101B2000003200321F0E00160050831B8439006EF5
:101B3000F00E00160050D89000360050841B0001B3
:101B40000201852B000169EF0DF00201886B83C251
:101B500087F2010E8A6F896B0001DFEC07F002C08B
:101B600088F201C087F2020184518725016E000EC0
:101B70008821036E0350026E0001000C0A0E016EF4
:101B8000010E026E10EF0EF0080E02017F6F0001D1
:101B900002017F53D8A403D00001EAEF0DF0000149
:101BA000010E02017F5D036A7D25E96E7E510320EF
:101BB000EA6EEF3C02D004D000010001E3EF0DF02B
:101BC0000001E5EF0DF0EAEF0DF002017F070001E3
:101BD000C8EF0DF002017F53D8B403D00001F6EF37
:101BE0000DF00001010E016E3EEF0EF0080E020135
:101BF0007F6F000102017F53D8A403D000012CEFB6
:101C00000EF00001010E02017F5D036A7D25E96E81
:101C10007E510320EA6EEFCF81F20001BEEF0DF09E
:101C200002C083F201C082F2010E02017F5D036AED
:101C30008225E96E83510320EA6EEF50815DD8A4BE
:101C400003D0000127EF0EF000012CEF0EF002018F
:101C50007F070001FAEF0DF002017F53D8B403D0E3
:101C600000013AEF0EF00001010E016E3EEF0EF0A2
:101C70003EEF0EF0000E016E3EEF0EF0000C9D9058
:101C80000101279F27B103D000014DEF0EF00001A5
:101C9000010127912793279D0001979A8E9A989882
:101CA0008F98000C3FEC0EF0000C52EC0EF0000C84
:101CB00002017D6BD1B07D2B7D51016E0001F4EFEF
:101CC00013F0030EF66EF76A300EF86E0800F5CFCB
:101CD0007DF2F86AD89002017D337D51016E0001DA
:101CE000F8EF13F002017D510708D8A003D00001DE
:101CF0007EEF0EF0000102017D6B0001D890020121
:101D00007D35FE0B7E6F000102EC00F002017F6B5F
:101D1000F2BE7F2B7F53D8A403D0000196EF0EF0C4
:101D20000001F29CF29EF2BE92EF0EF0030EF66EF0
:101D3000F76A300EF86E7EC2F5FF0C00A68EA68CF8
:101D4000A684550EA76EAA0EA76EA68200000000FC
:101D50000000F86AA69402017F53D8A403D00001C2
:101D6000B5EF0EF00001C00EF212000CD180000C95
:101D70007FC232F18D80200E286E2852D8B4C8EF71
:101D80000EF098908F8098908F902806BDEF0EF0FF
:101D90008D9002017F53D8A403D00001DAEF0EF03A
:101DA000000198908F8098908F9002017F0700012A
:101DB000C9EF0EF0000C7EC27FF2B8EC0EF0E5EF3A
:101DC0000EF07DC27EF2DBEF0EF05CEF14F07DC210
:101DD0002AF1000C7DC233F178EF14F08B94000CE3
:101DE000979C8E9C000C979C8E8C000C8B84000C16
:101DF000010127B903D0000103EF0FF00001010E2C
:101E0000016E05EF0FF0000E016E000C010127BB03
:101E100003D0000111EF0FF00001010E016E13EF6E
:101E20000FF0000E016E000C06EC0FF00150000CDC
:101E300001013453D8B403D0000124EF0FF00001A6
:101E4000A5EF0FF028EF0FF0F0EC0EF0EEEC0EF037
:101E5000010134510608D8B403D0000156EF0FF049
:101E6000000101012551020A0001D8B442EF0FF030
:101E7000030AD8B442EF0FF0010AD8B448EF0FF0CC
:101E80004EEF0FF0F3EC0EF0EEEC0EF054EF0FF01F
:101E9000F3EC0EF0F6EC0EF054EF0FF0F0EC0EF069
:101EA000EEEC0EF054EF0FF063EF0FF001012CB3E6
:101EB00003D0000161EF0FF00001F6EC0EF063EFCC
:101EC0000FF0EEEC0EF00101342D02D004D0000131
:101ED00000017BEF0FF000010101282D02D004D09A
:101EE0000001000179EF0FF00001F3EC0EF07BEF41
:101EF0000FF0F0EC0EF0010134510308D8B403D018
:101F0000000190EF0FF00001F8EC0EF00152D8B490
:101F10008EEF0FF0F3EC0EF090EF0FF0F0EC0EF010
:101F2000010134510208D8B403D00001A5EF0FF02D
:101F3000000114EC0FF00152D8B4A3EF0FF0F3EC52
:101F40000EF0A5EF0FF0F0EC0EF0000CEEEC0EF042
:101F5000F0EC0EF07DC234F118EC0FF0000C969E00
:101F60008D9EFA0E0201946F000194C234F0020EAD
:101F7000345E000000000000000000000000342E6D
:101F8000BDEF0FF0FA0E0201946F000194C234F01D
:101F9000020E345E0000000000000000000000009F
:101FA000342ECEEF0FF0968E460E0201946F000194
:101FB00094C234F0020E345E000000000000000005
:101FC00000000000342EE0EF0FF084AEEEEF0FF0D3
:101FD000010E016EF2EF0FF0F2EF0FF0000E016E46
:101FE000F2EF0FF001C091F2FA0E0201946F0001BE
:101FF00094C234F0020E345E0000000000000000C5
:1020000000000000342E00EF10F0FA0E0201946F71
:10201000000194C234F0020E345E000000000000A3
:10202000000000000000342E11EF10F00201912D8D
:1020300002D004D00001000125EF10F00001000ED5
:10204000016E29EF10F029EF10F0010E016E29EF5B
:1020500010F0000C0201936B00010201935107087C
:10206000D8B003D0000198EF10F00001969E8D9E2D
:1020700092C200F002019351016ED8A403D0000176
:1020800048EF10F00001D8900032012E43EF10F01D
:1020900000A070EF10F00A0E0201946F000194C2CC
:1020A00034F0020E345E000000000000000000006A
:1020B0000000342E57EF10F0968E4B0E0201946FF5
:1020C000000194C234F0020E345E000000000000F3
:1020D000000000000000342E69EF10F093EF10F0C4
:1020E000500E0201946F000194C234F0020E345E6F
:1020F000000000000000000000000000342E7CEF13
:1021000010F0968E050E0201946F000194C234F017
:10211000020E345E0000000000000000000000001D
:10212000342E8EEF10F00201932B00012DEF10F0F2
:10213000000C0201926B916B0001020191510708A2
:10214000D8B003D00001F8EF10F00001969E8D9EEC
:10215000080E0201946F000194C234F0020E345E46
:10216000000000000000000000000000342EB4EF6A
:1021700010F0968E040E0201946F000194C234F0A8
:10218000020E345E000000000000000000000000AD
:10219000342EC6EF10F084AEE2EF10F0010E006EA8
:1021A00002019151016ED8A403D00001DEEF10F0BE
:1021B0000001D8900036012ED9EF10F00050020136
:1021C00092130001410E0201946F000194C234F099
:1021D000020E345E0000000000000000000000005D
:1021E000342EEEEF10F00201912B00019DEF10F064
:1021F00002019251016E0001000C02018A518F0808
:10220000D8A003D000010AEF11F00001020E016E08
:1022100066EF12F0070E02018A258F08D8A003D0BE
:10222000000118EF11F00001030E016E66EF12F0CD
:10223000AFEC0FF001C08DF2CC0E0201926F0001E5
:102240002AEC10F00F0E0201926F00012AEC10F040
:102250008AC292F22AEC10F00201926B00012AEC81
:1022600010F08CC203F002018B51E96E03C0EAFF4B
:10227000EFCF91F291C292F200012AEC10F002012C
:102280008B2BD8B48C2B8CC203F08B51E96E03C01E
:10229000EAFFEFCF91F291C292F200012AEC10F026
:1022A00002018B2BD8B48C2B8CC203F08B51E96EBE
:1022B00003C0EAFFEFCF91F291C292F200012AEC43
:1022C00010F002018B2BD8B48C2B8CC203F08B51F5
:1022D000E96E03C0EAFFEFCF91F291C292F20001E2
:1022E0002AEC10F002018B2BD8B48C2B8CC203F09B
:1022F0008B51E96E03C0EAFFEFCF91F291C292F2E7
:1023000000012AEC10F002018B2BD8B48C2B8CC26C
:1023100003F08B51E96E03C0EAFFEFCF91F291C257
:1023200092F200012AEC10F002018B2BD8B48C2B16
:102330008CC203F08B51E96E03C0EAFFEFCF91F23C
:1023400091C292F200012AEC10F002018B2BD8B45A
:102350008C2B8CC203F08B51E96E03C0EAFFEFCFE8
:1023600091F291C292F200012AEC10F002018B2B43
:10237000D8B48C2B000199EC10F001C08EF299ECCE
:1023800010F001C08FF2AFEC0FF0080E02018B5F6E
:10239000000E8C5B0001AFEC0FF001C08DF2CC0E93
:1023A0000201926F00012AEC10F0550E0201926FAB
:1023B00000012AEC10F08AC292F22AEC10F002011D
:1023C000926B00012AEC10F0070E0201926F0001DF
:1023D0002AEC10F00201926B0D0E916F00010201C8
:1023E00091519211D8A403D0000144EF12F00001E2
:1023F000FA0E0201946F000194C234F0020E345EB2
:10240000000000000000000000000000342E04EF77
:1024100012F0FA0E0201946F000194C234F0020E21
:10242000345E000000000000000000000000342EB8
:1024300015EF12F0FA0E0201946F000194C234F00D
:10244000020E345E000000000000000000000000EA
:10245000342E26EF12F0FA0E0201946F000194C29E
:1024600034F0020E345E00000000000000000000A6
:102470000000342E37EF12F002019151D8B49207C8
:1024800091070001EFEF11F099EC10F001C090F20C
:1024900002019051AA08D8A403D000015AEF12F00B
:1024A0000001020190515508D8B403D0000160EF3B
:1024B00012F00001010E02018D6F000163EF12F0B6
:1024C00002018D6B000102018D51016E000196EF3A
:1024D00012F07DC27FF27EC280F2020E0201896F8D
:1024E0000001020189510708D8B003D0000189EF2B
:1024F00012F00001036A020189517F0FE96E020E9A
:102500000320EA6EEF6A00010201892B000171EFDE
:1025100012F0020E0201886F7F0E876F8A6B88C2ED
:102520008CF287C28BF20001FDEF10F0015022EF18
:1025300015F0020E0101286F0001979A8E9A989863
:102540008F988C9498968F860201926B5A0E916F99
:102550000001020191519211D8A403D00001FEEFB5
:1025600012F00001FA0E0201946F000194C234F0DF
:10257000020E345E000000000000000000000000B9
:10258000342EBEEF12F0FA0E0201946F000194C2D5
:1025900034F0020E345E0000000000000000000075
:1025A0000000342ECFEF12F0FA0E0201946F0001FA
:1025B00094C234F0020E345E0000000000000000FF
:1025C00000000000342EE0EF12F0FA0E0201946FCA
:1025D000000194C234F0020E345E000000000000DE
:1025E000000000000000342EF1EF12F002019151C2
:1025F000D8B4920791070001A9EF12F032C17FF21F
:10260000B8EC0EF00101278F00019E90FD0ECF6EF9
:10261000E80ECE6ECC6A9D80000C99EC12F0000C96
:102620005EEC06F00152D8B428EF13F0010127BD8B
:1026300003D0000123EF13F000010101279D279132
:10264000000127EF13F00101279327910001376A5A
:1026500031EF13F001019391946B926B000110EF35
:1026600013F0A6EF15F002017D53D8B403D000019A
:102670003FEF13F00001010E02017D6F0001010127
:1026800027AF03D000014AEF13F00001000E016EE6
:1026900077EF13F0010127B103D0000155EF13F0DC
:1026A0000001000E016E77EF13F037C008F132C160
:1026B00009F138C012F1010E02017F6F070E7E6F23
:1026C000816B7B0E806F37C082F2000125EC0DF02C
:1026D00002C03AF001C039F03AC021F139C022F10C
:1026E0007DC236F0382A01012781010E016E0001FA
:1026F000000CBB51A508D8A4D4EF15F0BC510E08AE
:10270000D8A4D4EF15F0BE51C608D8A441EF14F0F8
:10271000BF51A808D8A441EF14F00201726B736B8B
:10272000746B756B766B776B786B796B7A6B7B6B95
:10273000000102017E6BC10E7D6F0001C4EC0DF043
:102740000152D8B441EF14F0C9C074F2CAC075F296
:1027500002017453D8B403D00001B9EF13F00001A3
:1027600002017553D8B403D00001B9EF13F0000192
:10277000FF000201743D02D004D000010001CEEF41
:1027800013F000010201753D02D004D000010001E8
:10279000CEEF13F0000155EC0EF00300020174536C
:1027A000D8B403D00001DEEF13F00001020175532D
:1027B000D8A403D0000141EF14F000010201743DE0
:1027C00002D004D000010001F2EF13F00001020179
:1027D000753D02D004D000010001F2EF13F00001BA
:1027E00041EF14F058EF0EF001C073F261EF0EF0FC
:1027F00001C072F2020174513C0DF3507525766FE1
:10280000776BD89077317B6F76317A6F070E7D6F5B
:10281000000172EC0EF0B6EC0EF00201796B786BF1
:102820000001020179517B5DD8B003D0000131EF86
:1028300014F00001D8A426EF14F002017A51785D5B
:10284000D8A003D0000131EF14F000010300000014
:10285000000000000201782BD8B4792B000111EFA1
:1028600014F002EC00F072C27DF272EC0EF0020184
:102870007353D8A403D0000141EF14F00001B6EC6B
:102880000EF0BE51CB08D8A45CEF14F0BF5108087D
:10289000D8A45CEF14F002017E6BC10E7D6F0001C5
:1028A000C4EC0DF00152D8B45CEF14F0C9C07CF256
:1028B0007CC27DF2E1EF0EF0BE51C608D8A46AEFEB
:1028C00014F0BF51D008D8A46AEF14F0C1C07DF253
:1028D000E7EC0EF0BE519F08D8A478EF14F0BF517A
:1028E000C008D8A478EF14F0C1C07DF2EAEF0EF072
:1028F000BE2D7EEF14F0BF2D7EEF14F0BE51740894
:10290000D8A4ABEF14F0BF517808D8A4ABEF14F003
:1029100002017E6BC70E7D6F0001C4EC0DF0015209
:10292000D8B4ABEF14F0C1C07DF2A6EC0FF0C253E7
:10293000D8B49FEF14F0F6EC0EF0A1EF14F0EEEC2B
:102940000EF0C353D8B4A9EF14F0F3EC0EF0ABEFD4
:1029500014F0F0EC0EF0BE518E08D8A47EEF15F006
:10296000BF511808D8A47EEF15F002017E6BC60E89
:102970007D6F0001C4EC0DF00152D8B47EEF15F06C
:1029800055EC0EF00201926B140E916F00010201E2
:1029900091519211D8A403D000011CEF15F0000151
:1029A000FA0E0201946F000194C234F0020E345EFC
:1029B000000000000000000000000000342EDCEFEA
:1029C00014F0FA0E0201946F000194C234F0020E6A
:1029D000345E000000000000000000000000342E03
:1029E000EDEF14F0FA0E0201946F000194C234F07E
:1029F000020E345E00000000000000000000000035
:102A0000342EFEEF14F0FA0E0201946F000194C20E
:102A100034F0020E345E00000000000000000000F0
:102A20000000342E0FEF15F002019151D8B4920737
:102A300091070001C7EF14F0C1C07DF2C2C07EF261
:102A400069EF12F00DEC13F00201926B140E916F0E
:102A50000001020191519211D8A403D000017EEF30
:102A600015F00001FA0E0201946F000194C234F0D7
:102A7000020E345E000000000000000000000000B4
:102A8000342E3EEF15F0FA0E0201946F000194C24D
:102A900034F0020E345E0000000000000000000070
:102AA0000000342E4FEF15F0FA0E0201946F000172
:102AB00094C234F0020E345E0000000000000000FA
:102AC00000000000342E60EF15F0FA0E0201946F42
:102AD000000194C234F0020E345E000000000000D9
:102AE000000000000000342E71EF15F0020191513A
:102AF000D8B492079107000129EF15F0010193A3C3
:102B000003D0000189EF15F00001000E016ED6EF31
:102B100015F0BE517308D8A4D0EF15F0BF51D808F6
:102B2000D8A4D0EF15F002017E6BC10E7D6F0001BD
:102B3000C4EC0DF00152D8B4D0EF15F05EEC06F005
:102B40000152D8B4A6EF15F02AEF13F0A50E7B6F53
:102B50000E0E7C6F7D6B860E7E6F200E7F6F080ED3
:102B6000806F16C181F017C182F018C183F019C1BE
:102B700084F01AC185F01BC186F01CC187F01DC10D
:102B800088F00E0E376E1E0E02017D6F000133ECD1
:102B900013F00152D8B4D0EF15F00101278D0001D8
:102BA000010E016ED6EF15F0000E016E6AEF17F000
:102BB0001EA4DFEF15F0010E016EE1EF15F0000E1F
:102BC000016E7DEF17F0010127890001EFEF17F08B
:102BD000C68A979A8E8A98988F888C82180E0201DE
:102BE000726F000172C231F09E903150FD08D8B072
:102BF000FCEF15F0FD0E316E3150CF5CD8A0FCEF2C
:102C000015F0CEA601EF16F0CECF22F022A00BEFEA
:102C100016F00DEF16F00000000022A212EF16F0E1
:102C200015EF16F000000000000022A41AEF16F0C5
:102C30001FEF16F000000000000000000000000080
:102C4000CC6A9E929EA222EF16F0CCCF22F022A058
:102C50002CEF16F02EEF16F00000000022A233EF4A
:102C600016F036EF16F000000000000022A43BEF43
:102C700016F040EF16F00000000000000000000019
:102C800000006B9A6B986B88A4BA6E50A4BA6E5011
:102C9000640E286E988486A455EF16F02852D8B496
:102CA00055EF16F028064AEF16F0988486B460EFC8
:102CB00016F02852D8B460EF16F0280655EF16F03B
:102CC000988486A46BEF16F02852D8B46BEF16F0F8
:102CD000280660EF16F0988486B476EF16F0285236
:102CE000D8B476EF16F028066BEF16F0080E006EDB
:102CF000002EFED76B9A6B986B88A4BA6E50A4BA5C
:102D00006E50A4AA81EF16F06E50016E01C022F041
:102D1000206A1E0E286E2852D8B4AAEF16F0205052
:102D2000CA08D8B4AAEF16F0D8902036A4AA96EF15
:102D300016F06E50016E01C022F02250E709FF0824
:102D4000D8A4A6EF16F02080A7EF16F02090280652
:102D50008BEF16F02050CA08D8B4B3EF16F0000E6F
:102D6000016EF2EF17F00DEC0BF020C029F00DEC26
:102D70000BF020C06FF2AFEC0BF020C02BF0AFECEB
:102D80000BF020C02CF0246AA9EF0CF01EAACBEFA8
:102D900016F0010E246E2452D8A4D3EF16F0000EC4
:102DA000016EF2EF17F0286A28500B08D8A0E7EF61
:102DB00016F0AFEC0BF0036A2850130FE96E010E0A
:102DC0000320EA6E20C0EFFF282AD4EF16F00C0E85
:102DD00002016F5DFE0F2D6E2D504008D8A003D06C
:102DE0000001F8EF16F00001000E016EF2EF17F08F
:102DF000286A2D50285CD8B00CEF17F0AFEC0BF020
:102E0000036A2850BB0FE96E000E0320EA6E20C053
:102E1000EFFF282AF9EF16F0286A28500108D8A0F9
:102E200020EF17F0AFEC0BF0036A2850230FE96E88
:102E3000010E0320EA6E20C0EFFF282A0DEF17F0E5
:102E400001014153D8A403D000012AEF17F000017B
:102E50000DEC0BF0010E02017F6F130E7E6F816B84
:102E6000BB0E806F2DC082F2000125EC0DF002C078
:102E700071F201C070F202017151036A010123195C
:102E8000286E245102017019006E7151036E0050BA
:102E900028122852D8A403D0000157EF17F00001E0
:102EA0000101256B000E016E0001F2EF17F0BB511E
:102EB000A508D8A46AEF17F0BC510E08D8A46AEF91
:102EC00017F01EBC6AEF17F0010E0101256F00011B
:102ED00079EF13F0BB51A508D8A477EF17F0BC51D8
:102EE0000E08D8A477EF17F01EAEF0EF17F0020E21
:102EF0000101256F0001D8EF15F00152D8A4F0EFC1
:102F000017F0286A28500B08D8A0A5EF17F0036A1D
:102F10002850FB0F016E000E032201500201726F58
:102F200003C073F2036A2850130FE96E010E0320E9
:102F3000EA6EEF50746F73C2EAFF72C2E9FF74C2A7
:102F4000EFFF0001282A82EF17F0286A2D50285C35
:102F5000D8B0C9EF17F0036A28503B0F016E000E7E
:102F6000032201500201726F03C073F2036A2850FA
:102F7000BB0FE96E000E0320EA6EEF50746F73C250
:102F8000EAFF72C2E9FF74C2EFFF0001282AA6EF30
:102F900017F0286A28500108D8A0EDEF17F0036A4F
:102FA00028501F0F016E010E032201500201726FA3
:102FB00003C073F2036A2850230FE96E010E032049
:102FC000EA6EEF50746F73C2EAFF72C2E9FF74C217
:102FD000EFFF0001282ACAEF17F0E3EF15F01E8675
:102FE000010E016EC1EF1AF0010130BF03D00001E4
:102FF000FEEF17F0000101013E2B0001010130BD81
:1030000003D0000108EF18F0000101013D2B000181
:10301000010130BB03D0000112EF18F000010101E3
:103020003C2B0001010130B903D000011CEF18F066
:10303000000101013B2B0001010130B703D0000169
:1030400026EF18F0000101013A2B0001010130B513
:1030500003D0000130EF18F000010101392B00010D
:10306000010130B303D000013AEF18F00001010173
:10307000382B0001010130B103D0000144EF18F0FA
:1030800000010101372B000101013F2B3F3D02D020
:1030900004D000010001A7EF18F00001246AFF0E20
:1030A000286E296A29500708D8A078EF18F0036A1B
:1030B0002950370FE96E010E0320EA6EEF50226EA1
:1030C00022507F08D8B069EF18F0800E225E6CEFB6
:1030D00018F0800ED88022562850225CD8B075EFA8
:1030E00018F029C024F022C028F0292A52EF18F045
:1030F000036A2450F2CF6FF2F29E08EC02F0020154
:103100006FBFF28E016E01C036F1036A2450F2CF18
:103110006FF2F29E000116EC02F002016FBFF28E18
:10312000706F70C27DF20001E7EC0EF0246A24504B
:103130000808D8A0A7EF18F0036A2450370FE96EEB
:10314000010E0320EA6EEF6A242A97EF18F0FEEFD3
:103150001AF0090E016E020E026E000C0201302BF5
:10316000D8B4312B0001A9EC18F002C039F201C02B
:1031700038F2BDEF18F0AEEF18F012EF1BF0C1EF10
:1031800018F0010E0101266F279B1E96030E256F76
:10319000000124EF02F07AEF02F001C030F19E90BE
:1031A00002016F6B0001949A948894966FC270F23A
:1031B00002017053D8B403D00001E3EF18F000010E
:1031C000C76A230EC66E0201702D02D004D0000122
:1031D0000001F0EF18F00001300EC66E800EC76ED1
:1031E000C68A040E6F6E6C946C886C8E6C9C6B8EB1
:1031F0006B9A6B9C6B986C9A6B8E979A8E8A989848
:103200008F888C82010129510A08D8B403D00001AB
:103210000DEF19F00001ECEF19F0010128516308DE
:10322000D8B403D0000118EF19F000015BEF19F0DA
:10323000010128510208D8B403D0000123EF19F08E
:10324000000130EF19F00101282D02D004D0000157
:1032500000012EEF19F00001ECEF19F016EF1BF052
:10326000060E0101266F9D900001979A8E8A98980C
:103270008F888C82F5EF05F00152D8B454EF19F025
:10328000010E0101286F362C02D004D0000100018C
:103290004DEF19F000016CEC06F001012B6B000101
:1032A00054EF1AF059EF19F0CF6A960ECE6EC7EFB1
:1032B0001AF0C7EF1AF0630E0101266F9D9000010E
:1032C000979A8E8A98988F888C820201706B010E73
:1032D000716F0001D6EC02F001C022F02252D8B486
:1032E000EAEF19F0979A8E9A98988F88CF500E0827
:1032F000D8B07DEF19F0C7EF1AF00F0E0201726F10
:10330000000172C231F09E903150FD08D8B08BEFB1
:1033100019F0FD0E316E3150CF5CD8A08BEF19F053
:10332000CEA690EF19F0CECF22F022A09AEF19F09E
:103330009CEF19F00000000022A2A1EF19F0A4EF09
:1033400019F000000000000022A4A9EF19F0AEEF70
:1033500019F0000000000000000000000000CC6A2E
:103360009E929EA2B1EF19F0CCCF22F022A0BBEF2B
:1033700019F0BDEF19F00000000022A2C2EF19F011
:10338000C5EF19F000000000000022A4CAEF19F0F8
:10339000CFEF19F000000000000000000000000066
:1033A000AA0E326EC950206E3250C96EC7A0D6EF39
:1033B00019F026C032F0C950206E3250C96EC7A035
:1033C000DFEF19F0326AC950206E3250C96EC7A0C3
:1033D000E7EF19F0C7EF1AF0020E0101266F2A512C
:1033E0002E5CD8A003D0000108EF1AF00001010103
:1033F0002B510408D8B003D0000108EF1AF00001E7
:10340000979A8E9A98988F8857EC05F023EF1AF0C8
:10341000979A8E8A98988F888C820A0E0201706F14
:10342000010E716F0001D6EC02F001C022F02252B1
:10343000D8B420EF1AF001012B6B000123EF1AF032
:1034400001012B2B0001010129510A08D8B403D036
:1034500000012EEF1AF00001C7EF1AF030EF1AF05A
:10346000030E0101266F1E982EBA03D000014DEF06
:103470001AF00001010E02016F6F000189EC06F0E5
:1034800001C030F101012B53D8B403D000014BEF40
:103490001AF000011E8852EF1AF002016F6B000152
:1034A00089EC06F054EF1AF0040E0101266F0201B8
:1034B000886B2FC087F2010E8A6F896B0001DFECE9
:1034C00007F002C02FF101C02EF12E5001012E276E
:1034D000000E2F23CF500E08D8A003D0000174EFA8
:1034E0001AF00001C7EF1AF0010127B103D0000163
:1034F00091EF1AF000012FC170F22EC16FF2F0ECC3
:1035000007F001C020F0202C88EF1AF09FEF1AF08E
:1035100020500208D8A48FEF1AF0B2EF1AF09DEFF6
:103520001AF00201706B6F6B0001F0EC07F00152B2
:10353000D8B49DEF1AF0B2EF1AF0C7EF1AF0050EEB
:103540000101266FCF501708D8A003D00001ACEFBF
:103550001AF00001C7EF1AF0F0EF08F0F8EF0AF0E8
:10356000C7EF1AF0080E0101266FCF501708D8A038
:1035700003D00001BFEF1AF00001C7EF1AF0E8EF27
:1035800015F00152D8A4C5EF1AF0C7EF1AF0140EC7
:103590000101266F0001979A8E8A98988F888C82F5
:1035A000326AC950206E3250C96E6B9E8B9AC69A91
:1035B000979A8E9A98988F9801012C2BD8B42D2B1E
:1035C000000118EC0FF00101282D02D004D00001F9
:1035D0000001F9EF1AF0000101012B510708D8A0F2
:1035E00003D00001F9EF1AF00001020E0101286F6B
:1035F00000011EA8FEEF1AF0F4EF17F09E900101F3
:1036000027BF03D0000109EF1BF000019D800BEFE5
:103610001BF03FEC0EF06CEC06F01EB212EF1BF04C
:10362000BBEF18F0000E016E1CEF1BF00A0E01013B
:10363000266F0001C7EF1AF09E902EEF00F0C26ACD
:103640000D0EC16E060EC06E6AEF32F002013A51E5
:103650000001D8B436EF1BF0010AD8B44EEF1BF0CE
:10366000030AD8B466EF1BF077EF1BF0EF0E926EF3
:10367000806AFF0E936E816AD30E946E826A730E17
:10368000956E0C0E836ECC0E966E846A0B0E976E42
:10369000856AE40E986E866A77EF1BF0D30E926E01
:1036A000806AFF0E936E816AC30E946E826A020E68
:1036B000956E840E836E0C0E966E846A1A0E976E4B
:1036C000856AE40E986E866A77EF1BF0FF0E926EA5
:1036D000806E936E816E946E826E956E836E966E22
:1036E000846E976E856E986E866E77EF1BF0010E76
:1036F000016E6FEF32F002013C51F90FD8A003D0F8
:103700000001A3EF1BF0070F0001A4EF1BF00F0E49
:10371000C16EA3EF1BF00E0EC16EA3EF1BF00D0EDA
:10372000C16EA3EF1BF00C0EC16EA3EF1BF00B0ECE
:10373000C16EA3EF1BF00A0EC16EA3EF1BF0090EC2
:10374000C16EA3EF1BF0000CF2CF0EF0F29EE82446
:10375000730FF66E370EF76ED8B0F72A000EF86EBC
:10376000FB6E0A00F550FA6E0800F5500EBEF28EA0
:10377000F96E0E3716371E3726372E3736373E3757
:10378000C150F00B02013B6F3A51FB0FD8A003D0A0
:103790000001F7EF1BF0050F0001F8EF1BF0020E20
:1037A00002013C6F00017BEC1BF0F7EF1BF0030EF6
:1037B00002013C6F00017BEC1BF0F7EF1BF0040EE5
:1037C00002013C6F00017BEC1BF0F7EF1BF0050ED4
:1037D00002013C6F00017BEC1BF0F7EF1BF0060EC3
:1037E00002013C6F00017BEC1BF0F7EF1BF0000CBB
:1037F000F2CF0EF0F29EE8241B0FF66E380EF76E35
:10380000D8B0F72A000EF86EFB6E0A00F550FA6E7B
:103810000800F5500EBEF28EF96E9E37AE37BE37F9
:10382000CE37DE378C8E1DEF1CF08C86C00EF21268
:1038300020EF1CF0959E12EF1CF0959615EF1CF0F2
:103840000201926B640E916F00010201915192117D
:10385000D8A403D000017AEF1CF00001FA0E020197
:10386000946F000194C234F0020E345E0000000038
:103870000000000000000000342E3AEF1CF0FA0EA9
:103880000201946F000194C234F0020E345E000015
:1038900000000000000000000000342E4BEF1CF080
:1038A000FA0E0201946F000194C234F0020E345EED
:1038B000000000000000000000000000342E5CEF5B
:1038C0001CF0FA0E0201946F000194C234F0020E53
:1038D000345E000000000000000000000000342EF4
:1038E0006DEF1CF002019151D8B4920791070001CD
:1038F00025EF1CF0FF0E1D6E1C6E1B6E1A6E010E66
:103900001F6E1E8076EF32F08D96000C969684EC3A
:103910001CF0140E356E000E016E78EF32F08E0E34
:10392000006E52C201F051C202F0036A0152D8A4E3
:10393000A6EF1CF002C001F0026A080E005E015200
:10394000D8A4A6EF1CF0006AB0EF1CF0D89001BE1E
:10395000AFEF1CF0023601360006A6EF1CF0019E08
:10396000000C02015951D8A403D000010FEF1EF042
:10397000656F5D51D8A403D000010FEF1EF0655FA5
:10398000D8A003D00001C8EF1CF00001D3EF1CF059
:103990007F0E02016527D8A003D000010FEF1EF0B3
:1039A0000001E1EF1CF0810E0201655FD8B003D089
:1039B00000010FEF1EF0D8A403D000010FEF1EF09E
:1039C000000165C200F0016A026A036A0201646BC9
:1039D0005AC263F2638F5BC262F25CC261F2190E7B
:1039E000656F000102016051615FD8A003D0000142
:1039F00015EF1DF0010E625FD8A003D0000115EF96
:103A00001DF0635FD8A003D0000115EF1DF0645FC7
:103A1000D8A003D0000115EF1DF0642B632B622B9F
:103A20006051612700016FEF1DF002015F51625F7D
:103A3000D8A003D0000149EF1DF0010E635FD8A0AC
:103A400003D0000149EF1DF0645FD8A003D000014E
:103A500049EF1DF000010201642B632B5F516227C7
:103A60000001020160516127D8B003D000016FEF5F
:103A70001DF0622BD8B403D000016FEF1DF0632B53
:103A8000D8B403D000016FEF1DF0642B00016FEF7D
:103A90001DF002015E518009635FD8A003D00001D0
:103AA0006EEF1DF0010E645FD8A003D000016EEF31
:103AB0001DF0642B5E51800963275F516227D8B0E7
:103AC00003D0000131EF1DF0632BD8B403D0000107
:103AD00031EF1DF0642B000131EF1DF00380020176
:103AE000652F02D004D0000100017AEF1DF0000123
:103AF00088EF1DF0D8900201613762376337643771
:103B0000D89003360236013666370001F2EF1CF01A
:103B1000020166B103D0000196EF1DF0D89001328A
:103B200002320332663300019AEF1DF00006D8B46A
:103B30000FEF1EF0020166AF03D00001EBEF1DF0A6
:103B4000D8906137623763376437000102016051F2
:103B5000615FD8A003D00001C2EF1DF0010E625FCB
:103B6000D8A003D00001C2EF1DF0635FD8A003D03E
:103B70000001C2EF1DF0645FD8B003D00001FEEF7A
:103B80001DF0000102015F51625FD8A003D0000167
:103B9000D8EF1DF0010E635FD8A003D00001D8EF6D
:103BA0001DF0645FD8B003D00001FEEF1DF00001EE
:103BB00002015E51800900010201635FD8A003D0B9
:103BC0000001EBEF1DF0010E645FD8B003D00001DF
:103BD000FEEF1DF00001032AD8A4FEEF1DF0022A1B
:103BE000D8A4FEEF1DF0012AD8A4FEEF1DF0002A94
:103BF000D8B40FEF1EF00132023203325AC265F21E
:103C000002015E51651B65BF03D000010CEF1EF081
:103C1000018E000113EF1EF0019E13EF1EF0006AEB
:103C2000016A026A036A000C8E0E006E020159518D
:103C3000005E5AC202F05BC201F0028E0052D8A4AC
:103C400003D0000133EF1EF00001D8900252D8A437
:103C50002EEF1EF00152D8B433EF1EF002320132C3
:103C6000002E25EF1EF002015ABF03D000013FEFE6
:103C70001EF00001011E021E012AD8B4022A000C07
:103C800002015551D8A403D00001E0EF1EF0006EF0
:103C90005951D8A403D00001E0EF1EF00026D8B09F
:103CA00003D000015CEF1EF00001810E0026D8B0A9
:103CB000E0EF1EF064EF1EF07F0E005ED8A0E0EF94
:103CC0001EF0D8B4E0EF1EF056C25DF202015A5168
:103CD0005D1B568F5A8F58515C03F4CF5FF25751DA
:103CE0005B03F4CF03F0F3CF5EF25C03F3505F2786
:103CF000F4505E23000E032258515B03F3505F27FC
:103D0000F4505E23000E026A0322022256515C0325
:103D1000F3505E27F4500322000E022256515B033B
:103D2000F3500326F4500222000E016A012258517A
:103D30005A03F3505E27F4500322000E02220122A0
:103D400057515A03F3500326F4500222000E012269
:103D500056515A03F3500226F4500122002A01AEB4
:103D600003D00001BAEF1EF05E370336023601368B
:103D700000060001000E02015EBF03D00001D8EF73
:103D80001EF0032A022201220150D8B403D0000100
:103D9000D8EF1EF00250D8B403D00001D8EF1EF0C7
:103DA0000350D8B403D00001D8EF1EF0002A000160
:103DB00002015DBF018E5DAF019E0001E4EF1EF0C8
:103DC000006A016A026A036A52EF1FF03CC252F2B3
:103DD0003BC251F28FEC1CF003C048F202C047F224
:103DE00001C046F200C045F23EC252F23DC251F25D
:103DF0008FEC1CF003C04CF202C04BF201C04AF23F
:103E000000C049F202015C6B240E5B6F740E5A6FA6
:103E1000920E596F48C260F247C25FF246C25EF22C
:103E200045C25DF20001B1EC1CF003C050F202C0CB
:103E30004FF201C04EF200C04DF250C25CF24FC2D0
:103E40005BF24EC25AF24DC259F214EC1EF002C09F
:103E500042F201C041F2036A35500201415F035052
:103E6000425B3EC252F23DC251F200018FEC1CF0A7
:103E700000C051F201C052F202C053F203C054F22A
:103E800054C258F253C257F252C256F251C255F2BE
:103E900048C25CF247C25BF246C25AF245C259F2CE
:103EA00040EF1EF000C055F201C056F202C057F2BA
:103EB00003C058F258C25CF257C25BF256C25AF2C3
:103EC00055C259F20201606B5F6B7A0E5E6F880E0D
:103ED0005D6F0001B1EC1CF003C05CF202C05BF24C
:103EE00001C05AF200C059F214EC1EF002C044F2B4
:103EF00001C043F20201406B3F6B000102014051DF
:103F0000445DD8B003D00001C3EF1FF00001D8A476
:103F100093EF1FF0020143513F5DD8A003D0000191
:103F2000C3EF1FF000018D8635C094F294C234F0C7
:103F3000020E345E000000000000000000000000DF
:103F4000342E9EEF1FF08D9642C252F241C251F2C2
:103F5000030E0201515F000E525B51C234F0525108
:103F6000036A336E332A000100000000342EB4EFE0
:103F70001FF0332EB6EF1FF002013F2BD8B4402BB9
:103F800000017EEF1FF084EC1CF0000C010E02011A
:103F90003A5DFB0FD8A003D000013BEF32F0050FD4
:103FA00000013DEF32F00C0E02013C6F3F0E3B6F03
:103FB0003E6B460E3D6F0001E6EC1EF0080E02015E
:103FC0003C6F2D0E3B6F3E6B500E3D6F0001E6ECDB
:103FD0001EF00201926B140E916F000102019151CB
:103FE0009211D8A403D0000143EF20F00001FA0E93
:103FF0000201946F000194C234F0020E345E00009E
:1040000000000000000000000000342E03EF20F04C
:10401000FA0E0201946F000194C234F0020E345E75
:10402000000000000000000000000000342E14EF2B
:1040300020F0FA0E0201946F000194C234F0020ED7
:10404000345E000000000000000000000000342E7C
:1040500025EF20F0FA0E0201946F000194C234F0B3
:10406000020E345E000000000000000000000000AE
:10407000342E36EF20F002019151D8B49207910707
:104080000001EEEF1FF0080E02013C6F2D0E3B6F9A
:104090003E6B640E3D6F0001E6EC1EF0090E02015E
:1040A0003C6F2D0E3B6F3E6BC80E3D6F0001E6EC82
:1040B0001EF00201926B640E916F0001020191519A
:1040C0009211D8A403D00001B3EF20F00001FA0E42
:1040D0000201946F000194C234F0020E345E0000BD
:1040E00000000000000000000000342E73EF20F0FC
:1040F000FA0E0201946F000194C234F0020E345E95
:10410000000000000000000000000000342E84EFDA
:1041100020F0FA0E0201946F000194C234F0020EF6
:10412000345E000000000000000000000000342E9B
:1041300095EF20F0FA0E0201946F000194C234F062
:10414000020E345E000000000000000000000000CD
:10415000342EA6EF20F002019151D8B492079107B6
:1041600000015EEF20F0090E02013C6F2D0E3B6F47
:10417000010E3E6F900E3D6F0001E6EC1EF03BEF2E
:1041800032F0040E02013C6F160E3B6F3E6B640E64
:104190003D6F0001E6EC1EF0040E02013C6F960E2E
:1041A0003B6F3E6B640E3D6F0001E6EC1EF0050EAA
:1041B00002013C6F260E3B6F3E6B640E3D6F0001AB
:1041C000E6EC1EF0050E02013C6F740E3B6F3E6B79
:1041D000640E3D6F0001E6EC1EF0060E02013C6F1E
:1041E0001F0E3B6F3E6B960E3D6F0001E6EC1EF01E
:1041F0000201926B320E916F0001020191519211F6
:10420000D8A403D0000152EF21F00001FA0E020100
:10421000946F000194C234F0020E345E000000007E
:104220000000000000000000342E12EF21F0FA0E12
:104230000201946F000194C234F0020E345E00005B
:1042400000000000000000000000342E23EF21F0E9
:10425000FA0E0201946F000194C234F0020E345E33
:10426000000000000000000000000000342E34EFC9
:1042700021F0FA0E0201946F000194C234F0020E94
:10428000345E000000000000000000000000342E3A
:1042900045EF21F002019151D8B492079107000136
:1042A000FDEF20F0060E02013C6F1F0E3B6F3E6BD0
:1042B000960E3D6F0001E6EC1EF00201926B320E8D
:1042C000916F0001020191519211D8A403D0000115
:1042D000B7EF21F00001FA0E0201946F000194C2C1
:1042E00034F0020E345E0000000000000000000008
:1042F0000000342E77EF21F0FA0E0201946F0001D6
:1043000094C234F0020E345E000000000000000091
:1043100000000000342E88EF21F0FA0E0201946FA5
:10432000000194C234F0020E345E00000000000070
:10433000000000000000342E99EF21F0FA0E020177
:10434000946F000194C234F0020E345E000000004D
:104350000000000000000000342EAAEF21F002014E
:104360009151D8B492079107000162EF21F0060E37
:1043700002013C6FE00E3B6F3E6B320E3D6F000161
:10438000E6EC1EF00201926B320E916F0001020109
:1043900091519211D8A403D000011CEF22F000012A
:1043A000FA0E0201946F000194C234F0020E345EE2
:1043B000000000000000000000000000342EDCEFD0
:1043C00021F0FA0E0201946F000194C234F0020E43
:1043D000345E000000000000000000000000342EE9
:1043E000EDEF21F0FA0E0201946F000194C234F057
:1043F000020E345E0000000000000000000000001B
:10440000342EFEEF21F0FA0E0201946F000194C2E7
:1044100034F0020E345E00000000000000000000D6
:104420000000342E0FEF22F002019151D8B4920710
:1044300091070001C7EF21F0060E02013C6FE00E6C
:104440003B6F3E6B320E3D6F0001E6EC1EF0020149
:10445000926B320E916F0001020191519211D8A41A
:1044600003D0000181EF22F00001FA0E0201946FE7
:10447000000194C234F0020E345E0000000000001F
:10448000000000000000342E41EF22F0FA0E02017D
:10449000946F000194C234F0020E345E00000000FC
:1044A0000000000000000000342E52EF22F0FA0E4F
:1044B0000201946F000194C234F0020E345E0000D9
:1044C00000000000000000000000342E63EF22F026
:1044D000FA0E0201946F000194C234F0020E345EB1
:1044E000000000000000000000000000342E74EF07
:1044F00022F002019151D8B49207910700012CEFEC
:1045000022F0060E02013C6FE00E3B6F3E6B320E56
:104510003D6F0001E6EC1EF00201926B320E916FCE
:104520000001020191519211D8A403D00001E6EFDD
:1045300022F00001FA0E0201946F000194C234F0DF
:10454000020E345E000000000000000000000000C9
:10455000342EA6EF22F0FA0E0201946F000194C2ED
:1045600034F0020E345E0000000000000000000085
:104570000000342EB7EF22F0FA0E0201946F000112
:1045800094C234F0020E345E00000000000000000F
:1045900000000000342EC8EF22F0FA0E0201946FE2
:1045A000000194C234F0020E345E000000000000EE
:1045B000000000000000342ED9EF22F002019151DA
:1045C000D8B492079107000191EF22F0060E020184
:1045D0003C6FE00E3B6F3E6B320E3D6F0001E6EC30
:1045E0001EF00201926B320E916F00010201915197
:1045F0009211D8A403D000014BEF23F00001FA0E72
:104600000201946F000194C234F0020E345E000087
:1046100000000000000000000000342E0BEF23F02B
:10462000FA0E0201946F000194C234F0020E345E5F
:10463000000000000000000000000000342E1CEF0D
:1046400023F0FA0E0201946F000194C234F0020EBE
:10465000345E000000000000000000000000342E66
:104660002DEF23F0FA0E0201946F000194C234F092
:10467000020E345E00000000000000000000000098
:10468000342E3EEF23F002019151D8B492079107E6
:104690000001F6EF22F0060E02013C6F1F0E3B6F89
:1046A000010E3E6F900E3D6F0001E6EC1EF0060E0F
:1046B00002013C6FE00E3B6F3E6B320E3D6F00011E
:1046C000E6EC1EF00201926B320E916F00010201C6
:1046D00091519211D8A403D00001BCEF23F0000146
:1046E000FA0E0201946F000194C234F0020E345E9F
:1046F000000000000000000000000000342E7CEFED
:1047000023F0FA0E0201946F000194C234F0020EFD
:10471000345E000000000000000000000000342EA5
:104720008DEF23F0FA0E0201946F000194C234F071
:10473000020E345E000000000000000000000000D7
:10474000342E9EEF23F0FA0E0201946F000194C202
:1047500034F0020E345E0000000000000000000093
:104760000000342EAFEF23F002019151D8B492072C
:104770009107000167EF23F0060E02013C6FE00E87
:104780003B6F3E6B320E3D6F0001E6EC1EF0020106
:10479000926B320E916F0001020191519211D8A4D7
:1047A00003D0000121EF24F00001FA0E0201946F02
:1047B000000194C234F0020E345E000000000000DC
:1047C000000000000000342EE1EF23F0FA0E020199
:1047D000946F000194C234F0020E345E00000000B9
:1047E0000000000000000000342EF2EF23F0FA0E6B
:1047F0000201946F000194C234F0020E345E000096
:1048000000000000000000000000342E03EF24F040
:10481000FA0E0201946F000194C234F0020E345E6D
:10482000000000000000000000000000342E14EF23
:1048300024F002019151D8B4920791070001CCEF06
:1048400023F0060E02013C6FE00E3B6F3E6B320E12
:104850003D6F0001E6EC1EF00201926B320E916F8B
:104860000001020191519211D8A403D0000186EFFA
:1048700024F00001FA0E0201946F000194C234F09A
:10488000020E345E00000000000000000000000086
:10489000342E46EF24F0FA0E0201946F000194C208
:1048A00034F0020E345E0000000000000000000042
:1048B0000000342E57EF24F0FA0E0201946F00012D
:1048C00094C234F0020E345E0000000000000000CC
:1048D00000000000342E68EF24F0FA0E0201946FFD
:1048E000000194C234F0020E345E000000000000AB
:1048F000000000000000342E79EF24F002019151F5
:10490000D8B492079107000131EF24F0060E02019E
:104910003C6FE00E3B6F3E6B320E3D6F0001E6ECEC
:104920001EF00201926B320E916F00010201915153
:104930009211D8A403D00001EBEF24F00001FA0E8D
:104940000201946F000194C234F0020E345E000044
:1049500000000000000000000000342EABEF24F047
:10496000FA0E0201946F000194C234F0020E345E1C
:10497000000000000000000000000000342EBCEF2A
:1049800024F0FA0E0201946F000194C234F0020E7A
:10499000345E000000000000000000000000342E23
:1049A000CDEF24F0FA0E0201946F000194C234F0AE
:1049B000020E345E00000000000000000000000055
:1049C000342EDEEF24F002019151D8B49207910702
:1049D000000196EF24F0060E02013C6F1F0E3B6FA4
:1049E000010E3E6F900E3D6F0001E6EC1EF0050ECD
:1049F00002013C6F740E3B6F3E6B320E3D6F000147
:104A0000E6EC1EF00201926B320E916F0001020182
:104A100091519211D8A403D000015CEF25F0000160
:104A2000FA0E0201946F000194C234F0020E345E5B
:104A3000000000000000000000000000342E1CEF09
:104A400025F0FA0E0201946F000194C234F0020EB8
:104A5000345E000000000000000000000000342E62
:104A60002DEF25F0FA0E0201946F000194C234F08C
:104A7000020E345E00000000000000000000000094
:104A8000342E3EEF25F0FA0E0201946F000194C21D
:104A900034F0020E345E0000000000000000000050
:104AA0000000342E4FEF25F002019151D8B4920747
:104AB0009107000107EF25F0050E02013C6F740E0F
:104AC0003B6F3E6B320E3D6F0001E6EC1EF00201C3
:104AD000926B320E916F0001020191519211D8A494
:104AE00003D00001C1EF25F00001FA0E0201946F1E
:104AF000000194C234F0020E345E00000000000099
:104B0000000000000000342E81EF25F0FA0E0201B3
:104B1000946F000194C234F0020E345E0000000075
:104B20000000000000000000342E92EF25F0FA0E85
:104B30000201946F000194C234F0020E345E000052
:104B400000000000000000000000342EA3EF25F05C
:104B5000FA0E0201946F000194C234F0020E345E2A
:104B6000000000000000000000000000342EB4EF40
:104B700025F002019151D8B49207910700016CEF22
:104B800025F0050E02013C6F740E3B6F3E6B320E3A
:104B90003D6F0001E6EC1EF00201926B320E916F48
:104BA0000001020191519211D8A403D0000126EF17
:104BB00026F00001FA0E0201946F000194C234F055
:104BC000020E345E00000000000000000000000043
:104BD000342EE6EF25F0FA0E0201946F000194C224
:104BE00034F0020E345E00000000000000000000FF
:104BF0000000342EF7EF25F0FA0E0201946F000149
:104C000094C234F0020E345E000000000000000088
:104C100000000000342E08EF26F0FA0E0201946F17
:104C2000000194C234F0020E345E00000000000067
:104C3000000000000000342E19EF26F0020191510F
:104C4000D8B4920791070001D1EF25F0050E0201BB
:104C50003C6F740E3B6F3E6B320E3D6F0001E6EC15
:104C60001EF00201926B320E916F00010201915110
:104C70009211D8A403D000018BEF26F00001FA0EA8
:104C80000201946F000194C234F0020E345E000001
:104C900000000000000000000000342E4BEF26F062
:104CA000FA0E0201946F000194C234F0020E345ED9
:104CB000000000000000000000000000342E5CEF47
:104CC00026F0FA0E0201946F000194C234F0020E35
:104CD000345E000000000000000000000000342EE0
:104CE0006DEF26F0FA0E0201946F000194C234F0C9
:104CF000020E345E00000000000000000000000012
:104D0000342E7EEF26F002019151D8B4920791071C
:104D1000000136EF26F0050E02013C6F260E3B6FB8
:104D20003E6B960E3D6F0001E6EC1EF00201926BA9
:104D3000320E916F0001020191519211D8A403D05B
:104D40000001F0EF26F00001FA0E0201946F00015D
:104D500094C234F0020E345E000000000000000037
:104D600000000000342EB0EF26F0FA0E0201946F1E
:104D7000000194C234F0020E345E00000000000016
:104D8000000000000000342EC1EF26F0FA0E0201F0
:104D9000946F000194C234F0020E345E00000000F3
:104DA0000000000000000000342ED2EF26F0FA0EC2
:104DB0000201946F000194C234F0020E345E0000D0
:104DC00000000000000000000000342EE3EF26F099
:104DD00002019151D8B49207910700019BEF26F090
:104DE000050E02013C6F260E3B6F3E6B960E3D6F2B
:104DF0000001E6EC1EF00201926B320E916F000191
:104E0000020191519211D8A403D0000155EF27F06F
:104E10000001FA0E0201946F000194C234F0020EF8
:104E2000345E000000000000000000000000342E8E
:104E300015EF27F0FA0E0201946F000194C234F0CE
:104E4000020E345E000000000000000000000000C0
:104E5000342E26EF27F0FA0E0201946F000194C25F
:104E600034F0020E345E000000000000000000007C
:104E70000000342E37EF27F0FA0E0201946F000184
:104E800094C234F0020E345E000000000000000006
:104E900000000000342E48EF27F002019151D8B4F1
:104EA00092079107000100EF27F0040E02013C6F0A
:104EB000960E3B6F3E6B320E3D6F0001E6EC1EF02E
:104EC0000201926B320E916F000102019151921119
:104ED000D8A403D00001BAEF27F00001FA0E0201B6
:104EE000946F000194C234F0020E345E00000000A2
:104EF0000000000000000000342E7AEF27F0FA0EC8
:104F00000201946F000194C234F0020E345E00007E
:104F100000000000000000000000342E8BEF27F09E
:104F2000FA0E0201946F000194C234F0020E345E56
:104F3000000000000000000000000000342E9CEF84
:104F400027F0FA0E0201946F000194C234F0020EB1
:104F5000345E000000000000000000000000342E5D
:104F6000ADEF27F002019151D8B4920791070001EB
:104F700065EF27F0040E02013C6F960E3B6F3E6B0F
:104F8000320E3D6F0001E6EC1EF00201926B320E14
:104F9000916F0001020191519211D8A403D0000138
:104FA0001FEF28F00001FA0E0201946F000194C275
:104FB00034F0020E345E000000000000000000002B
:104FC0000000342EDFEF27F0FA0E0201946F00018B
:104FD00094C234F0020E345E0000000000000000B5
:104FE00000000000342EF0EF27F0FA0E0201946F5B
:104FF000000194C234F0020E345E00000000000094
:10500000000000000000342E01EF28F0FA0E02012B
:10501000946F000194C234F0020E345E0000000070
:105020000000000000000000342E12EF28F0020102
:105030009151D8B4920791070001CAEF27F0040EEE
:1050400002013C6F960E3B6F3E6B320E3D6F0001CE
:10505000E6EC1EF00201926B320E916F000102012C
:1050600091519211D8A403D0000184EF28F00001DF
:10507000FA0E0201946F000194C234F0020E345E05
:10508000000000000000000000000000342E44EF8B
:1050900028F0FA0E0201946F000194C234F0020E5F
:1050A000345E000000000000000000000000342E0C
:1050B00055EF28F0FA0E0201946F000194C234F00B
:1050C000020E345E0000000000000000000000003E
:1050D000342E66EF28F0FA0E0201946F000194C29C
:1050E00034F0020E345E00000000000000000000FA
:1050F0000000342E77EF28F002019151D8B49207C6
:10510000910700012FEF28F0040E02013C6F960E6C
:105110003B6F3E6B320E3D6F0001E6EC1EF002016C
:10512000926B320E916F0001020191519211D8A43D
:1051300003D00001E9EF28F00001FA0E0201946F9C
:10514000000194C234F0020E345E00000000000042
:10515000000000000000342EA9EF28F0FA0E020132
:10516000946F000194C234F0020E345E000000001F
:105170000000000000000000342EBAEF28F0FA0E04
:105180000201946F000194C234F0020E345E0000FC
:1051900000000000000000000000342ECBEF28F0DB
:1051A000FA0E0201946F000194C234F0020E345ED4
:1051B000000000000000000000000000342EDCEFC2
:1051C00028F002019151D8B492079107000194EFA1
:1051D00028F0040E02013C6F160E3B6F010E3E6F6D
:1051E000900E3D6F0001E6EC1EF03BEF32F0100E2A
:1051F00002013C6F5A0E3B6F3E6B640E3D6F000127
:10520000E6EC1EF0120E02013C6F5C0E3B6F3E6B33
:10521000640E3D6F0001E6EC1EF0140E02013C6FBF
:10522000A00E3B6F3E6B640E3D6F0001E6EC1EF07E
:10523000150E02013C6FD20E3B6F3E6B640E3D6F4C
:105240000001E6EC1EF0180E02013C6F7E0E3B6F73
:105250003E6B960E3D6F0001E6EC1EF00201926B74
:10526000320E916F0001020191519211D8A403D026
:10527000000188EF29F00001FA0E0201946F00018D
:1052800094C234F0020E345E000000000000000002
:1052900000000000342E48EF29F0FA0E0201946F4E
:1052A000000194C234F0020E345E000000000000E1
:1052B000000000000000342E59EF29F0FA0E020120
:1052C000946F000194C234F0020E345E00000000BE
:1052D0000000000000000000342E6AEF29F0FA0EF2
:1052E0000201946F000194C234F0020E345E00009B
:1052F00000000000000000000000342E7BEF29F0C9
:1053000002019151D8B492079107000133EF29F0BF
:10531000180E02013C6F7E0E3B6F3E6B960E3D6F8A
:105320000001E6EC1EF00201926B320E916F00015B
:10533000020191519211D8A403D00001EDEF29F0A0
:105340000001FA0E0201946F000194C234F0020EC3
:10535000345E000000000000000000000000342E59
:10536000ADEF29F0FA0E0201946F000194C234F0FF
:10537000020E345E0000000000000000000000008B
:10538000342EBEEF29F0FA0E0201946F000194C290
:1053900034F0020E345E0000000000000000000047
:1053A0000000342ECFEF29F0FA0E0201946F0001B5
:1053B00094C234F0020E345E0000000000000000D1
:1053C00000000000342EE0EF29F002019151D8B422
:1053D00092079107000198EF29F01B0E02013C6F24
:1053E000800E3B6F3E6B320E3D6F0001E6EC1EF00F
:1053F0000201926B320E916F0001020191519211E4
:10540000D8A403D0000152EF2AF00001FA0E0201E5
:10541000946F000194C234F0020E345E000000006C
:105420000000000000000000342E12EF2AF0FA0EF7
:105430000201946F000194C234F0020E345E000049
:1054400000000000000000000000342E23EF2AF0CE
:10545000FA0E0201946F000194C234F0020E345E21
:10546000000000000000000000000000342E34EFB7
:105470002AF0FA0E0201946F000194C234F0020E79
:10548000345E000000000000000000000000342E28
:1054900045EF2AF002019151D8B49207910700011B
:1054A000FDEF29F01B0E02013C6F800E3B6F3E6B3F
:1054B000320E3D6F0001E6EC1EF00201926B320EDF
:1054C000916F0001020191519211D8A403D0000103
:1054D000B7EF2AF00001FA0E0201946F000194C2A6
:1054E00034F0020E345E00000000000000000000F6
:1054F0000000342E77EF2AF0FA0E0201946F0001BB
:1055000094C234F0020E345E00000000000000007F
:1055100000000000342E88EF2AF0FA0E0201946F8A
:10552000000194C234F0020E345E0000000000005E
:10553000000000000000342E99EF2AF0FA0E02015C
:10554000946F000194C234F0020E345E000000003B
:105550000000000000000000342EAAEF2AF0020133
:105560009151D8B492079107000162EF2AF01B0E07
:1055700002013C6F800E3B6F3E6B320E3D6F0001AF
:10558000E6EC1EF00201926B320E916F00010201F7
:1055900091519211D8A403D000011CEF2BF000010F
:1055A000FA0E0201946F000194C234F0020E345ED0
:1055B000000000000000000000000000342EDCEFBE
:1055C0002AF0FA0E0201946F000194C234F0020E28
:1055D000345E000000000000000000000000342ED7
:1055E000EDEF2AF0FA0E0201946F000194C234F03C
:1055F000020E345E00000000000000000000000009
:10560000342EFEEF2AF0FA0E0201946F000194C2CC
:1056100034F0020E345E00000000000000000000C4
:105620000000342E0FEF2BF002019151D8B49207F5
:1056300091070001C7EF2AF01B0E02013C6F800E9C
:105640003B6F3E6B320E3D6F0001E6EC1EF0020137
:10565000926B320E916F0001020191519211D8A408
:1056600003D0000181EF2BF00001FA0E0201946FCC
:10567000000194C234F0020E345E0000000000000D
:10568000000000000000342E41EF2BF0FA0E020162
:10569000946F000194C234F0020E345E00000000EA
:1056A0000000000000000000342E52EF2BF0FA0E34
:1056B0000201946F000194C234F0020E345E0000C7
:1056C00000000000000000000000342E63EF2BF00B
:1056D000FA0E0201946F000194C234F0020E345E9F
:1056E000000000000000000000000000342E74EFF5
:1056F0002BF002019151D8B49207910700012CEFD1
:105700002BF0180E02013C6F7E0E3B6F010E3E6FB8
:10571000900E3D6F0001E6EC1EF01B0E02013C6F87
:10572000800E3B6F3E6B320E3D6F0001E6EC1EF0CB
:105730000201926B320E916F0001020191519211A0
:10574000D8A403D00001F2EF2BF00001FA0E020101
:10575000946F000194C234F0020E345E0000000029
:105760000000000000000000342EB2EF2BF0FA0E13
:105770000201946F000194C234F0020E345E000006
:1057800000000000000000000000342EC3EF2BF0EA
:10579000FA0E0201946F000194C234F0020E345EDE
:1057A000000000000000000000000000342ED4EFD4
:1057B0002BF0FA0E0201946F000194C234F0020E35
:1057C000345E000000000000000000000000342EE5
:1057D000E5EF2BF002019151D8B492079107000137
:1057E0009DEF2BF01B0E02013C6F800E3B6F3E6B5A
:1057F000320E3D6F0001E6EC1EF00201926B320E9C
:10580000916F0001020191519211D8A403D00001BF
:1058100057EF2CF00001FA0E0201946F000194C2C0
:1058200034F0020E345E00000000000000000000B2
:105830000000342E17EF2CF0FA0E0201946F0001D5
:1058400094C234F0020E345E00000000000000003C
:1058500000000000342E28EF2CF0FA0E0201946FA5
:10586000000194C234F0020E345E0000000000001B
:10587000000000000000342E39EF2CF0FA0E020177
:10588000946F000194C234F0020E345E00000000F8
:105890000000000000000000342E4AEF2CF002014E
:1058A0009151D8B492079107000102EF2CF01B0E22
:1058B00002013C6F800E3B6F3E6B320E3D6F00016C
:1058C000E6EC1EF00201926B320E916F00010201B4
:1058D00091519211D8A403D00001BCEF2CF000012B
:1058E000FA0E0201946F000194C234F0020E345E8D
:1058F000000000000000000000000000342E7CEFDB
:105900002CF0FA0E0201946F000194C234F0020EE2
:10591000345E000000000000000000000000342E93
:105920008DEF2CF0FA0E0201946F000194C234F056
:10593000020E345E000000000000000000000000C5
:10594000342E9EEF2CF0FA0E0201946F000194C2E7
:1059500034F0020E345E0000000000000000000081
:105960000000342EAFEF2CF002019151D8B4920711
:105970009107000167EF2CF01B0E02013C6F800EB7
:105980003B6F3E6B320E3D6F0001E6EC1EF00201F4
:10599000926B320E916F0001020191519211D8A4C5
:1059A00003D0000121EF2DF00001FA0E0201946FE7
:1059B000000194C234F0020E345E000000000000CA
:1059C000000000000000342EE1EF2CF0FA0E02017E
:1059D000946F000194C234F0020E345E00000000A7
:1059E0000000000000000000342EF2EF2CF0FA0E50
:1059F0000201946F000194C234F0020E345E000084
:105A000000000000000000000000342E03EF2DF025
:105A1000FA0E0201946F000194C234F0020E345E5B
:105A2000000000000000000000000000342E14EF11
:105A30002DF002019151D8B4920791070001CCEFEB
:105A40002CF0180E02013C6F7E0E3B6F010E3E6F74
:105A5000900E3D6F0001E6EC1EF0150E02013C6F4A
:105A6000D20E3B6F3E6B320E3D6F0001E6EC1EF036
:105A70000201926B320E916F00010201915192115D
:105A8000D8A403D0000192EF2DF00001FA0E02011C
:105A9000946F000194C234F0020E345E00000000E6
:105AA0000000000000000000342E52EF2DF0FA0E2E
:105AB0000201946F000194C234F0020E345E0000C3
:105AC00000000000000000000000342E63EF2DF005
:105AD000FA0E0201946F000194C234F0020E345E9B
