:020000040000FA
:1000000064EF21F0D190000C056ED8CF06F0E0CF60
:1000100007F00001E9CF0DF0EACF08F0E1CF09F0D9
:10002000E2CF0AF0D9CF0BF0DACF0CF0F3CF14F017
:10003000F4CF15F0FACF16F0FBCF17F000C00FF099
:1000400001C010F002C011F003C012F004C013F0A0
:100050009DA02EEF00F09EB0B6EF13F00FC000F0A1
:1000600010C001F011C002F012C003F013C004F080
:100070000E8E0DC0E9FF08C0EAFF09C0E1FF0AC00B
:10008000E2FF0BC0D9FF0CC0DAFF14C0F3FF15C0AC
:10009000F4FF16C0FAFF17C0FBFF055007C0E0FFD2
:1000A00006C0D8FF1000F2CF0EF0F29EF76AC40F20
:1000B000F66E000EF722000EF86E0900F5500EBE27
:1000C000F28E1200005EBCE2613FDD83C29C7E20A6
:1000D000A3FD1F419DC3217FFCA2401E5F01E3BD24
:1000E0003E6082DC237D9FC1421CFEA0E1BF5D0318
:1000F00080DE3C62BEE0025CDF81633D7C22C09E0C
:100100001D43A1FF4618FAA427799BC584DA3866F7
:10011000E5BB5907DB856739BAE406581947A5FBE3
:100120007826C49A653BD987045AB8E6A7F91B45D7
:10013000C6987A24F8A6441A99C7257B3A6486D8CB
:100140005B05E7B98CD2306EEDB3510F4E10F2ACB7
:100150002F7193CD114FADF3702ECC92D38D6F31A3
:10016000B2EC0E50AFF1134DCE90722C6D33D18F97
:100170000C52B0EE326C8ED0530DEFB1F0AE4C128B
:1001800091CF2D73CA947628ABF517490856B4EA77
:100190006937D58B5709EBB536688AD495CB297763
:1001A000F4AA4816E9B7550B88D6346A2B7597C957
:1001B0004A14F6A8742AC896154BA9F7B6E80A544B
:1001C000D7896B353FB0E9EF00F0800E016E1CEF70
:1001D00001F03FB2F0EF00F0C00E016E1CEF01F035
:1001E0003FB4F7EF00F0E00E016E1CEF01F03FB6F8
:1001F000FEEF00F0F00E016E1CEF01F03FB805EFCE
:1002000001F0F80E016E1CEF01F03FBA0CEF01F0A7
:10021000FC0E016E1CEF01F03FBC13EF01F0FE0E6F
:10022000016E1CEF01F03FBE1AEF01F0FF0E016EF0
:100230001CEF01F0FF0E016EC6EF13F0010E036E0E
:10024000B80EE96E03C0EAFFEF502A6E010E036E8E
:10025000B90EE96E03C0EAFFEF502B6E050E306E4B
:100260000101BA6B00016B9A6B986B88A4BA6E504F
:10027000A4BA6E50256A316A55EF01F0050ED88098
:100280002954030DF350006ED890003200502526FB
:1002900025500908D8B04FEF01F032EF02F031528B
:1002A000D8B455EF01F035EF02F0286A050E296E3B
:1002B0000000A4AA59EF01F000006ECF23F06B9864
:1002C0000B0E2C6E2C2E62EF01F06B88A4AA66EF49
:1002D00001F000006ECF23F023B6252A23B8252A8B
:1002E00023BA252A210E2A5ED8A02B06D8A035EFE6
:1002F00002F0246A23508109236E234824807E0E55
:1003000023162366248C24B0249CA4AA85EF01F034
:1003100000006ECF23F023B6252A23B8252A23BA5E
:10032000252A226A23508109236E234822807E0ECB
:1003300023162366228C22B0229C22502426242CB1
:1003400058EF01F022C024F00000A4AAA5EF01F0AC
:1003500000006ECF23F0226A23508109236E2348C8
:1003600022807E0E23162366228C22B0229C080E49
:100370002A5ED8A02B06D8A0318022502426242E15
:100380003EEF01F022C024F0292EA4EF01F000007E
:10039000A4AAC8EF01F000006ECF23F0226A235018
:1003A000C309236E234822803C0E23162366228C29
:1003B00022B0229CD8902836222CE2EF01F028802F
:1003C000F0EF01F02252D8A4E9EF01F02890F0EF0D
:1003D00001F030063052D8A4F0EF01F032EF02F015
:1003E0003F0E2816A4AAF2EF01F06E50016E01C074
:1003F00023F0180E2A5ED8A02B06D8A031802250F8
:100400002426242C06EF02F00DEF02F030063052C5
:10041000D8A40DEF02F032EF02F022C024F0A4AA1B
:100420000FEF02F06E50016E01C023F02850320829
:10043000D8B41DEF02F0C7EF01F0A4AA1DEF02F03F
:100440006E50016E01C023F02350C309FF08D8A4E9
:100450001DEF02F0CF6A580ECE6E1E84010E016EA3
:100460004CEF02F00101BA2B00010101BA53D8B4DC
:1004700003D0000142EF02F0000125500908D8B076
:1004800048EF02F0000E016E4CEF02F04CEF02F06C
:10049000020E016E4CEF02F010EF14F0EB0E0101B2
:1004A000B86FAA0E326E0001C950206E3250C96E6C
:1004B0000101B82F03D0000168EF02F00001C7A0CE
:1004C0005FEF02F0C950206E3250C96E58EF02F053
:1004D000AF0E326EC7A06AEF02F0C950206E3250E4
:1004E000C96EC00E326EC7A073EF02F0C950206E05
:1004F0003250C96EE00E326EC7A07CEF02F0C950D8
:10050000206E3250C96EAA0E326EC7A085EF02F07F
:10051000C950206E3250C96ECF6ACE6A1E84AA0EB0
:10052000326EC7A091EF02F0C950206E3250C96EF2
:10053000CA0E326EC7A09AEF02F0C950206E325038
:10054000C96E2EA4A8EF02F0170E326EAAEF02F0C9
:10055000740E326EC7A0AAEF02F0C950206E32505E
:10056000C96E32C029F00C0E4A24020F326EC7A0A9
:10057000B7EF02F0C950206E3250C96E246A245081
:100580000708D8A0D0EF02F02A6A29B62A2A29BC87
:100590002A2AD89029362AB02980242ABFEF02F0CF
:1005A00029508E19326EC7A0D3EF02F0C950206EC9
:1005B0003250C96E246A24500708D8A0ECEF02F02C
:1005C0002A6A29B62A2A29BC2A2AD89029362AB08A
:1005D0002980242ADBEF02F029508F19326EC7A040
:1005E000EFEF02F0C950206E3250C96E246A2450D9
:1005F0000708D8A008EF03F02A6A29B62A2A29BCDE
:100600002A2AD89029362AB02980242AF7EF02F026
:100610002950AA0A326EC7A00BEF03F0C950206E12
:100620003250C96E246A24500708D8A024EF03F082
:100630002A6A29B62A2A29BC2A2AD89029362AB019
:100640002980242A13EF03F02950AA0A326EC7A08A
:1006500027EF03F0C950206E3250C96E246A24502F
:100660000708D8A040EF03F02A6A29B62A2A29BC35
:100670002A2AD89029362AB02980242A2FEF03F07D
:100680002950AA0A326EC7A043EF03F0C950206E6A
:100690003250C96E246A24500708D8A05CEF03F0DA
:1006A0002A6A29B62A2A29BC2A2AD89029362AB0A9
:1006B0002980242A4BEF03F02950AA0A326EC7A0E2
:1006C0005FEF03F0C950206E3250C96E286A28507F
:1006D0000B08D8A092EF03F0246A24500708D8A092
:1006E0007EEF03F02A6A29B62A2A29BC2A2AD89042
:1006F00029362AB02980242A6DEF03F0036A285096
:100700001A0FE96E010E0320EA6EEF502918326EBF
:10071000C7A088EF03F0C950206E3250C96E282A56
:1007200067EF03F04AC02DF0286A2D50285CD8B03E
:10073000C0EF03F0246A24500708D8A0ACEF03F000
:100740002A6A29B62A2A29BC2A2AD89029362AB008
:100750002980242A9BEF03F0036A28508E0FE96E4C
:10076000000E0320EA6EEF502918326EC7A0B6EFD4
:1007700003F0C950206E3250C96E282A95EF03F05D
:10078000246A24500708D8A0D2EF03F02A6A29B6B9
:100790002A2A29BC2A2AD89029362AB02980242A34
:1007A000C1EF03F0295001013419326E0001C7A0D6
:1007B000D7EF03F0C950206E3250C96E246A24501E
:1007C0000708D8A0F0EF03F02A6A29B62A2A29BC24
:1007D0002A2AD89029362AB02980242ADFEF03F06C
:1007E000295001013519326E0001C7A0F5EF03F061
:1007F000C950206E3250C96E01013953D8A403D0BC
:10080000000130EF04F00001C70E326EC7A006EF02
:1008100004F0C950206E3250C96E246A24501F085B
:10082000D8A01EEF04F0326AC7A014EF04F0C9503C
:10083000206E3250C96E242A0EEF04F0246A245030
:100840001F08D8A030EF04F0FF0E326EC7A026EFCD
:1008500004F0C950206E3250C96E242A1FEF04F0F4
:10086000326AC7A031EF04F0C950206E3250C96E11
:10087000C7A038EF04F0378A010E016E98EF14F02C
:1008800037AC48EF04F0379C37904A6A4BEF04F0DE
:10089000378237904A6A9AEF14F0206AA4AA4EEF82
:1008A00004F06E50016E01C022F02250E709FF08EB
:1008B000D8A45FEF04F0010E226E60EF04F0226A0C
:1008C00022B0208EA4AA62EF04F06E50016E01C027
:1008D00022F02250E709FF08D8A473EF04F0010EBC
:1008E000226E74EF04F0226A22B0208CA4AA76EF64
:1008F00004F06E50016E01C022F02250E709FF089B
:10090000D8A487EF04F0010E226E88EF04F0226A6B
:1009100022B0208AA4AA8AEF04F06E50016E01C0B2
:1009200022F02250E709FF08D8A49BEF04F0010E43
:10093000226E9CEF04F0226A22B02088A4AA9EEFC7
:1009400004F06E50016E01C022F02250E709FF084A
:10095000D8A4AFEF04F0010E226EB0EF04F0226ACB
:1009600022B02086A4AAB2EF04F06E50016E01C03E
:1009700022F02250E709FF08D8A4C3EF04F0010ECB
:10098000226EC4EF04F0226A22B02084A4AAC6EF2B
:1009900004F06E50016E01C022F02250E709FF08FA
:1009A000D8A4D7EF04F0010E226ED8EF04F0226A2B
:1009B00022B02082A4AADAEF04F06E50016E01C0CA
:1009C00022F02250E709FF08D8A4EBEF04F0010E53
:1009D000226EECEF04F0226A22B02080000C206A24
:1009E000A4AAF0EF04F06E50016E01C022F02A6A52
:1009F00029B62A2A29BC2A2AD89029362AB0298041
:100A00002250E709FF08D8A40AEF05F0010E226E74
:100A10000BEF05F0226A2950221A22B0208EA4AAD8
:100A20000FEF05F06E50016E01C022F02A6A29B660
:100A30002A2A29BC2A2AD89029362AB0298022506D
:100A4000E709FF08D8A429EF05F0010E226E2AEF6E
:100A500005F0226A2950221A22B0208CA4AA2EEF77
:100A600005F06E50016E01C022F02A6A29B62A2ACA
:100A700029BC2A2AD89029362AB029802250E70991
:100A8000FF08D8A448EF05F0010E226E49EF05F0EB
:100A9000226A2950221A22B0208AA4AA4DEF05F01A
:100AA0006E50016E01C022F02A6A29B62A2A29BC9A
:100AB0002A2AD89029362AB029802250E709FF082F
:100AC000D8A467EF05F0010E226E68EF05F0226AE8
:100AD0002950221A22B02088A4AA6CEF05F06E508B
:100AE000016E01C022F02A6A29B62A2A29BC2A2AC4
:100AF000D89029362AB029802250E709FF08D8A4C7
:100B000086EF05F0010E226E87EF05F0226A29506C
:100B1000221A22B02086A4AA8BEF05F06E50016E37
:100B200001C022F02A6A29B62A2A29BC2A2AD8908A
:100B300029362AB029802250E709FF08D8A4A5EF5A
:100B400005F0010E226EA6EF05F0226A2950221A46
:100B500022B02084A4AAAAEF05F06E50016E01C055
:100B600022F02A6A29B62A2A29BC2A2AD8902936AC
:100B70002AB029802250E709FF08D8A4C4EF05F065
:100B8000010E226EC5EF05F0226A2950221A22B00A
:100B90002082A4AAC9EF05F06E50016E01C022F0B8
:100BA0002A6A29B62A2A29BC2A2AD89029362AB0A4
:100BB00029802250E709FF08D8A4E3EF05F0010ED1
:100BC000226EE4EF05F0226A2950221A22B020801A
:100BD000000C286A28500708D8A04CEF06F0A4AAF9
:100BE000EFEF05F06E50016E2A6A29B62A2A29BC59
:100BF0002A2AD89029362AB02980D8902834010191
:100C0000BC6BBB6F3B0EBB25E96E010EBC21EA6ECF
:100C1000EF502B5CD8B403D000013BEF06F000018D
:100C2000A4AA10EF06F06E50016E2A6A29B62A2A8D
:100C300029BC2A2AD89029362AB02980D89028346D
:100C40000101BC6BBB6F010EBB25016E000EBC2108
:100C5000036E01503B0FE96E010E0320EA6EEF5068
:100C60002C5CD8B403D0000139EF06F00001010E6E
:100C7000246E49EF06F0A4AA3BEF06F06E50016E19
:100C80002A6A29B62A2A29BC2A2AD89029362AB0C3
:100C90002980282AEAEF05F0286A28500F08D8A0F2
:100CA00063EF06F0A4AA52EF06F06E50016E2A6AB6
:100CB00029B62A2A29BC2A2AD89029362AB029807E
:100CC000282A4DEF06F0E1EF0FF00101D051D203D9
:100CD000F3CF01F0F4CF00F0D303F3500026D1514D
:100CE000D203F3500020026E000101EF07F0010172
:100CF000CD6BCC6BCE6B00010101CE510B08D8B08F
:100D000003D00001B8EF06F00001CDC1CFF1CCC196
:100D1000CDF1CFC1CCF1036A0101CE51C725E96EF7
:100D2000C8510320EA6EEF50CD1BCD39006E0F0E77
:100D300000160050CD1BCD39006EF00E001600508D
:100D4000CC1BCD31006E003200321F0E0016005059
:100D5000CC1BCD39006EF00E00160050D890003636
:100D60000050CD1B00010101CE2B00017CEF06F0ED
:100D70000101CE6B00010101CB51CE5DD8A003D0A3
:100D80000001F7EF06F00001CDC1CFF1CCC1CDF1EC
:100D9000CFC1CCF1036A0101CE51C925E96ECA5118
:100DA0000320EA6EEF50CD1BCD39006E0F0E0016FA
:100DB0000050CD1BCD39006EF00E00160050CC1B3C
:100DC000CD31006E003200321F0E00160050CC1BD9
:100DD000CD39006EF00E00160050D890003600504D
:100DE000CD1B00010101CE2B0001BBEF06F001017C
:100DF000D16BCCC1D0F1010ED36FD26B000165EF86
:100E000006F002C0D1F101C0D0F10101CD51D025D1
:100E1000016E000ED121036E0350026E0001000C22
:100E20001D0E016E010E026E62EF07F0080E010149
:100E3000C86F00010101C853D8A403D000013CEFE2
:100E400007F00001010E0101C85D036AC625E96EC5
:100E5000C7510320EA6EEF3C02D004D0000100012C
:100E600035EF07F0000137EF07F03CEF07F0010125
:100E7000C80700011AEF07F00101C853D8B403D026
:100E8000000148EF07F00001010E016E90EF07F03E
:100E9000080E0101C86F00010101C853D8A403D096
:100EA00000017EEF07F00001010E0101C85D036A39
:100EB000C625E96EC7510320EA6EEFCFCAF10001E3
:100EC00010EF07F002C0CCF101C0CBF1010E01011F
:100ED000C85D036ACB25E96ECC510320EA6EEF5062
:100EE000CA5DD8A403D0000179EF07F000017EEFBE
:100EF00007F00101C80700014CEF07F00101C853DA
:100F0000D8B403D000018CEF07F00001010E016E90
:100F100090EF07F090EF07F0000E016E90EF07F0F2
:100F2000000C9D90379E37A099EF07F037903792CD
:100F3000379C979A8E9A98988F98000C91EC07F0AE
:100F4000000C9EEC07F0000C0101C66BD1B0C62B63
:100F5000C651016E0001B6EF0DF0030EF66EF76A92
:100F6000300EF86E0800F5CFC6F1F86AD89001018E
:100F7000C633C651016E0001BAEF0DF00101C65132
:100F80000708D8A003D00001CAEF07F00001010153
:100F9000C66B0001D8900101C635FE0BC76F00017A
:100FA00002EC00F00101C86BF2BEC82BC853D8A4F4
:100FB00003D00001E2EF07F00001F29CF29EF2BEC6
:100FC000DEEF07F0030EF66EF76A300EF86EC7C15B
:100FD000F5FF0C00A68EA68CA684550EA76EAA0E51
:100FE000A76EA682000000000000F86AA694010126
:100FF000C853D8A403D0000101EF08F00001C00ECF
:10100000F212000CD180000CC8C13CF08D80200E83
:10101000286E2852D8B414EF08F098908F809890DA
:101020008F90280609EF08F08D900101C853D8A4CD
:1010300003D0000126EF08F0000198908F8098906F
:101040008F900101C807000115EF08F0000CC7C11F
:10105000C8F104EC08F031EF08F0C6C1C7F127EF82
:1010600008F01EEF0EF0C6C13DF02CEF0EF08B9491
:10107000000C979C8E9C000C979C8E8C000C8B8493
:10108000000C37A848EF08F0010E016E4AEF08F097
:10109000000E016E000C37AA52EF08F0010E016E2F
:1010A00054EF08F0000E016E000C4BEC08F00150FC
:1010B000000C3E52D8A461EF08F0BDEF08F065EFD8
:1010C00008F039EC08F037EC08F03E500608D8A4D8
:1010D0008FEF08F001013851020A0001D8B47BEF0C
:1010E00008F0030AD8B47BEF08F0010AD8B481EF06
:1010F00008F087EF08F03CEC08F037EC08F08DEFD3
:1011000008F03CEC08F03FEC08F08DEF08F039EC0B
:1011100008F037EC08F08DEF08F098EF08F038A2EF
:1011200096EF08F03FEC08F098EF08F037EC08F085
:101130003E2C9BEF08F03E500308D8A4ACEF08F01B
:1011400041EC08F00152D8B4AAEF08F03CEC08F0EA
:10115000ACEF08F039EC08F03E500208D8A4BDEF1F
:1011600008F055EC08F00152D8B4BBEF08F03CECA5
:1011700008F0BDEF08F039EC08F0000C37EC08F08F
:1011800039EC08F0C6C13EF059EC08F0000C969E10
:101190008D9EFA0E0101DD6F0001DDC134F0020EFB
:1011A000345E000000000000000000000000342E4B
:1011B000D5EF08F0FA0E0101DD6F0001DDC134F05A
:1011C000020E345E0000000000000000000000007D
:1011D000342EE6EF08F0968E460E0101DD6F000119
:1011E000DDC134F0020E345E00000000000000009B
:1011F00000000000342EF8EF08F084AE06EF09F08E
:10120000010E016E0AEF09F00AEF09F0000E016EFF
:101210000AEF09F001C0DAF1FA0E0101DD6F0001F9
:10122000DDC134F0020E345E00000000000000005A
:1012300000000000342E18EF09F0FA0E0101DD6FF6
:101240000001DDC134F0020E345E00000000000039
:10125000000000000000342E29EF09F00101DA2D12
:1012600002D004D0000100013DEF09F00001000EA2
:10127000016E41EF09F041EF09F0010E016E41EFFF
:1012800009F0000C0101DC6B00010101DC510708D1
:10129000D8B003D00001B0EF09F00001969E8D9EFA
:1012A000DBC100F00101DC51016ED8A403D00001C4
:1012B00060EF09F00001D8900032012E5BEF09F0D9
:1012C00000A088EF09F00A0E0101DD6F0001DDC109
:1012D00034F0020E345E0000000000000000000048
:1012E0000000342E6FEF09F0968E4B0E0101DD6F7A
:1012F0000001DDC134F0020E345E00000000000089
:10130000000000000000342E81EF09F0ABEF09F07F
:10131000500E0101DD6F0001DDC134F0020E345EBC
:10132000000000000000000000000000342E94EFD8
:1013300009F0968E050E0101DD6F0001DDC134F06C
:10134000020E345E000000000000000000000000FB
:10135000342EA6EF09F00101DC2B000145EF09F066
:10136000000C0101DB6BDA6B00010101DA510708A7
:10137000D8B003D0000110EF0AF00001969E8D9EB8
:10138000080E0101DD6F0001DDC134F0020E345E94
:10139000000000000000000000000000342ECCEF30
:1013A00009F0968E040E0101DD6F0001DDC134F0FD
:1013B000020E345E0000000000000000000000008B
:1013C000342EDEEF09F084AEFAEF09F0010E006E64
:1013D0000101DA51016ED8A403D00001F6EF09F043
:1013E0000001D8900036012EF1EF09F00050010104
:1013F000DB130001410E0101DD6F0001DDC134F09E
:10140000020E345E0000000000000000000000003A
:10141000342E06EF0AF00101DA2B0001B5EF09F0D6
:101420000101DB51016E0001000C0101D3518F0855
:10143000D8A003D0000122EF0AF00001020E016ED5
:101440007EEF0BF0070E0101D3258F08D8A003D043
:10145000000130EF0AF00001030E016E7EEF0BF089
:10146000C7EC08F001C0D6F1CC0E0101DB6F000122
:1014700042EC09F00F0E0101DB6F000142EC09F0B4
:10148000D3C1DBF142EC09F00101DB6B000142EC5E
:1014900009F0D5C103F00101D451E96E03C0EAFFA0
:1014A000EFCFDAF1DAC1DBF1000142EC09F0010122
:1014B000D42BD8B4D52BD5C103F0D451E96E03C0D9
:1014C000EAFFEFCFDAF1DAC1DBF1000142EC09F01B
:1014D0000101D42BD8B4D52BD5C103F0D451E96E7A
:1014E00003C0EAFFEFCFDAF1DAC1DBF1000142EC31
:1014F00009F00101D42BD8B4D52BD5C103F0D451B8
:10150000E96E03C0EAFFEFCFDAF1DAC1DBF10001E7
:1015100042EC09F00101D42BD8B4D52BD5C103F08E
:10152000D451E96E03C0EAFFEFCFDAF1DAC1DBF1A3
:10153000000142EC09F00101D42BD8B4D52BD5C160
:1015400003F0D451E96E03C0EAFFEFCFDAF1DAC15C
:10155000DBF1000142EC09F00101D42BD8B4D52B0A
:10156000D5C103F0D451E96E03C0EAFFEFCFDAF141
:10157000DAC1DBF1000142EC09F00101D42BD8B44F
:10158000D52BD5C103F0D451E96E03C0EAFFEFCFEC
:10159000DAF1DAC1DBF1000142EC09F00101D42BF0
:1015A000D8B4D52B0001B1EC09F001C0D7F1B1ECF2
:1015B00009F001C0D8F1C7EC08F0080E0101D45FB2
:1015C000000ED55B0001C7EC08F001C0D6F1CC0ECF
:1015D0000101DB6F000142EC09F0550E0101DB6FE8
:1015E000000142EC09F0D3C1DBF142EC09F001014A
:1015F000DB6B000142EC09F0070E0101DB6F00011B
:1016000042EC09F00101DB6B0D0EDA6F0001010104
:10161000DA51DB11D8A403D000015CEF0BF000011C
:10162000FA0E0101DD6F0001DDC134F0020E345EFF
:10163000000000000000000000000000342E1CEF3D
:101640000BF0FA0E0101DD6F0001DDC134F0020E76
:10165000345E000000000000000000000000342E96
:101660002DEF0BF0FA0E0101DD6F0001DDC134F04A
:10167000020E345E000000000000000000000000C8
:10168000342E3EEF0BF0FA0E0101DD6F0001DDC1DB
:1016900034F0020E345E0000000000000000000084
:1016A0000000342E4FEF0BF00101DA51D8B4DB0704
:1016B000DA07000107EF0BF0B1EC09F001C0D9F136
:1016C0000101D951AA08D8A403D0000172EF0BF090
:1016D00000010101D9515508D8B403D0000178EFB9
:1016E0000BF00001010E0101D66F00017BEF0BF042
:1016F0000101D66B00010101D651016E0001AEEF70
:101700000BF0C6C1C8F1C7C1C9F1020E0101D26F09
:1017100000010101D2510708D8B003D00001A1EFA8
:101720000BF00001036A0101D251C80FE96E010EEE
:101730000320EA6EEF6A00010101D22B000189EF5C
:101740000BF0010E0101D16FC80ED06FD36BD1C168
:10175000D5F1D0C1D4F1000115EF0AF00150D6EF58
:101760000EF0979A8E9A98988F988C9498968F8668
:101770000101DB6B5A0EDA6F00010101DA51DB1156
:10178000D8A403D0000112EF0CF00001FA0E010101
:10179000DD6F0001DDC134F0020E345E0000000098
:1017A0000000000000000000342ED2EF0BF0FA0E13
:1017B0000101DD6F0001DDC134F0020E345E000076
:1017C00000000000000000000000342EE3EF0BF0EA
:1017D000FA0E0101DD6F0001DDC134F0020E345E4E
:1017E000000000000000000000000000342EF4EFB4
:1017F0000BF0FA0E0101DD6F0001DDC134F0020EC5
:10180000345E000000000000000000000000342EE4
:1018100005EF0CF00101DA51D8B4DB07DA0700015B
:10182000BDEF0BF03CC0C8F104EC08F03FEC08F051
:101830000101DB6BC80EDA6F00010101DA51DB1127
:10184000D8A403D0000172EF0CF00001FA0E0101E0
:10185000DD6F0001DDC134F0020E345E00000000D7
:101860000000000000000000342E32EF0CF0FA0EF1
:101870000101DD6F0001DDC134F0020E345E0000B5
:1018800000000000000000000000342E43EF0CF0C8
:10189000FA0E0101DD6F0001DDC134F0020E345E8D
:1018A000000000000000000000000000342E54EF93
:1018B0000CF0FA0E0101DD6F0001DDC134F0020E03
:1018C000345E000000000000000000000000342E24
:1018D00065EF0CF00101DA51D8B4DB07DA0700013B
:1018E0001DEF0CF037EC08F00101DB6BC80EDA6F6E
:1018F00000010101DA51DB11D8A403D00001CEEFC1
:101900000CF00001FA0E0101DD6F0001DDC134F0C1
:10191000020E345E00000000000000000000000025
:10192000342E8EEF0CF0FA0E0101DD6F0001DDC1E7
:1019300034F0020E345E00000000000000000000E1
:101940000000342E9FEF0CF0FA0E0101DD6F000154
:10195000DDC134F0020E345E000000000000000023
:1019600000000000342EB0EF0CF0FA0E0101DD6F24
:101970000001DDC134F0020E345E00000000000002
:10198000000000000000342EC1EF0CF00101DA511C
:10199000D8B4DB07DA07000179EF0CF0378E9E90A0
:1019A000FD0ECF6EE80ECE6ECC6A9D80000CB1ECC1
:1019B0000BF0000C37A0E1EF0CF0010E016EE3EF2D
:1019C0000CF0000E016E000CDAEC0CF00152D8B4F1
:1019D000F4EF0CF037ACF1EF0CF0379C3790F3EFED
:1019E0000CF0379237904A6A000C01014B938D6BD3
:1019F0008C6B0001E4EC0CF05AEF0FF00101C653C0
:101A0000D8B403D000010AEF0DF00001010E01016E
:101A1000C66F000137BE11EF0DF0000E016E39EFF9
:101A20000DF037A018EF0DF0000E016E39EF0DF03C
:101A30004AC01BF13CC01CF14BC025F1010E010155
:101A4000C86F1A0EC76FCA6B8E0EC96F4AC0CBF132
:101A5000000177EC06F002C04DF001C04CF04DC023
:101A600034F14CC035F1C6C149F04B2A3780010E24
:101A7000016E7DEF0FF0CE51A508D8A486EF0FF0D0
:101A8000CF510E08D8A486EF0FF0D151C608D8A4C4
:101A900003EF0EF0D251A808D8A403EF0EF0010115
:101AA000BB6BBC6BBD6BBE6BBF6BC06BC16BC26BEA
:101AB000C36BC46B00010101C76BD40EC66F00017C
:101AC00016EC07F00152D8B403EF0EF0DCC0BDF104
:101AD000DDC0BEF10101BD53D8B403D000017BEFDE
:101AE0000DF000010101BE53D8B403D000017BEF1B
:101AF0000DF00001FF000101BD3D02D004D0000146
:101B0000000190EF0DF000010101BE3D02D004D0B4
:101B10000001000190EF0DF00001A1EC07F00300BF
:101B20000101BD53D8B403D00001A0EF0DF00001B6
:101B30000101BE53D8A403D0000103EF0EF0000151
:101B40000101BD3D02D004D000010001B4EF0DF051
:101B500000010101BE3D02D004D000010001B4EF3C
:101B60000DF0000103EF0EF0A4EF07F001C0BCF18F
:101B7000ADEF07F001C0BBF10101BD513C0DF350C9
:101B8000BE25BF6FC06BD890C031C46FBF31C36F6B
:101B9000070EC66F0001BEEC07F002EC08F0010171
:101BA000C26BC16B00010101C251C45DD8B003D04A
:101BB0000001F3EF0DF00001D8A4E8EF0DF00101F2
:101BC000C351C15DD8A003D00001F3EF0DF00001B7
:101BD00003000000000000000101C12BD8B4C22B9B
:101BE0000001D3EF0DF002EC00F0BBC1C6F1BEEC7A
:101BF00007F00101BC53D8A403D0000103EF0EF09D
:101C0000000102EC08F0D151CB08D8A41EEF0EF071
:101C1000D2510808D8A41EEF0EF00101C76BD40EF4
:101C2000C66F000116EC07F00152D8B41EEF0EF09B
:101C3000DCC0C5F1C5C1C6F12DEF08F0D1519F0838
:101C4000D8A42CEF0EF0D251C008D8A42CEF0EF07F
:101C5000D4C0C6F133EF08F0D12D32EF0EF0D22D03
:101C600032EF0EF0D1517408D8A45FEF0EF0D251CC
:101C70007808D8A45FEF0EF00101C76BDA0EC66FCB
:101C8000000116EC07F00152D8B45FEF0EF0D4C09B
:101C9000C6F1BEEC08F0D553D8B453EF0EF03FECCC
:101CA00008F055EF0EF037EC08F0D653D8B45DEFDE
:101CB0000EF03CEC08F05FEF0EF039EC08F0D1517B
:101CC0008E08D8A432EF0FF0D2511808D8A432EF02
:101CD0000FF00101C76BD90EC66F000116EC07F0BB
:101CE0000152D8B432EF0FF0A1EC07F00101DB6B29
:101CF000140EDA6F00010101DA51DB11D8A403D010
:101D00000001D0EF0EF00001FA0E0101DD6F0001BD
:101D1000DDC134F0020E345E00000000000000005F
:101D200000000000342E90EF0EF0FA0E0101DD6F7E
:101D30000001DDC134F0020E345E0000000000003E
:101D4000000000000000342EA1EF0EF0FA0E010199
:101D5000DD6F0001DDC134F0020E345E00000000D2
:101D60000000000000000000342EB2EF0EF0FA0E6A
:101D70000101DD6F0001DDC134F0020E345E0000B0
:101D800000000000000000000000342EC3EF0EF041
:101D90000101DA51D8B4DB07DA0700017BEF0EF05E
:101DA000D4C0C6F1D5C0C7F181EF0BF0D7EC0CF071
:101DB0000101DB6B140EDA6F00010101DA51DB1156
:101DC000D8A403D0000132EF0FF00001FA0E010198
:101DD000DD6F0001DDC134F0020E345E0000000052
:101DE0000000000000000000342EF2EF0EF0FA0EAA
:101DF0000101DD6F0001DDC134F0020E345E000030
:101E000000000000000000000000342E03EF0FF07F
:101E1000FA0E0101DD6F0001DDC134F0020E345E07
:101E2000000000000000000000000000342E14EF4D
:101E30000FF0FA0E0101DD6F0001DDC134F0020E7A
:101E4000345E000000000000000000000000342E9E
:101E500025EF0FF00101DA51D8B4DB07DA070001F2
:101E6000DDEF0EF001014BA503D000013DEF0FF0B7
:101E70000001000E016E88EF0FF0D1517308D8A455
:101E800082EF0FF0D251D808D8A482EF0FF00101F1
:101E9000C76BD40EC66F000116EC07F00152D8B420
:101EA00082EF0FF0DAEC0CF00152D8B45AEF0FF0D9
:101EB000F5EF0CF0A50E8E6F0E0E8F6F906B860EE9
:101EC000916F200E926F080E936F29C194F02AC172
:101ED00095F02BC196F02CC197F02DC198F02EC132
:101EE00099F02FC19AF030C19BF00E0E4A6E1E0E73
:101EF0000101C66F0001FEEF0CF00152D8B482EF71
:101F00000FF0378C010E016E88EF0FF0000E016E9E
:101F100083EF10F01EA891EF0FF0010E016E93EF0A
:101F20000FF0000E016E9AEF10F037880CEF11F0F1
:101F3000A4BA6E50A4BA6E50A4AA9CEF0FF06E50D3
:101F4000016E01C022F0206A280E286E2852D8B4F3
:101F5000C5EF0FF02050CA08D8B4C5EF0FF0D890E5
:101F60002036A4AAB1EF0FF06E50016E01C022F02E
:101F70002250E709FF08D8A4C1EF0FF02080C2EF7C
:101F80000FF020902806A6EF0FF02050CA08D8B412
:101F9000CEEF0FF0000E016E0FEF11F04DEC04F0DC
:101FA00020C029F04DEC04F020C0B8F1EFEC04F0B3
:101FB00020C02BF0EFEC04F020C02CF0246AE9EFF5
:101FC00005F01EACE6EF0FF0010E246E2452D8A4EB
:101FD000EEEF0FF0000E016E0FEF11F0286A28509F
:101FE0000B08D8A002EF10F0EFEC04F0036A2850C1
:101FF000260FE96E010E0320EA6E20C0EFFF282AAB
:10200000EFEF0FF00C0E0101B85DFE0F2D6E2D509D
:102010004008D8A003D0000113EF10F00001000E1B
:10202000016E0FEF11F0286A2D50285CD8B027EF11
:1020300010F0EFEC04F0036A2850CE0FE96E000EAA
:102040000320EA6E20C0EFFF282A14EF10F0286A60
:1020500028500108D8A03BEF10F0EFEC04F0036A21
:102060002850360FE96E010E0320EA6E20C0EFFF04
:10207000282A28EF10F001013A53D8A403D0000118
:1020800045EF10F000014DEC04F0010E0101C86FA6
:10209000260EC76FCA6BCE0EC96F2DC0CBF10001E3
:1020A00077EC06F002C0BAF101C0B9F10101BA51F2
:1020B000036A3619286E3751B919006EBA51036E8A
:1020C000005028122852D8A403D0000170EF10F05D
:1020D00000010101386B000E016E00010FEF11F0DD
:1020E000CE51A508D8A483EF10F0CF510E08D8A484
:1020F00083EF10F01EBE83EF10F0010E0101386F68
:1021000000013BEF0DF0CE51A508D8A494EF10F0DC
:10211000CF510E08D8A494EF10F001014BB103D0B9
:1021200000010DEF11F00001020E0101386F0001F6
:102130008AEF0FF00152D8A40DEF11F0286A285051
:102140000B08D8A0C2EF10F0036A28500E0F016EE2
:10215000010E032201500101BB6F03C0BCF1036AF1
:102160002850260FE96E010E0320EA6EEF50BD6F76
:10217000BCC1EAFFBBC1E9FFBDC1EFFF0001282AD6
:102180009FEF10F0286A2D50285CD8B0E6EF10F0D1
:10219000036A28504E0F016E000E03220150010108
:1021A000BB6F03C0BCF1036A2850CE0FE96E000E6E
:1021B0000320EA6EEF50BD6FBCC1EAFFBBC1E9FF6F
:1021C000BDC1EFFF0001282AC3EF10F0286A285094
:1021D0000108D8A00AEF11F0036A2850320F016EEF
:1021E000010E032201500101BB6F03C0BCF1036A61
:1021F0002850360FE96E010E0320EA6EEF50BD6FD6
:10220000BCC1EAFFBBC1E9FFBDC1EFFF0001282A45
:10221000E7EF10F095EF0FF01E8A010E016EA1EFAF
:1022200014F0DAEC0CF00152D8B425EF11F04906A5
:102230004952D8A425EF11F0379037AC23EF11F0B5
:10224000379C24EF11F037924A6ACAEF14F0246ADF
:10225000286A2EA62EEF11F0010E246E2FA833EF60
:1022600011F0010E241A2FAC38EF11F0010E286E78
:102270002FAE3DEF11F0010E281A2850241A286ABB
:102280002EAE45EF11F0010E286ED8902E36D89064
:102290002F36282C4DEF11F02F802452D8A42E80F9
:1022A000246A3FAE56EF11F0010E246E3FAA5BEF99
:1022B00011F0010E241A3FA860EF11F0010E241A4C
:1022C0003FA465EF11F0010E241AD8903F36245038
:1022D0003F12CCEF14F041EC08F00150000C37989D
:1022E00074EF11F06FEF11F0000C0101B86BABB49B
:1022F00003D0000182EF11F00001AECFB9F101016E
:10230000B8810001ABA28AEF11F0AB98AB88010154
:10231000B88300010101B851016E0001000C9EAAB2
:1023200098EF11F0010E016E9CEF11F09CEF11F08F
:10233000000E016E9CEF11F0000C8FEC11F00152B9
:10234000D8B4A5EF11F0AECFB8F18FEC11F0015277
:10235000D8B4ADEF11F0AECFB8F196EF13F00101A4
:10236000BC53D8B403D00001BBEF11F00001010E43
:102370000101BC6F000137BEC2EF11F0000E016E0B
:10238000D0EF11F037A0C9EF11F0000E016ED0EFC1
:1023900011F01BC14AF0BCC149F03780010E016E3B
:1023A0007BEF12F08A9C050E0101B96F140EB86F15
:1023B00000010101B851D8B4B907B807B851B91133
:1023C000D8A403D000017FEF12F000019EAA7DEF98
:1023D00012F0AECFBBF10101BB53D8B403D0000162
:1023E000F7EF11F00001D9EF11F07DEF12F0BBC152
:1023F0001AF1010E0101BA6F00010101BA510B0877
:10240000D8B003D000011BEF12F000019EBA0BEF11
:1024100012F006EF12F0036A0101BA511A0FE96EC9
:10242000010E0320EA6EAECFEFFF00010101BA2BCF
:102430000001FDEF11F00101BA6B00010101BA5179
:102440003F08D8B003D000013CEF12F000019EBA63
:102450002CEF12F027EF12F0036A0101BA518E0F30
:10246000E96E000E0320EA6EAECFEFFF000101011E
:10247000BA2B00011EEF12F00101BA6B000101013D
:10248000BA510108D8B003D000015DEF12F000018D
:102490009EBA4DEF12F048EF12F0036A0101BA51F3
:1024A000340FE96E010E0320EA6EAECFEFFF00019C
:1024B0000101BA2B00013FEF12F06BEC11F0015259
:1024C000D8B475EF12F001013451325DD8B403D0A5
:1024D000000175EF12F0000101013551335DD8A400
:1024E00003D000017BEF12F000010A0E0101BC6F66
:1024F0000001AFEF11F07FEF12F0D9EF11F08A8CED
:10250000A4EF13F09EA882EF12F0BBC1ADFF000C48
:1025100001010F51016E0001D7EF12F00101BB6BF9
:10252000000182EC12F00101B86B00010101B85109
:102530000B08D8B003D00001D5EF12F00001036AF8
:102540000101B8510E0FE96E010E0320EA6EEF5043
:10255000BA6FBA53D8A403D00001C2EF12F0000141
:102560000101BA51C008D8A403D00001C2EF12F093
:1025700000010101BA51DB08D8B403D00001CCEF4F
:1025800012F00001DB0E0101BB6F000182EC12F0C2
:10259000010E0101BA270001BAC1BBF182EC12F0B1
:1025A0000101B82B000196EF12F088EF12F001C084
:1025B000B9F10101B9514008D8A003D00001E4EFFE
:1025C00012F000016EEF13F00101B86B0001010180
:1025D000B951B85DD8A003D0000126EF13F0000177
:1025E000036A0101B8514E0FE96E000E0320EA6E36
:1025F000EF50BA6FBA53D8A403D0000113EF13F011
:1026000000010101BA51C008D8A403D0000113EFA2
:1026100013F000010101BA51DB08D8B403D0000166
:102620001DEF13F00001DB0E0101BB6F000182EC16
:1026300012F0010E0101BA270001BAC1BBF182EC10
:1026400012F00101B82B0001E7EF12F00101B86BA5
:1026500000010101B8510108D8B003D0000168EFB2
:1026600013F00001036A0101B851320FE96E010E47
:102670000320EA6EEF50BA6FBA53D8A403D000011A
:1026800055EF13F000010101BA51C008D8A403D0DE
:10269000000155EF13F000010101BA51DB08D8B475
:1026A00003D000015FEF13F00001DB0E0101BB6FEF
:1026B000000182EC12F0010E0101BA270001BAC13B
:1026C000BBF182EC12F00101B82B000129EF13F0ED
:1026D000C00E0101BB6F000182EC12F0AEEF13F0EF
:1026E000DAEC0CF00152D8B492EF13F06BEC11F06D
:1026F0000152D8B492EF13F001013451325DD8B4D5
:1027000003D0000192EF13F0000101013551335D58
:10271000D8B403D0000192EF13F00001E4EC0CF008
:1027200072EC11F075EC11F09DEF11F075EC11F0F9
:1027300081BEA6EF13F0DAEC0CF001500152D8A4E0
:10274000A6EF13F0D2EF11F0B0EF13F06BEC11F035
:102750000152D8B4B0EF13F08EEF12F072EC11F01A
:10276000B4EF13F070EF13F0D1EF14F00101B66B7A
:102770000001BBEF13F0010E366E1E94379A1E9ABD
:10278000030E0101386F0001E2EF00F001C03AF0E2
:102790009E900101B86B0001949A94889496B8C1F8
:1027A000B9F10101B953D8B403D00001DCEF13F043
:1027B0000001C76A230EC66E0101B92D02D004D0F4
:1027C00000010001E9EF13F00001300EC66E800E2B
:1027D000C76EC68A040E6F6E6C946C886C8E6C9C8F
:1027E0006B8E6B9A6B9C6B986C9A6B8E979A8E8A99
:1027F00098988F888C82FDEF13F0210E006E002ECA
:10280000FED7070E366E979A8E8A98988F888C829C
:10281000010E0101B96FF40EB86F00011EEF01F057
:1028200001C0B7F10101B72D02D004D000010001B1
:1028300020EF14F000011E969CEF14F08EEF14F0C0
:1028400037A077EF14F00101B7510208D8B403D0D4
:10285000000177EF14F000011E761EB634EF14F07D
:1028600090EF14F075EF14F00101BD6B2FC0BCF1B7
:10287000BCC1B9F1B86B036A2E50B8270350B92315
:10288000BB6BBA6BB933B833B933B833B933B83378
:102890001F0EB917B851B825BC6FB951B921BD6F1A
:1028A000B851BC25BE6FB951BD21BF6FB851BE250F
:1028B000C06FB951BF21C16FB851C025BA6FB951AE
:1028C000C121BB6FC00EBA25016E5D0EBB21036E28
:1028D0000350026E000102C0B9F101C0B8F1B9C1E4
:1028E000CFFFB8C1CEFFA7EF14F08EEF14F00101B7
:1028F000B653D8B403D000018BEF14F000010101EE
:10290000B62B97969682978E97968E960001FDEF3E
:1029100013F08EEF14F01E96A7EF14F0A7EF14F04B
:10292000050E366E979A8E9A98988F884EEF02F021
:1029300040EF04F0A7EF14F0080E366E1E9698EFE5
:102940000FF00152D8B4A5EF14F0A7EF14F0140E55
:10295000366E979A8E8A98988F888C82326AC95080
:10296000206E3250C96E6B9E8B9AC69A979A8E9A39
:1029700098988F98382AD8B4392A59EC08F09E9044
:1029800037AEC6EF14F09D80C8EF14F091EC07F05D
:1029900011EF11F027EF11F01EB2D1EF14F0B2EFEA
:1029A00013F0000E016EDDEF14F00A0E366E3FECF0
:1029B00008F037EC08F0A7EF14F09E902EEF00F02F
:1029C00095CF99F193CF9AF183CF9CF181CF9BF171
:1029D000938E959A01019D818C8A0A0EDD6F00010C
:1029E000DDC134F0020E345E000000000000000083
:1029F00000000000342EF8EF14F081BE03EF15F054
:102A000001019D9100018C9A0A0E0101DD6F000108
:102A1000DDC134F0020E345E000000000000000052
:102A200000000000342E10EF15F081AE1BEF15F002
:102A300001019D91000199C195FF9AC193FF9CC12D
:102A400083FF9BC181FF01019DB103D0000131EFE4
:102A500015F000011E82010E016E36EF15F036EF03
:102A600015F01E92000E016E36EF15F076EF21F094
:102A700001019D510001D8B448EF15F0010AD8B406
:102A800060EF15F0030AD8B478EF15F096EF15F063
:102A9000EF0E926E806AFF0E936E816AD30E946E73
:102AA000826A730E956E0C0E836ECC0E966E846ADF
:102AB0000B0E976E856AE40E986E866A96EF15F097
:102AC000D30E926E806AFF0E936E816AC30E946E6F
:102AD000826A020E956E840E836E0C0E966E846A68
:102AE0001A0E976E856AE40E986E866A96EF15F058
:102AF000FF0E926EFF0E806EFF0E936EFF0E816EC4
:102B0000FF0E946EFF0E826EFF0E956EFF0E836EAB
:102B1000FF0E966EFF0E846EFF0E976EFF0E856E93
:102B2000FF0E986EFF0E866E96EF15F0010E016E89
:102B3000000C01019F51F90FD8A003D00001C1EF93
:102B400015F0070F0001C2EF15F00F0EC16EC1EFB7
:102B500015F00E0EC16EC1EF15F00D0EC16EC1EF76
:102B600015F00C0EC16EC1EF15F00B0EC16EC1EF6A
:102B700015F00A0EC16EC1EF15F0090EC16EC1EF5E
:102B800015F0000CF2CF0EF0F29EE824AF0FF66EB7
:102B90002B0EF76ED8B0F72A000EF86EFB6E0A0007
:102BA000F550FA6E0800F5500EBEF28EF96E4A2B03
:102BB000522B5A2B622B6A2B722B7A2BC150F00BA3
:102BC00001019E6F9D51FB0FD8A003D0000115EFAE
:102BD00016F0050F000116EF16F0020E01019F6FAF
:102BE000000199EC15F015EF16F0030E01019F6F2F
:102BF000000199EC15F015EF16F0040E01019F6F1E
:102C0000000199EC15F015EF16F0050E01019F6F0C
:102C1000000199EC15F015EF16F0060E01019F6FFB
:102C2000000199EC15F015EF16F0000CF2CF0EF044
:102C3000F29EE824570FF66E2C0EF76ED8B0F72AE6
:102C4000000EF86EFB6E0A00F550FA6E0800F550A3
:102C50000EBEF28EF96EDA2BEA2BFA2B0A2C1A2C06
:102C600081B430EF16F0080E006E01019D6B008EEE
:102C7000000151EF16F0009E51EF16F0D89081B48C
:102C8000D88001019D330001008C51EF16F0009CAB
:102C9000002E3EEF16F001019D51016E000161EF23
:102CA00016F0500E00BE150E016E012E55EF16F0F7
:102CB000000000BE3BEF16F000BC47EF16F03EEF01
:102CC00016F0A6EF19F08A92080E016E00D00000EF
:102CD000018E7DEF16F0019E01019D330001D8B0F9
:102CE0008A82D8A08A92018C7DEF16F0019C012E79
:102CF0006CEF16F000D000008A82500EE96EE92ECB
:102D00007FEF16F000D001BE6BEF16F001BC76EF3E
:102D100016F0C4EF19F08C8E95EF16F08C86C00E6D
:102D2000F212000C959E8BEF16F095968EEC16F035
:102D30000101DB6B640EDA6F00010101DA51DB1176
:102D4000D8A403D00001F2EF16F00001FA0E010141
:102D5000DD6F0001DDC134F0020E345E00000000C2
:102D60000000000000000000342EB2EF16F0FA0E52
:102D70000101DD6F0001DDC134F0020E345E0000A0
:102D800000000000000000000000342EC3EF16F029
:102D9000FA0E0101DD6F0001DDC134F0020E345E78
:102DA000000000000000000000000000342ED4EFFE
:102DB00016F0FA0E0101DD6F0001DDC134F0020EE4
:102DC000345E000000000000000000000000342E0F
:102DD000E5EF16F00101DA51D8B4DB07DA0700019C
:102DE0009DEF16F0FF0E1D6EFF0E1C6EFF0E1B6E8C
:102DF000FF0E1A6E010E1F6E1E80000CF29CF29EDA
:102E0000F2BEFFEF16F0010E0101B86F0001949AB7
:102E100094889496B8C1B9F10101B953D8B403D0DC
:102E2000000117EF17F00001C76A230EC66E0101FB
:102E3000B92D02D004D00001000124EF17F00001E9
:102E4000300EC66E800EC76E8C96000CC9CFA5F1F1
:102E5000A3C1C9FFC7A02AEF17F0C9CFA4F1010190
:102E6000A451016E0001000CFEEC16F0840E01016D
:102E7000A36F000126EC17F00101A36B000126EC03
:102E800017F0010E036E9E0EE96E03C0EAFFEFCF4E
:102E9000A1F1A1C1A3F126EC17F0010E036E9D0E66
:102EA000E96E03C0EAFFEFCFA1F1A1C1A3F126ECC7
:102EB00017F09FC1A3F126EC17F001C0A0F18EEC32
:102EC00016F00101A051016E000135EF1AF0FEEC81
:102ED00016F0540E0101A36F000126EC17F001015A
:102EE000A36B000126EC17F0010E036EA00EE96E35
:102EF00003C0EAFFEFCFA2F1A2C1A3F126EC17F0C5
:102F0000010E036E9F0EE96E03C0EAFFEFCFA2F140
:102F1000A2C1A3F126EC17F00101A36B000126EC7E
:102F200017F00101A36B000126EC17F001C0A1F11D
:102F30008EEC16F00101A151016E00014DEF1AF067
:102F4000010E01019D6F000138EC15F001019D6B30
:102F50000001DEEC15F037EC08F03CEC08F0010164
:102F6000DB6B640EDA6F00010101DA51DB11D8A4CA
:102F700003D0000109EF18F00001FA0E0101DD6F26
:102F80000001DDC134F0020E345E000000000000DC
:102F9000000000000000342EC9EF17F0FA0E010106
:102FA000DD6F0001DDC134F0020E345E0000000070
:102FB0000000000000000000342EDAEF17F0FA0ED7
:102FC0000101DD6F0001DDC134F0020E345E00004E
:102FD00000000000000000000000342EEBEF17F0AE
:102FE000FA0E0101DD6F0001DDC134F0020E345E26
:102FF000000000000000000000000000342EFCEF84
:1030000017F00101DA51D8B4DB07DA070001B4EF99
:1030100017F039EC08F00101DB6B640EDA6F000188
:103020000101DA51DB11D8A403D0000165EF18F0DB
:103030000001FA0E0101DD6F0001DDC134F0020E66
:10304000345E000000000000000000000000342E8C
:1030500025EF18F0FA0E0101DD6F0001DDC134F03B
:10306000020E345E000000000000000000000000BE
:10307000342E36EF18F0FA0E0101DD6F0001DDC1CC
:1030800034F0020E345E000000000000000000007A
:103090000000342E47EF18F0FA0E0101DD6F000139
:1030A000DDC134F0020E345E0000000000000000BC
:1030B00000000000342E58EF18F00101DA51D8B4A6
:1030C000DB07DA07000110EF18F03CEC08F0010113
:1030D000DB6B640EDA6F00010101DA51DB11D8A459
:1030E00003D00001C1EF18F00001FA0E0101DD6FFD
:1030F0000001DDC134F0020E345E0000000000006B
:10310000000000000000342E81EF18F0FA0E0101DB
:10311000DD6F0001DDC134F0020E345E00000000FE
:103120000000000000000000342E92EF18F0FA0EAC
:103130000101DD6F0001DDC134F0020E345E0000DC
:1031400000000000000000000000342EA3EF18F083
:10315000FA0E0101DD6F0001DDC134F0020E345EB4
:10316000000000000000000000000000342EB4EF5A
:1031700018F00101DA51D8B4DB07DA0700016CEF6F
:1031800018F039EC08F00101DB6B640EDA6F000116
:103190000101DA51DB11D8A403D000011DEF19F0B1
:1031A0000001FA0E0101DD6F0001DDC134F0020EF5
:1031B000345E000000000000000000000000342E1B
:1031C000DDEF18F0FA0E0101DD6F0001DDC134F012
:1031D000020E345E0000000000000000000000004D
:1031E000342EEEEF18F0FA0E0101DD6F0001DDC1A3
:1031F00034F0020E345E0000000000000000000009
:103200000000342EFFEF18F0FA0E0101DD6F00010F
:10321000DDC134F0020E345E00000000000000004A
:1032200000000000342E10EF19F00101DA51D8B47B
:10323000DB07DA070001C8EF18F03CEC08F08C8AD5
:103240008C988D8A8D9897908E8089968984899A9A
:1032500001019951E96E9A51EA6E81CFEFFF8C9A84
:103260008C888D9A8D8897908E9089868994898A8A
:10327000010E9925E96E000E9A21EA6E81CFEFFFCB
:10328000FF0E926EFD0E936E8A82400EAF6EAC9C66
:10329000AC84AC98AC8AAB8EAB9CAB88949C948E7F
:1032A000ABB403D0000158EF19F00001AECF9BF191
:1032B000ABA25CEF19F0AB98AB88FF0EAD6E9EAA87
:1032C00064EF19F0AECF9CF19EAA69EF19F0AECF72
:1032D0009CF1ACA269EF19F0FA0E0101DD6F00015B
:1032E000DDC134F0020E345E00000000000000007A
:1032F00000000000342E78EF19F0FA0E0101DD6FA6
:103300000001DDC134F0020E345E00000000000058
:10331000000000000000342E89EF19F0FF0E0101BB
:103320009B6F8B0EAD6E000101019B519B07000A44
:10333000D8A403D00001A1EF19F0000181B494EFEB
:1033400019F081B4B4EF19F030EF16F001C09BF121
:10335000020E01019925E96E000E9A21EA6E9BC1C9
:10336000EFFF0001BEEF19F0020E01019925E96E91
:10337000000E9A21EA6EFF0EEF6E0001750E01013C
:103380009D6F000163EF16F0640E0101DD6F000117
:10339000DDC134F0020E345E0000000000000000C9
:1033A00000000000342ED0EF19F09EAAE4EF19F0CF
:1033B000030E01019925E96E000E9A21EA6EAECF47
:1033C000EFFF0001EEEF19F0030E01019925E96E00
:1033D000000E9A21EA6EFF0EEF6E0001040E01014D
:1033E0009925E96E000E9A21EA6EEF6A050E99257D
:1033F000E96E000E9A21EA6EEF6A070E956EFF0ED7
:10340000936E00018C9498968F86979A8E9A9898CE
:103410008F98010E0101B86F0001949A94889496D8
:10342000B8C1B9F10101B953D8B403D000011DEFFF
:103430001AF00001C76A230EC66E0101B92D02D031
:1034400004D0000100012AEF1AF00001300EC66E10
:10345000800EC76E92EC16F001019E6B370E9D6FC9
:103460001C0E9F6F000134EF17F0050E0101992526
:10347000E96E000E9A21EA6EEF6A050E9925016E3B
:10348000000E9A21036E01509D6F03C09EF1A06B48
:10349000370E9F6F000167EF17F09EC1EAFF9DC1D5
:1034A000E9FF01C0EFFFBF0E936E01019B6B9951C5
:1034B000E96E9A51EA6EEF50AA08D8B403D0000121
:1034C00066EF1AF0000101019B2B0001010E0101C2
:1034D0009925E96E000E9A21EA6EEF505508D8B48E
:1034E00003D0000178EF1AF0000101019B2B0001CD
:1034F000020E01019925E96E000E9A21EA6EEF5045
:103500008B08D8B403D000018AEF1AF00001010142
:103510009B2B0001030E01019925E96E000E9A21F3
:10352000EA6EEF507508D8B403D000019CEF1AF092
:10353000000101019B2B0001050E01019925E96E97
:10354000000E9A21EA6EEF501C08D8B403D0000197
:10355000AEEF1AF0000101019B2B000101019B510C
:103560000508D8B403D00001C2EF1AF00001090E1B
:1035700001019925E96E000E9A21EA6EEF6A0001B9
:10358000CCEF1AF0090E01019925E96E000E9A217F
:10359000EA6EFF0EEF6E0001030E0101DB6F200EDD
:1035A000DA6F00010101DA51DB11D8A403D0000168
:1035B00027EF1BF00001FA0E0101DD6F0001DDC1F4
:1035C00034F0020E345E0000000000000000000035
:1035D0000000342EE7EF1AF0FA0E0101DD6F000152
:1035E000DDC134F0020E345E000000000000000077
:1035F00000000000342EF8EF1AF0FA0E0101DD6F22
:103600000001DDC134F0020E345E00000000000055
:10361000000000000000342E09EF1BF0FA0E01013B
:10362000DD6F0001DDC134F0020E345E00000000E9
:103630000000000000000000342E1AEF1BF0010112
:10364000DA51D8B4DB07DA070001D2EF1AF039EC0F
:1036500008F0030E0101DB6F200EDA6F000101019B
:10366000DA51DB11D8A403D0000184EF1BF0000174
:10367000FA0E0101DD6F0001DDC134F0020E345E8F
:10368000000000000000000000000000342E44EFA5
:103690001BF0FA0E0101DD6F0001DDC134F0020EF6
:1036A000345E000000000000000000000000342E26
:1036B00055EF1BF0FA0E0101DD6F0001DDC134F0A2
:1036C000020E345E00000000000000000000000058
:1036D000342E66EF1BF0FA0E0101DD6F0001DDC133
:1036E00034F0020E345E0000000000000000000014
:1036F0000000342E77EF1BF00101DA51D8B4DB075C
:10370000DA0700012FEF1BF0090E01019925E96E80
:10371000000E9A21EA6EEF52D8B403D0000196EF62
:103720001BF000013CEC08F098EF1BF03FEC08F0B8
:10373000030E0101DB6F200EDA6F00010101DA5187
:10374000DB11D8A403D00001F3EF1BF00001FA0E47
:103750000101DD6F0001DDC134F0020E345E0000B6
:1037600000000000000000000000342EB3EF1BF04A
:10377000FA0E0101DD6F0001DDC134F0020E345E8E
:10378000000000000000000000000000342EC4EF24
:103790001BF0FA0E0101DD6F0001DDC134F0020EF5
:1037A000345E000000000000000000000000342E25
:1037B000D5EF1BF0FA0E0101DD6F0001DDC134F021
:1037C000020E345E00000000000000000000000057
:1037D000342EE6EF1BF00101DA51D8B4DB07DA072B
:1037E00000019EEF1BF039EC08F037EC08F0010EF9
:1037F000016E82EF21F0C26A0D0EC16E060EC06E20
:1038000021EF1CF08D9608EF1CF0969602EF1CF04D
:10381000140E356E000E016E2FEF1CF08D8C000C17
:10382000968E969C0EEC1CF031EF1CF093809590D8
:103830008C8033EF1CF09380958035EF1CF0FBEF0C
:103840001BF001019D6B000138EC15F001019D6B2F
:103850000001DEEC15F092EC16F005EF1CF010EF15
:103860001CF016EF1CF01BEF1CF01E929786969230
:10387000978E8D9284EF21F001019D6B0001010173
:103880009D510708D8B003D000017DEF1CF0000166
:10389000D89001019D359F6B9E6F3B0E9E25E96E72
:1038A000010E9F21EA6E9B51EF5CD8B403D000015A
:1038B00078EF1CF00001D89001019D35A26BA16F3B
:1038C000010EA125016E000EA221036E01503B0FD7
:1038D000E96E010E0320EA6E9C51EF5CD8B403D070
:1038E000000178EF1CF00001010E016EDEEF1CF00C
:1038F00001019D2B00013FEF1CF001019D6B0001B8
:1039000001019D510708D8B003D00001DCEF1CF085
:103910000001D89001019D359F6B9E6F3B0E9E2547
:10392000E96E010E9F21EA6EEF52D8B403D0000178
:10393000D7EF1CF00001D89001019D35A26BA16F5B
:10394000010EA125016E000EA221036E01503B0F56
:10395000E96E010E0320EA6EEF52D8B403D00001E5
:10396000D7EF1CF00001D89001019D359F6B9E6F31
:103970003B0E9E25E96E010E9F21EA6E9BC1EFFF73
:10398000D8909D359F6B9E6F010E9E25016E000E97
:103990009F21036E01503B0FE96E010E0320EA6E7A
:1039A0009CC1EFFF010E016E0001DEEF1CF0010172
:1039B0009D2B000180EF1CF0000E016EE8EF1CF063
:1039C000A50E01019B6F0E0E9C6F00013CEF1CF0D9
:1039D00001C09AF101019A51016E000122EF1DF020
:1039E0000101996B0001010199510708D8B003D07A
:1039F00000011FEF1DF00001D890010199359B6B6C
:103A00009A6F3B0E9A25E96E010E9B21EA6EEF6AD2
:103A1000D89099359B6B9A6F010E9A25016E000E16
:103A20009B21036E01503B0FE96E010E0320EA6EED
:103A3000EF6A00010101992B0001F3EF1CF01E9CBD
:103A4000E0EF1CF059EF20F0A69C9AC1A9FFA69EBA
:103A5000A680A850016E3EEF1DF02F6A0101996B00
:103A60000001010199510708D8B003D0000145EFCA
:103A70001DF0000199C19AF124EF1DF001502F1A99
:103A80000101992B000131EF1DF02F52D8A44BEF0B
:103A90001DF08D0E2F6E2FC03FF0A3EF1DF0979AF3
:103AA0009898949A988495949592979A8E9A9898C3
:103AB0008F988C9498968F86850ECD6ECD9E080E2D
:103AC000016E0409CA6E130ECB6ECD96040E6F6E96
:103AD0006C946C886C8E6C9C6B8E6B9A6B9C6B98E8
:103AE0006C9A6B9E0101B86B0001949A948894962D
:103AF000B8C1B9F10101B953D8B403D0000185EFC1
:103B00001DF00001C76A230EC66E0101B92D02D057
:103B100004D00001000192EF1DF00001300EC66ECE
:103B2000800EC76E326AC950206E3250C96EC7A06F
:103B300097EF1DF0326AC950206E3250C96E8B9AD1
:103B4000C69A2DEF1DF0800E376E020E3D6E200ED0
:103B50003C6E396A386A3B6A246A24500808D8A047
:103B6000BDEF1DF0036A2450400FE96E000E0320E4
:103B7000EA6EEF6A242AADEF1DF04BEF20F0010151
:103B8000AD6BAE6B00010101AE510608D8B003D099
:103B90000001EAEF1DF00001ACC103F00101AB51DF
:103BA000E96E03C0EAFFEF50AD19F2CFB0F1F29E1B
:103BB000000153EC00F00101B0BFF28E016E01C0B4
:103BC000ADF1AB2BD8B4AC2B00010101AE2B000141
:103BD000C3EF1DF0ACC103F00101AB51E96E03C0AE
:103BE000EAFFAD51EF5CD8B403D00001FFEF1DF048
:103BF0000001010E016E03EF1EF003EF1EF0000E38
:103C0000016E03EF1EF091EF1FF00101AB518F0821
:103C1000D8A003D0000112EF1EF00001000E016ECB
:103C20008EEF1EF00101AC51AB258F08D8A003D058
:103C3000000120EF1EF00001000E016E8EEF1EF05D
:103C4000196AF2BE198EF29EC7EC08F019BEF28E08
:103C500001C0AFF1196AF2BE198EF29ECC0E0101BD
:103C6000DB6F000142EC09F019BEF28E196AF2BE58
:103C7000198EF29EF00E0101DB6F000142EC09F09B
:103C800019BEF28E196AF2BE198EF29EABC1DBF13B
:103C900042EC09F019BEF28E196AF2BE198EF29E3C
:103CA0000101DB6B000142EC09F019BEF28E01014B
:103CB000B06B00010101AC51B05DD8A003D0000190
:103CC00083EF1EF00001AEC103F00101AD51B16FF1
:103CD00003C0B2F1196AF2BE198EF29E0001B1EC76
:103CE00009F019BEF28EB2C1EAFFB1C1E9FF01C00D
:103CF000EFFF0101AD2BD8B4AE2B00010101B02BB9
:103D000000015AEF1EF0196AF2BE198EF29EC7EC3E
:103D100008F019BEF28E0101AF51016E00019EEF55
:103D20001FF0010E0101AA6FA10EA96F196AF2BE60
:103D3000198EF29E0001C7EC08F019BEF28E01C088
:103D40009FF1196AF2BE198EF29E330E0101DB6FEC
:103D5000000142EC09F019BEF28EAAC103F0010184
:103D6000A951AB6F03C0ACF1196AF2BE198EF29E75
:103D70000001B1EC09F019BEF28EACC1EAFFABC193
:103D8000E9FF01C0EFFF0101A92BD8B4AA2BAAC1FA
:103D900003F0A951AB6F03C0ACF1196AF2BE198EE2
:103DA000F29E0001B1EC09F019BEF28EACC1EAFF3F
:103DB000ABC1E9FF01C0EFFF0101A92BD8B4AA2BC9
:103DC000AAC103F0A951AB6F03C0ACF1196AF2BEEE
:103DD000198EF29E0001B1EC09F019BEF28EACC151
:103DE000EAFFABC1E9FF01C0EFFF0101A92BD8B485
:103DF000AA2BAAC103F0A951AB6F03C0ACF1196A99
:103E0000F2BE198EF29E0001B1EC09F019BEF28EDD
:103E1000ACC1EAFFABC1E9FF01C0EFFF0101A92B73
:103E2000D8B4AA2BAAC103F0A951AB6F03C0ACF15F
:103E3000196AF2BE198EF29E0001B1EC09F019BEAA
:103E4000F28EACC1EAFFABC1E9FF01C0EFFF010197
:103E5000A92BD8B4AA2BAAC103F0A951AB6F03C0F8
:103E6000ACF1196AF2BE198EF29E0001B1EC09F0B4
:103E700019BEF28EACC1EAFFABC1E9FF01C0EFFF92
:103E80000101A92BD8B4AA2BAAC103F0A951AB6F89
:103E900003C0ACF1196AF2BE198EF29E0001B1ECBA
:103EA00009F019BEF28EACC1EAFFABC1E9FF01C057
:103EB000EFFF0101A92BD8B4AA2BAAC103F0A95185
:103EC000AB6F03C0ACF1196AF2BE198EF29E00010D
:103ED000B1EC09F019BEF28EACC1EAFFABC1E9FF4B
:103EE00001C0EFFF0101A92BD8B4AA2B196AF2BEB9
:103EF000198EF29E0001C7EC08F019BEF28E080E72
:103F00000101A95F000EAA5B9F53D8A403D0000152
:103F100093EF1FF00001AAC1ACF1A9C1ABF1BFEF53
:103F20001DF001C09FF10101AB6B020EAC6F9EC191
:103F3000AEF19DC1ADF1000105EF1EF0060E0101CD
:103F4000A927000EAA23020E9D27000E9E239F5331
:103F5000D8A403D00001DEEF1FF000010101A06B27
:103F600000010101A0510508D8B003D00001DCEF29
:103F70001FF000019EC103F001019D51AB6F03C012
:103F8000ACF1AAC103F0A951E96E03C0EAFFEF50FA
:103F9000AD6FACC1EAFFABC1E9FFADC1EFFF9D2B37
:103FA000D8B49E2BA951D8B4AA07A90700010101D2
:103FB000A02B0001B1EF1FF0FCEF1FF0020E01017A
:103FC000A06F00010101A0510708D8B003D0000183
:103FD000FCEF1FF000019EC103F001019D51E96E4D
:103FE00003C0EAFFEF6A9D2BD8B49E2B00010101AC
:103FF000A02B0001E2EF1FF0080E01019D5D006E95
:10400000000E9E59036E0050E96E03C0EAFF020ED7
:10401000EF6E070E9D5D006E000E9E59036E005000
:10402000E96E03C0EAFFE80EEF6E9F51016E0001DA
:1040300025EF20F08D9C29EF20F00EEC1CF09BC1A9
:104040009EF19AC19DF191EF1EF001C09CF11AEF13
:1040500020F001019C51016E000137EF20F0010EAC
:1040600001019B6F1D0E9A6F00011DEF20F001C032
:1040700099F101019951016E00014DEF20F04B6A59
:10408000090E01011A6F4A6A1E981E9A030E386FB4
:1040900000014FEF1DF02FEF20F023EF21F0196A00
:1040A000F2BE198EF29EA1EC07F019BEF28EF0EF6F
:1040B0001CF001014B938D6B1E9C4B851E9E4B91FA
:1040C0008C6B8D6B3E52D8A403D0000121EF21F000
:1040D00000013FEC08F00101DB6BC80EDA6F000154
:1040E0000101DA51DB11D8A403D00001C5EF20F0A3
:1040F0000001FA0E0101DD6F0001DDC134F0020E96
:10410000345E000000000000000000000000342EBB
:1041100085EF20F0FA0E0101DD6F0001DDC134F002
:10412000020E345E000000000000000000000000ED
:10413000342E96EF20F0FA0E0101DD6F0001DDC193
:1041400034F0020E345E00000000000000000000A9
:104150000000342EA7EF20F0FA0E0101DD6F000100
:10416000DDC134F0020E345E0000000000000000EB
:1041700000000000342EB8EF20F00101DA51D8B46D
:10418000DB07DA07000170EF20F037EC08F00101DF
:10419000DB6BC80EDA6F00010101DA51DB11D8A424
:1041A00003D0000121EF21F00001FA0E0101DD6FC3
:1041B0000001DDC134F0020E345E0000000000009A
:1041C000000000000000342EE1EF20F0FA0E0101A3
:1041D000DD6F0001DDC134F0020E345E000000002E
:1041E0000000000000000000342EF2EF20F0FA0E74
:1041F0000101DD6F0001DDC134F0020E345E00000C
:1042000000000000000000000000342E03EF21F049
:10421000FA0E0101DD6F0001DDC134F0020E345EE3
:10422000000000000000000000000000342E14EF29
:1042300021F00101DA51D8B4DB07DA070001CCEF35
:1042400020F03FEF20F0196AF2BE198EF29ED7ECF3
:104250000CF019BEF28E86EF21F0948C948EAC9CFB
:10426000AC84AC8AAB9CAB88AB8E01019A53D8B4BA
:1042700003D0000140EF21F00001AC9841EF21F0A4
:10428000AC88010199510001D8B44DEF21F0010A29
:10429000D8B451EF21F055EF21F0010EAF6E55EF7C
:1042A00021F0070EAF6E55EF21F090EF21F01E8C3C
:1042B0009EEF21F01E9E010199B11E8E4B919AB185
:1042C0004B810001A5EF21F0F86AD09E0D8EEA6ABD
:1042D000E96A8A82C150C00B0F09C16E070EB46E25
:1042E000050E01018E6F0001E0EF14F00152D8B409
:1042F00082EF21F0010E01019A6F8F0E996F00017C
:10430000A0EF17F01FEF1CF04FEF20F0939C938E5F
:104310000101996B9A6B080E9B6F00012DEF21F044
:10432000196AF2BE198EF29E010E0101C66F0001DC
:10433000BEEC08F019BEF28E57EF21F00101996B27
:10434000010E9A6F00015AEF21F0C00EF212196AA5
:10435000F2BE198EF29ED7EC0CF019BEF28EAFEFC2
:0443600021F0030045
:020000040030CA
:0E00000000220C0E83018100FFC0FFE0FF40D4
:00000001FF
;PIC18F6720
